{"src/StringLib.sol":{"StringLib":{"abi":[{"inputs":[{"internalType":"bytes","name":"buffer","type":"bytes"}],"name":"toHex","outputs":[{"internalType":"string","name":"","type":"string"}],"stateMutability":"pure","type":"function"}],"evm":{"bytecode":{"linkReferences":{},"object":"6103ec61003a600b82828239805160001a60731461002d57634e487b7160e01b600052600060045260246000fd5b30600052607381538281f3fe73000000000000000000000000000000000000000030146080604052600436106100355760003560e01c8063c5bec6fc1461003a575b600080fd5b61004d610048366004610219565b610063565b60405161005a91906102af565b60405180910390f35b606060006100728360026102f8565b67ffffffffffffffff81111561008a5761008a61030f565b6040519080825280601f01601f1916602001820160405280156100b4576020820181803683370190505b5060408051808201909152601081526f181899199a1a9b1b9c1cb0b131b232b360811b602082015290915060005b848110156101ed578182518787848181106100ff576100ff610325565b6101109392013560f81c9050610351565b8151811061012057610120610325565b01602001516001600160f81b0319168361013b8360026102f8565b8151811061014b5761014b610325565b60200101906001600160f81b031916908160001a90535081825187878481811061017757610177610325565b6101889392013560f81c9050610365565b8151811061019857610198610325565b01602001516001600160f81b031916836101b38360026102f8565b6101be906001610379565b815181106101ce576101ce610325565b60200101906001600160f81b031916908160001a9053506001016100e2565b50816040516020016101ff919061038c565b604051602081830303815290604052925050505b92915050565b6000806020838503121561022c57600080fd5b823567ffffffffffffffff8082111561024457600080fd5b818501915085601f83011261025857600080fd5b81358181111561026757600080fd5b86602082850101111561027957600080fd5b60209290920196919550909350505050565b60005b838110156102a657818101518382015260200161028e565b50506000910152565b60208152600082518060208401526102ce81604085016020870161028b565b601f01601f19169190910160400192915050565b634e487b7160e01b600052601160045260246000fd5b8082028115828204841417610213576102136102e2565b634e487b7160e01b600052604160045260246000fd5b634e487b7160e01b600052603260045260246000fd5b634e487b7160e01b600052601260045260246000fd5b6000826103605761036061033b565b500490565b6000826103745761037461033b565b500690565b80820180821115610213576102136102e2565b61060f60f31b8152600082516103a981600285016020870161028b565b919091016002019291505056fea2646970667358221220537f24325f5a3fdc5ad69e3a19e80224faa1926149e9e043e3d50fca80766b9a64736f6c63430008170033","opcodes":"PUSH2 0x3EC PUSH2 0x3A PUSH1 0xB DUP3 DUP3 DUP3 CODECOPY DUP1 MLOAD PUSH1 0x0 BYTE PUSH1 0x73 EQ PUSH2 0x2D JUMPI PUSH4 0x4E487B71 PUSH1 0xE0 SHL PUSH1 0x0 MSTORE PUSH1 0x0 PUSH1 0x4 MSTORE PUSH1 0x24 PUSH1 0x0 REVERT JUMPDEST ADDRESS PUSH1 0x0 MSTORE PUSH1 0x73 DUP2 MSTORE8 DUP3 DUP2 RETURN INVALID PUSH20 0x0 ADDRESS EQ PUSH1 0x80 PUSH1 0x40 MSTORE PUSH1 0x4 CALLDATASIZE LT PUSH2 0x35 JUMPI PUSH1 0x0 CALLDATALOAD PUSH1 0xE0 SHR DUP1 PUSH4 0xC5BEC6FC EQ PUSH2 0x3A JUMPI JUMPDEST PUSH1 0x0 DUP1 REVERT JUMPDEST PUSH2 0x4D PUSH2 0x48 CALLDATASIZE PUSH1 0x4 PUSH2 0x219 JUMP JUMPDEST PUSH2 0x63 JUMP JUMPDEST PUSH1 0x40 MLOAD PUSH2 0x5A SWAP2 SWAP1 PUSH2 0x2AF JUMP JUMPDEST PUSH1 0x40 MLOAD DUP1 SWAP2 SUB SWAP1 RETURN JUMPDEST PUSH1 0x60 PUSH1 0x0 PUSH2 0x72 DUP4 PUSH1 0x2 PUSH2 0x2F8 JUMP JUMPDEST PUSH8 0xFFFFFFFFFFFFFFFF DUP2 GT ISZERO PUSH2 0x8A JUMPI PUSH2 0x8A PUSH2 0x30F JUMP JUMPDEST PUSH1 0x40 MLOAD SWAP1 DUP1 DUP3 MSTORE DUP1 PUSH1 0x1F ADD PUSH1 0x1F NOT AND PUSH1 0x20 ADD DUP3 ADD PUSH1 0x40 MSTORE DUP1 ISZERO PUSH2 0xB4 JUMPI PUSH1 0x20 DUP3 ADD DUP2 DUP1 CALLDATASIZE DUP4 CALLDATACOPY ADD SWAP1 POP JUMPDEST POP PUSH1 0x40 DUP1 MLOAD DUP1 DUP3 ADD SWAP1 SWAP2 MSTORE PUSH1 0x10 DUP2 MSTORE PUSH16 0x181899199A1A9B1B9C1CB0B131B232B3 PUSH1 0x81 SHL PUSH1 0x20 DUP3 ADD MSTORE SWAP1 SWAP2 POP PUSH1 0x0 JUMPDEST DUP5 DUP2 LT ISZERO PUSH2 0x1ED JUMPI DUP2 DUP3 MLOAD DUP8 DUP8 DUP5 DUP2 DUP2 LT PUSH2 0xFF JUMPI PUSH2 0xFF PUSH2 0x325 JUMP JUMPDEST PUSH2 0x110 SWAP4 SWAP3 ADD CALLDATALOAD PUSH1 0xF8 SHR SWAP1 POP PUSH2 0x351 JUMP JUMPDEST DUP2 MLOAD DUP2 LT PUSH2 0x120 JUMPI PUSH2 0x120 PUSH2 0x325 JUMP JUMPDEST ADD PUSH1 0x20 ADD MLOAD PUSH1 0x1 PUSH1 0x1 PUSH1 0xF8 SHL SUB NOT AND DUP4 PUSH2 0x13B DUP4 PUSH1 0x2 PUSH2 0x2F8 JUMP JUMPDEST DUP2 MLOAD DUP2 LT PUSH2 0x14B JUMPI PUSH2 0x14B PUSH2 0x325 JUMP JUMPDEST PUSH1 0x20 ADD ADD SWAP1 PUSH1 0x1 PUSH1 0x1 PUSH1 0xF8 SHL SUB NOT AND SWAP1 DUP2 PUSH1 0x0 BYTE SWAP1 MSTORE8 POP DUP2 DUP3 MLOAD DUP8 DUP8 DUP5 DUP2 DUP2 LT PUSH2 0x177 JUMPI PUSH2 0x177 PUSH2 0x325 JUMP JUMPDEST PUSH2 0x188 SWAP4 SWAP3 ADD CALLDATALOAD PUSH1 0xF8 SHR SWAP1 POP PUSH2 0x365 JUMP JUMPDEST DUP2 MLOAD DUP2 LT PUSH2 0x198 JUMPI PUSH2 0x198 PUSH2 0x325 JUMP JUMPDEST ADD PUSH1 0x20 ADD MLOAD PUSH1 0x1 PUSH1 0x1 PUSH1 0xF8 SHL SUB NOT AND DUP4 PUSH2 0x1B3 DUP4 PUSH1 0x2 PUSH2 0x2F8 JUMP JUMPDEST PUSH2 0x1BE SWAP1 PUSH1 0x1 PUSH2 0x379 JUMP JUMPDEST DUP2 MLOAD DUP2 LT PUSH2 0x1CE JUMPI PUSH2 0x1CE PUSH2 0x325 JUMP JUMPDEST PUSH1 0x20 ADD ADD SWAP1 PUSH1 0x1 PUSH1 0x1 PUSH1 0xF8 SHL SUB NOT AND SWAP1 DUP2 PUSH1 0x0 BYTE SWAP1 MSTORE8 POP PUSH1 0x1 ADD PUSH2 0xE2 JUMP JUMPDEST POP DUP2 PUSH1 0x40 MLOAD PUSH1 0x20 ADD PUSH2 0x1FF SWAP2 SWAP1 PUSH2 0x38C JUMP JUMPDEST PUSH1 0x40 MLOAD PUSH1 0x20 DUP2 DUP4 SUB SUB DUP2 MSTORE SWAP1 PUSH1 0x40 MSTORE SWAP3 POP POP POP JUMPDEST SWAP3 SWAP2 POP POP JUMP JUMPDEST PUSH1 0x0 DUP1 PUSH1 0x20 DUP4 DUP6 SUB SLT ISZERO PUSH2 0x22C JUMPI PUSH1 0x0 DUP1 REVERT JUMPDEST DUP3 CALLDATALOAD PUSH8 0xFFFFFFFFFFFFFFFF DUP1 DUP3 GT ISZERO PUSH2 0x244 JUMPI PUSH1 0x0 DUP1 REVERT JUMPDEST DUP2 DUP6 ADD SWAP2 POP DUP6 PUSH1 0x1F DUP4 ADD SLT PUSH2 0x258 JUMPI PUSH1 0x0 DUP1 REVERT JUMPDEST DUP2 CALLDATALOAD DUP2 DUP2 GT ISZERO PUSH2 0x267 JUMPI PUSH1 0x0 DUP1 REVERT JUMPDEST DUP7 PUSH1 0x20 DUP3 DUP6 ADD ADD GT ISZERO PUSH2 0x279 JUMPI PUSH1 0x0 DUP1 REVERT JUMPDEST PUSH1 0x20 SWAP3 SWAP1 SWAP3 ADD SWAP7 SWAP2 SWAP6 POP SWAP1 SWAP4 POP POP POP POP JUMP JUMPDEST PUSH1 0x0 JUMPDEST DUP4 DUP2 LT ISZERO PUSH2 0x2A6 JUMPI DUP2 DUP2 ADD MLOAD DUP4 DUP3 ADD MSTORE PUSH1 0x20 ADD PUSH2 0x28E JUMP JUMPDEST POP POP PUSH1 0x0 SWAP2 ADD MSTORE JUMP JUMPDEST PUSH1 0x20 DUP2 MSTORE PUSH1 0x0 DUP3 MLOAD DUP1 PUSH1 0x20 DUP5 ADD MSTORE PUSH2 0x2CE DUP2 PUSH1 0x40 DUP6 ADD PUSH1 0x20 DUP8 ADD PUSH2 0x28B JUMP JUMPDEST PUSH1 0x1F ADD PUSH1 0x1F NOT AND SWAP2 SWAP1 SWAP2 ADD PUSH1 0x40 ADD SWAP3 SWAP2 POP POP JUMP JUMPDEST PUSH4 0x4E487B71 PUSH1 0xE0 SHL PUSH1 0x0 MSTORE PUSH1 0x11 PUSH1 0x4 MSTORE PUSH1 0x24 PUSH1 0x0 REVERT JUMPDEST DUP1 DUP3 MUL DUP2 ISZERO DUP3 DUP3 DIV DUP5 EQ OR PUSH2 0x213 JUMPI PUSH2 0x213 PUSH2 0x2E2 JUMP JUMPDEST PUSH4 0x4E487B71 PUSH1 0xE0 SHL PUSH1 0x0 MSTORE PUSH1 0x41 PUSH1 0x4 MSTORE PUSH1 0x24 PUSH1 0x0 REVERT JUMPDEST PUSH4 0x4E487B71 PUSH1 0xE0 SHL PUSH1 0x0 MSTORE PUSH1 0x32 PUSH1 0x4 MSTORE PUSH1 0x24 PUSH1 0x0 REVERT JUMPDEST PUSH4 0x4E487B71 PUSH1 0xE0 SHL PUSH1 0x0 MSTORE PUSH1 0x12 PUSH1 0x4 MSTORE PUSH1 0x24 PUSH1 0x0 REVERT JUMPDEST PUSH1 0x0 DUP3 PUSH2 0x360 JUMPI PUSH2 0x360 PUSH2 0x33B JUMP JUMPDEST POP DIV SWAP1 JUMP JUMPDEST PUSH1 0x0 DUP3 PUSH2 0x374 JUMPI PUSH2 0x374 PUSH2 0x33B JUMP JUMPDEST POP MOD SWAP1 JUMP JUMPDEST DUP1 DUP3 ADD DUP1 DUP3 GT ISZERO PUSH2 0x213 JUMPI PUSH2 0x213 PUSH2 0x2E2 JUMP JUMPDEST PUSH2 0x60F PUSH1 0xF3 SHL DUP2 MSTORE PUSH1 0x0 DUP3 MLOAD PUSH2 0x3A9 DUP2 PUSH1 0x2 DUP6 ADD PUSH1 0x20 DUP8 ADD PUSH2 0x28B JUMP JUMPDEST SWAP2 SWAP1 SWAP2 ADD PUSH1 0x2 ADD SWAP3 SWAP2 POP POP JUMP INVALID LOG2 PUSH5 0x6970667358 0x22 SLT KECCAK256 MSTORE8 PUSH32 0x24325F5A3FDC5AD69E3A19E80224FAA1926149E9E043E3D50FCA80766B9A6473 PUSH16 0x6C634300081700330000000000000000 "},"methodIdentifiers":{"toHex(bytes)":"c5bec6fc"}}}}}