{"src/InflateLib.sol":{"InflateLib":{"abi":[{"inputs":[{"internalType":"bytes","name":"source","type":"bytes"},{"internalType":"uint256","name":"destlen","type":"uint256"}],"name":"puffEncode","outputs":[{"internalType":"bytes","name":"res","type":"bytes"}],"stateMutability":"pure","type":"function"}],"evm":{"bytecode":{"linkReferences":{},"object":"611ea661003a600b82828239805160001a60731461002d57634e487b7160e01b600052600060045260246000fd5b30600052607381538281f3fe73000000000000000000000000000000000000000030146080604052600436106100355760003560e01c80637c7858661461003a575b600080fd5b61004d610048366004611d12565b610063565b60405161005a9190611d8a565b60405180910390f35b6060610070848484610079565b95945050505050565b6000606060006040518061010001604052808567ffffffffffffffff8111156100a4576100a4611dd9565b6040519080825280601f01601f1916602001820160405280156100ce576020820181803683370190505b5081526020016000815260200187878080601f01602080910402602001604051908101604052809392919081815260200183838082843760009201829052509385525050506020820181905260408083018290526060830191909152805180820190915260809091019080610145600f6001611e05565b67ffffffffffffffff81111561015d5761015d611dd9565b604051908082528060200260200182016040528015610186578160200160208202803683370190505b5081526040805161012080825261242082019092526020928301929091908201612400803683370190505081525081526020016040518060400160405280600f60016101d29190611e05565b67ffffffffffffffff8111156101ea576101ea611dd9565b604051908082528060200260200182016040528015610213578160200160208202803683370190505b50815260408051601e8082526103e0820190925260209283019290919082016103c0803683375050509052905290506000808061024f8461035e565b9050600081600e81111561026557610265611e18565b1461027a579251929450919250610356915050565b8260000361034b5761028d8460016104c5565b93509050600081600e8111156102a5576102a5611e18565b146102ba579251929450919250610356915050565b6102c58460026104c5565b92509050600081600e8111156102dd576102dd611e18565b146102f2579251929450919250610356915050565b8115610326578160011461031d578160021461030f57600361032f565b61031884610598565b61032f565b61031884610609565b61032f84610624565b9050600081600e81111561034557610345611e18565b1461027a575b925192945091925050505b935093915050565b604080516101208082526124208201909252600091829182916020820161240080368337019050509050600091505b60908210156103c05760088183815181106103aa576103aa611e2e565b602090810291909101015260019091019061038d565b6101008210156103f45760098183815181106103de576103de611e2e565b60209081029190910101526001909101906103c0565b61011882101561042857600781838151811061041257610412611e2e565b60209081029190910101526001909101906103f4565b61012082101561045c57600881838151811061044657610446611e2e565b6020908102919091010152600190910190610428565b61046f8460c00151826101206000610834565b50600091505b601e8210156104a857600581838151811061049257610492611e2e565b6020908102919091010152600190910190610475565b6104ba8460e0015182601e6000610834565b506000949350505050565b608082015160009081905b838560a001511015610558578460400151518560600151036104fa57600160009250925050610591565b60a085015160408601516060870180519061051482611e44565b90528151811061052657610526611e2e565b602001015160f81c60f81b60f81c60ff16901b8117905060088560a0018181516105509190611e05565b9052506104d0565b80841c608086015260a085018051859190610574908390611e5d565b9052506000610586600180871b611e5d565b600094509091169150505b9250929050565b60006105b7604051806040016040528060608152602001606081525090565b604080518082019091526060808252602082015260006105d685610ae9565b90945092509050600081600e8111156105f1576105f1611e18565b146105fe57949350505050565b6100708584846111a3565b600061061e828360c001518460e001516111a3565b92915050565b60006080820181905260a08201819052604082015151606083015182919061064d906004611e05565b111561065c5750600192915050565b60408301516060840180519061067182611e44565b90528151811061068357610683611e2e565b0160200151604084015160608501805160f89390931c9350600892906106a882611e44565b9052815181106106ba576106ba611e2e565b602001015160f81c60f81b60f81c60ff16901b81179050801960ff1683604001518460600180518091906106ed90611e44565b9052815181106106ff576106ff611e2e565b016020015160f81c14158061074a5750604083015160608401805160ff841960081c16929161072d82611e44565b90528151811061073f5761073f611e2e565b016020015160f81c14155b156107585750600492915050565b82604001515181846060015161076e9190611e05565b111561077d5750600192915050565b8251516020840151610790908390611e05565b111561079f5750600292915050565b801561082b576107b0600182611e5d565b905082604001518360600180518091906107c990611e44565b9052815181106107db576107db611e2e565b602001015160f81c60f81b83600001518460200180518091906107fd90611e44565b90528151811061080f5761080f611e2e565b60200101906001600160f81b031916908160001a90535061079f565b50600092915050565b600080600080610842611cf3565b600092505b600f83116108845760008960000151848151811061086757610867611e2e565b60209081029190910101528261087c81611e44565b935050610847565b600093505b868410156108e95788518861089e8689611e05565b815181106108ae576108ae611e2e565b6020026020010151815181106108c6576108c6611e2e565b6020026020010180518091906108db90611e44565b905250600190930192610889565b86896000015160008151811061090157610901611e2e565b60200260200101510361091b576000945050505050610ae1565b60019150600192505b600f831161099e578851805160019390931b928490811061094757610947611e2e565b602002602001015182101561096357600e945050505050610ae1565b885180518490811061097757610977611e2e565b60200260200101518261098a9190611e5d565b91508261099681611e44565b935050610924565b60006020820152600192505b600f831015610a1c5788518051849081106109c7576109c7611e2e565b60200260200101518184601081106109e1576109e1611e2e565b60200201516109f09190611e05565b816109fc856001611e05565b60108110610a0c57610a0c611e2e565b60200201526001909201916109aa565b600093505b86841015610ac85787610a348588611e05565b81518110610a4457610a44611e2e565b6020026020010151600014610abd5760208901518490828a610a66848b611e05565b81518110610a7657610a76611e2e565b602002602001015160108110610a8e57610a8e611e2e565b60200201805190610a9e82611e44565b905281518110610ab057610ab0611e2e565b6020026020010181815250505b600190930192610a21565b60008211610ad7576000610ada565b600e5b9450505050505b949350505050565b6000610b08604051806040016040528060608152602001606081525090565b6040805180820190915260608082526020820152600080808080610b2f601e61011e611e05565b67ffffffffffffffff811115610b4757610b47611dd9565b604051908082528060200260200182016040528015610b70578160200160208202803683370190505b50905060006040518060400160405280600f6001610b8e9190611e05565b67ffffffffffffffff811115610ba657610ba6611dd9565b604051908082528060200260200182016040528015610bcf578160200160208202803683370190505b5081526040805161011e8082526123e0820190925260209283019290919082016123c08036833701905050815250905060006040518060400160405280600f6001610c1a9190611e05565b67ffffffffffffffff811115610c3257610c32611dd9565b604051908082528060200260200182016040528015610c5b578160200160208202803683370190505b50815260408051601e8082526103e0820190925260209283019290919082016103c080368337505050905290506000610c958c60056104c5565b98509450600085600e811115610cad57610cad611e18565b14610cc55750929850965090945061119c9350505050565b610cd161010189611e05565b9750610cde8c60056104c5565b97509450600085600e811115610cf657610cf6611e18565b14610d0e5750929850965090945061119c9350505050565b610d19600188611e05565b965061011e881180610d2b5750601e87115b15610d45575060059950909750955061119c945050505050565b610d4e8c6119cf565b9095509350600085600e811115610d6757610d67611e18565b14610d7f5750929850965090945061119c9350505050565b610d8d838560136000610834565b9450600085600e811115610da357610da3611e18565b14610dbd575060069950909750955061119c945050505050565b600095505b610dcc8789611e05565b861015610fc757600080610de08e86611be4565b9097509150600087600e811115610df957610df9611e18565b14610e135750949a50919850965061119c95505050505050565b6010821015610e4b57818689610e2881611e44565b9a5081518110610e3a57610e3a611e2e565b602002602001018181525050610fc0565b6000905081601003610eed5787600003610e77575060079b5092995090975061119c9650505050505050565b85610e8360018a611e5d565b81518110610e9357610e93611e2e565b60200260200101519050610ea88e60026104c5565b9097509250600087600e811115610ec157610ec1611e18565b14610edb5750949a50919850965061119c95505050505050565b610ee6836003611e05565b9150610f4c565b81601103610f0057610ea88e60036104c5565b610f0b8e60076104c5565b9097509250600087600e811115610f2457610f24611e18565b14610f3e5750949a50919850965061119c95505050505050565b610f4983600b611e05565b91505b610f56898b611e05565b610f60838a611e05565b1115610f7e575060089b5092995090975061119c9650505050505050565b8115610fc057610f8f600183611e5d565b9150808689610f9d81611e44565b9a5081518110610faf57610faf611e2e565b602002602001018181525050610f7e565b5050610dc2565b8361010081518110610fdb57610fdb611e2e565b6020026020010151600003610fff5750600b9950909750955061119c945050505050565b61100c83858a6000610834565b9450600085600e81111561102257611022611e18565b141580156110ac5750600185600e81111561103f5761103f611e18565b148061105c5750600285600e81111561105a5761105a611e18565b145b806110ac575082518051600190811061107757611077611e2e565b6020026020010151836000015160008151811061109657611096611e2e565b60200260200101516110a89190611e05565b8814155b156110c6575060099950909750955061119c945050505050565b6110d28285898b610834565b9450600085600e8111156110e8576110e8611e18565b141580156111725750600185600e81111561110557611105611e18565b14806111225750600285600e81111561112057611120611e18565b145b80611172575081518051600190811061113d5761113d611e2e565b6020026020010151826000015160008151811061115c5761115c611e2e565b602002602001015161116e9190611e05565b8714155b1561118c5750600a9950909750955061119c945050505050565b5060009950909750955050505050505b9193909250565b6000806000806000604051806103a00160405280600361ffff168152602001600461ffff168152602001600561ffff168152602001600661ffff168152602001600761ffff168152602001600861ffff168152602001600961ffff168152602001600a61ffff168152602001600b61ffff168152602001600d61ffff168152602001600f61ffff168152602001601161ffff168152602001601361ffff168152602001601761ffff168152602001601b61ffff168152602001601f61ffff168152602001602361ffff168152602001602b61ffff168152602001603361ffff168152602001603b61ffff168152602001604361ffff168152602001605361ffff168152602001606361ffff168152602001607361ffff168152602001608361ffff16815260200160a361ffff16815260200160c361ffff16815260200160e361ffff16815260200161010261ffff1681525090506000604051806103a00160405280600060ff168152602001600060ff168152602001600060ff168152602001600060ff168152602001600060ff168152602001600060ff168152602001600060ff168152602001600060ff168152602001600160ff168152602001600160ff168152602001600160ff168152602001600160ff168152602001600260ff168152602001600260ff168152602001600260ff168152602001600260ff168152602001600360ff168152602001600360ff168152602001600360ff168152602001600360ff168152602001600460ff168152602001600460ff168152602001600460ff168152602001600460ff168152602001600560ff168152602001600560ff168152602001600560ff168152602001600560ff168152602001600060ff1681525090506000604051806103c00160405280600161ffff168152602001600261ffff168152602001600361ffff168152602001600461ffff168152602001600561ffff168152602001600761ffff168152602001600961ffff168152602001600d61ffff168152602001601161ffff168152602001601961ffff168152602001602161ffff168152602001603161ffff168152602001604161ffff168152602001606161ffff168152602001608161ffff16815260200160c161ffff16815260200161010161ffff16815260200161018161ffff16815260200161020161ffff16815260200161030161ffff16815260200161040161ffff16815260200161060161ffff16815260200161080161ffff168152602001610c0161ffff16815260200161100161ffff16815260200161180161ffff16815260200161200161ffff16815260200161300161ffff16815260200161400161ffff16815260200161600161ffff1681525090506000604051806103c00160405280600060ff168152602001600060ff168152602001600060ff168152602001600060ff168152602001600160ff168152602001600160ff168152602001600260ff168152602001600260ff168152602001600360ff168152602001600360ff168152602001600460ff168152602001600460ff168152602001600560ff168152602001600560ff168152602001600660ff168152602001600660ff168152602001600760ff168152602001600760ff168152602001600860ff168152602001600860ff168152602001600960ff168152602001600960ff168152602001600a60ff168152602001600a60ff168152602001600b60ff168152602001600b60ff168152602001600c60ff168152602001600c60ff168152602001600d60ff168152602001600d60ff16815250905060005b87610100146119bb576116dd8c8c611be4565b98509050600081600e8111156116f5576116f5611e18565b146117095797506119c89650505050505050565b61010088101561177e578b515160208d015103611731576002985050505050505050506119c8565b8760f81b8c600001518d602001518151811061174f5761174f611e2e565b60200101906001600160f81b031916908160001a90535060208c0180519061177682611e44565b9052506116ca565b6101008811156119a95760006117966101018a611e5d565b9850601d89106117b257600c99505050505050505050506119c8565b6117d58d868b601d81106117c8576117c8611e2e565b602002015160ff166104c5565b9092509050600082600e8111156117ee576117ee611e18565b14611803575097506119c89650505050505050565b80868a601d811061181657611816611e2e565b602002015161ffff166118299190611e05565b97506118358d8c611be4565b99509150600082600e81111561184d5761184d611e18565b14611862575097506119c89650505050505050565b6118788d848b601e81106117c8576117c8611e2e565b9092509050600082600e81111561189157611891611e18565b146118a6575097506119c89650505050505050565b80848a601e81106118b9576118b9611e2e565b602002015161ffff166118cc9190611e05565b96508c602001518711156118ec57600d99505050505050505050506119c8565b8c515160208e01516118ff908a90611e05565b111561191757600299505050505050505050506119c8565b87156119a357611928600189611e5d565b97508c60000151878e6020015161193f9190611e5d565b8151811061194f5761194f611e2e565b602001015160f81c60f81b8d600001518e602001518151811061197457611974611e2e565b60200101906001600160f81b031916908160001a90535060208d0180519061199b82611e44565b905250611917565b506116ca565b868c6020018181516117769190611e05565b6000985050505050505050505b9392505050565b600060608180806119e3601e61011e611e05565b67ffffffffffffffff8111156119fb576119fb611dd9565b604051908082528060200260200182016040528015611a24578160200160208202803683370190505b506040805161026081018252601081526011602082015260129181019190915260006060820181905260086080830152600760a0830152600960c0830152600660e0830152600a6101008301526005610120830152600b61014083015260046101608301819052600c61018084015260036101a0840152600d6101c084015260026101e0840152600e6102008401526001610220840152600f61024084015292935091611ad29089906104c5565b95509150600082600e811115611aea57611aea611e18565b14611afb5750969095509350505050565b611b06600486611e05565b9450600093505b84841015611b8857611b208860036104c5565b84838760138110611b3357611b33611e2e565b602002015160ff1681518110611b4b57611b4b611e2e565b60209081029190910101529150600082600e811115611b6c57611b6c611e18565b14611b7d5750969095509350505050565b600190930192611b0d565b6013841015611bd457600083828660138110611ba657611ba6611e2e565b602002015160ff1681518110611bbe57611bbe611e2e565b6020908102919091010152600190930192611b88565b5060009791965090945050505050565b600080600181808080805b600f8611611ce0576000611c048b60016104c5565b9092509050600082600e811115611c1d57611c1d611e18565b14611c345750965060009550610591945050505050565b895180519682179688908110611c4c57611c4c611e2e565b602002602001015193508385611c629190611e05565b861015611cad5760208a0151600090611c7b8789611e5d565b611c859086611e05565b81518110611c9557611c95611e2e565b60200260200101519850985050505050505050610591565b611cb78484611e05565b9250611cc38486611e05565b600196871b961b9450869050611cd881611e44565b965050611bef565b50600c9960009950975050505050505050565b6040518061020001604052806010906020820280368337509192915050565b600080600060408486031215611d2757600080fd5b833567ffffffffffffffff80821115611d3f57600080fd5b818601915086601f830112611d5357600080fd5b813581811115611d6257600080fd5b876020828501011115611d7457600080fd5b6020928301989097509590910135949350505050565b60006020808352835180602085015260005b81811015611db857858101830151858201604001528201611d9c565b506000604082860101526040601f19601f8301168501019250505092915050565b634e487b7160e01b600052604160045260246000fd5b634e487b7160e01b600052601160045260246000fd5b8082018082111561061e5761061e611def565b634e487b7160e01b600052602160045260246000fd5b634e487b7160e01b600052603260045260246000fd5b600060018201611e5657611e56611def565b5060010190565b8181038181111561061e5761061e611def56fea26469706673582212202dff72ee7f8ca0a1a785b050f408c44ace3f0bacf0867deab28d0b2212daa94c64736f6c63430008170033","opcodes":"PUSH2 0x1EA6 PUSH2 0x3A PUSH1 0xB DUP3 DUP3 DUP3 CODECOPY DUP1 MLOAD PUSH1 0x0 BYTE PUSH1 0x73 EQ PUSH2 0x2D JUMPI PUSH4 0x4E487B71 PUSH1 0xE0 SHL PUSH1 0x0 MSTORE PUSH1 0x0 PUSH1 0x4 MSTORE PUSH1 0x24 PUSH1 0x0 REVERT JUMPDEST ADDRESS PUSH1 0x0 MSTORE PUSH1 0x73 DUP2 MSTORE8 DUP3 DUP2 RETURN INVALID PUSH20 0x0 ADDRESS EQ PUSH1 0x80 PUSH1 0x40 MSTORE PUSH1 0x4 CALLDATASIZE LT PUSH2 0x35 JUMPI PUSH1 0x0 CALLDATALOAD PUSH1 0xE0 SHR DUP1 PUSH4 0x7C785866 EQ PUSH2 0x3A JUMPI JUMPDEST PUSH1 0x0 DUP1 REVERT JUMPDEST PUSH2 0x4D PUSH2 0x48 CALLDATASIZE PUSH1 0x4 PUSH2 0x1D12 JUMP JUMPDEST PUSH2 0x63 JUMP JUMPDEST PUSH1 0x40 MLOAD PUSH2 0x5A SWAP2 SWAP1 PUSH2 0x1D8A JUMP JUMPDEST PUSH1 0x40 MLOAD DUP1 SWAP2 SUB SWAP1 RETURN JUMPDEST PUSH1 0x60 PUSH2 0x70 DUP5 DUP5 DUP5 PUSH2 0x79 JUMP JUMPDEST SWAP6 SWAP5 POP POP POP POP POP JUMP JUMPDEST PUSH1 0x0 PUSH1 0x60 PUSH1 0x0 PUSH1 0x40 MLOAD DUP1 PUSH2 0x100 ADD PUSH1 0x40 MSTORE DUP1 DUP6 PUSH8 0xFFFFFFFFFFFFFFFF DUP2 GT ISZERO PUSH2 0xA4 JUMPI PUSH2 0xA4 PUSH2 0x1DD9 JUMP JUMPDEST PUSH1 0x40 MLOAD SWAP1 DUP1 DUP3 MSTORE DUP1 PUSH1 0x1F ADD PUSH1 0x1F NOT AND PUSH1 0x20 ADD DUP3 ADD PUSH1 0x40 MSTORE DUP1 ISZERO PUSH2 0xCE JUMPI PUSH1 0x20 DUP3 ADD DUP2 DUP1 CALLDATASIZE DUP4 CALLDATACOPY ADD SWAP1 POP JUMPDEST POP DUP2 MSTORE PUSH1 0x20 ADD PUSH1 0x0 DUP2 MSTORE PUSH1 0x20 ADD DUP8 DUP8 DUP1 DUP1 PUSH1 0x1F ADD PUSH1 0x20 DUP1 SWAP2 DIV MUL PUSH1 0x20 ADD PUSH1 0x40 MLOAD SWAP1 DUP2 ADD PUSH1 0x40 MSTORE DUP1 SWAP4 SWAP3 SWAP2 SWAP1 DUP2 DUP2 MSTORE PUSH1 0x20 ADD DUP4 DUP4 DUP1 DUP3 DUP5 CALLDATACOPY PUSH1 0x0 SWAP3 ADD DUP3 SWAP1 MSTORE POP SWAP4 DUP6 MSTORE POP POP POP PUSH1 0x20 DUP3 ADD DUP2 SWAP1 MSTORE PUSH1 0x40 DUP1 DUP4 ADD DUP3 SWAP1 MSTORE PUSH1 0x60 DUP4 ADD SWAP2 SWAP1 SWAP2 MSTORE DUP1 MLOAD DUP1 DUP3 ADD SWAP1 SWAP2 MSTORE PUSH1 0x80 SWAP1 SWAP2 ADD SWAP1 DUP1 PUSH2 0x145 PUSH1 0xF PUSH1 0x1 PUSH2 0x1E05 JUMP JUMPDEST PUSH8 0xFFFFFFFFFFFFFFFF DUP2 GT ISZERO PUSH2 0x15D JUMPI PUSH2 0x15D PUSH2 0x1DD9 JUMP JUMPDEST PUSH1 0x40 MLOAD SWAP1 DUP1 DUP3 MSTORE DUP1 PUSH1 0x20 MUL PUSH1 0x20 ADD DUP3 ADD PUSH1 0x40 MSTORE DUP1 ISZERO PUSH2 0x186 JUMPI DUP2 PUSH1 0x20 ADD PUSH1 0x20 DUP3 MUL DUP1 CALLDATASIZE DUP4 CALLDATACOPY ADD SWAP1 POP JUMPDEST POP DUP2 MSTORE PUSH1 0x40 DUP1 MLOAD PUSH2 0x120 DUP1 DUP3 MSTORE PUSH2 0x2420 DUP3 ADD SWAP1 SWAP3 MSTORE PUSH1 0x20 SWAP3 DUP4 ADD SWAP3 SWAP1 SWAP2 SWAP1 DUP3 ADD PUSH2 0x2400 DUP1 CALLDATASIZE DUP4 CALLDATACOPY ADD SWAP1 POP POP DUP2 MSTORE POP DUP2 MSTORE PUSH1 0x20 ADD PUSH1 0x40 MLOAD DUP1 PUSH1 0x40 ADD PUSH1 0x40 MSTORE DUP1 PUSH1 0xF PUSH1 0x1 PUSH2 0x1D2 SWAP2 SWAP1 PUSH2 0x1E05 JUMP JUMPDEST PUSH8 0xFFFFFFFFFFFFFFFF DUP2 GT ISZERO PUSH2 0x1EA JUMPI PUSH2 0x1EA PUSH2 0x1DD9 JUMP JUMPDEST PUSH1 0x40 MLOAD SWAP1 DUP1 DUP3 MSTORE DUP1 PUSH1 0x20 MUL PUSH1 0x20 ADD DUP3 ADD PUSH1 0x40 MSTORE DUP1 ISZERO PUSH2 0x213 JUMPI DUP2 PUSH1 0x20 ADD PUSH1 0x20 DUP3 MUL DUP1 CALLDATASIZE DUP4 CALLDATACOPY ADD SWAP1 POP JUMPDEST POP DUP2 MSTORE PUSH1 0x40 DUP1 MLOAD PUSH1 0x1E DUP1 DUP3 MSTORE PUSH2 0x3E0 DUP3 ADD SWAP1 SWAP3 MSTORE PUSH1 0x20 SWAP3 DUP4 ADD SWAP3 SWAP1 SWAP2 SWAP1 DUP3 ADD PUSH2 0x3C0 DUP1 CALLDATASIZE DUP4 CALLDATACOPY POP POP POP SWAP1 MSTORE SWAP1 MSTORE SWAP1 POP PUSH1 0x0 DUP1 DUP1 PUSH2 0x24F DUP5 PUSH2 0x35E JUMP JUMPDEST SWAP1 POP PUSH1 0x0 DUP2 PUSH1 0xE DUP2 GT ISZERO PUSH2 0x265 JUMPI PUSH2 0x265 PUSH2 0x1E18 JUMP JUMPDEST EQ PUSH2 0x27A JUMPI SWAP3 MLOAD SWAP3 SWAP5 POP SWAP2 SWAP3 POP PUSH2 0x356 SWAP2 POP POP JUMP JUMPDEST DUP3 PUSH1 0x0 SUB PUSH2 0x34B JUMPI PUSH2 0x28D DUP5 PUSH1 0x1 PUSH2 0x4C5 JUMP JUMPDEST SWAP4 POP SWAP1 POP PUSH1 0x0 DUP2 PUSH1 0xE DUP2 GT ISZERO PUSH2 0x2A5 JUMPI PUSH2 0x2A5 PUSH2 0x1E18 JUMP JUMPDEST EQ PUSH2 0x2BA JUMPI SWAP3 MLOAD SWAP3 SWAP5 POP SWAP2 SWAP3 POP PUSH2 0x356 SWAP2 POP POP JUMP JUMPDEST PUSH2 0x2C5 DUP5 PUSH1 0x2 PUSH2 0x4C5 JUMP JUMPDEST SWAP3 POP SWAP1 POP PUSH1 0x0 DUP2 PUSH1 0xE DUP2 GT ISZERO PUSH2 0x2DD JUMPI PUSH2 0x2DD PUSH2 0x1E18 JUMP JUMPDEST EQ PUSH2 0x2F2 JUMPI SWAP3 MLOAD SWAP3 SWAP5 POP SWAP2 SWAP3 POP PUSH2 0x356 SWAP2 POP POP JUMP JUMPDEST DUP2 ISZERO PUSH2 0x326 JUMPI DUP2 PUSH1 0x1 EQ PUSH2 0x31D JUMPI DUP2 PUSH1 0x2 EQ PUSH2 0x30F JUMPI PUSH1 0x3 PUSH2 0x32F JUMP JUMPDEST PUSH2 0x318 DUP5 PUSH2 0x598 JUMP JUMPDEST PUSH2 0x32F JUMP JUMPDEST PUSH2 0x318 DUP5 PUSH2 0x609 JUMP JUMPDEST PUSH2 0x32F DUP5 PUSH2 0x624 JUMP JUMPDEST SWAP1 POP PUSH1 0x0 DUP2 PUSH1 0xE DUP2 GT ISZERO PUSH2 0x345 JUMPI PUSH2 0x345 PUSH2 0x1E18 JUMP JUMPDEST EQ PUSH2 0x27A JUMPI JUMPDEST SWAP3 MLOAD SWAP3 SWAP5 POP SWAP2 SWAP3 POP POP POP JUMPDEST SWAP4 POP SWAP4 SWAP2 POP POP JUMP JUMPDEST PUSH1 0x40 DUP1 MLOAD PUSH2 0x120 DUP1 DUP3 MSTORE PUSH2 0x2420 DUP3 ADD SWAP1 SWAP3 MSTORE PUSH1 0x0 SWAP2 DUP3 SWAP2 DUP3 SWAP2 PUSH1 0x20 DUP3 ADD PUSH2 0x2400 DUP1 CALLDATASIZE DUP4 CALLDATACOPY ADD SWAP1 POP POP SWAP1 POP PUSH1 0x0 SWAP2 POP JUMPDEST PUSH1 0x90 DUP3 LT ISZERO PUSH2 0x3C0 JUMPI PUSH1 0x8 DUP2 DUP4 DUP2 MLOAD DUP2 LT PUSH2 0x3AA JUMPI PUSH2 0x3AA PUSH2 0x1E2E JUMP JUMPDEST PUSH1 0x20 SWAP1 DUP2 MUL SWAP2 SWAP1 SWAP2 ADD ADD MSTORE PUSH1 0x1 SWAP1 SWAP2 ADD SWAP1 PUSH2 0x38D JUMP JUMPDEST PUSH2 0x100 DUP3 LT ISZERO PUSH2 0x3F4 JUMPI PUSH1 0x9 DUP2 DUP4 DUP2 MLOAD DUP2 LT PUSH2 0x3DE JUMPI PUSH2 0x3DE PUSH2 0x1E2E JUMP JUMPDEST PUSH1 0x20 SWAP1 DUP2 MUL SWAP2 SWAP1 SWAP2 ADD ADD MSTORE PUSH1 0x1 SWAP1 SWAP2 ADD SWAP1 PUSH2 0x3C0 JUMP JUMPDEST PUSH2 0x118 DUP3 LT ISZERO PUSH2 0x428 JUMPI PUSH1 0x7 DUP2 DUP4 DUP2 MLOAD DUP2 LT PUSH2 0x412 JUMPI PUSH2 0x412 PUSH2 0x1E2E JUMP JUMPDEST PUSH1 0x20 SWAP1 DUP2 MUL SWAP2 SWAP1 SWAP2 ADD ADD MSTORE PUSH1 0x1 SWAP1 SWAP2 ADD SWAP1 PUSH2 0x3F4 JUMP JUMPDEST PUSH2 0x120 DUP3 LT ISZERO PUSH2 0x45C JUMPI PUSH1 0x8 DUP2 DUP4 DUP2 MLOAD DUP2 LT PUSH2 0x446 JUMPI PUSH2 0x446 PUSH2 0x1E2E JUMP JUMPDEST PUSH1 0x20 SWAP1 DUP2 MUL SWAP2 SWAP1 SWAP2 ADD ADD MSTORE PUSH1 0x1 SWAP1 SWAP2 ADD SWAP1 PUSH2 0x428 JUMP JUMPDEST PUSH2 0x46F DUP5 PUSH1 0xC0 ADD MLOAD DUP3 PUSH2 0x120 PUSH1 0x0 PUSH2 0x834 JUMP JUMPDEST POP PUSH1 0x0 SWAP2 POP JUMPDEST PUSH1 0x1E DUP3 LT ISZERO PUSH2 0x4A8 JUMPI PUSH1 0x5 DUP2 DUP4 DUP2 MLOAD DUP2 LT PUSH2 0x492 JUMPI PUSH2 0x492 PUSH2 0x1E2E JUMP JUMPDEST PUSH1 0x20 SWAP1 DUP2 MUL SWAP2 SWAP1 SWAP2 ADD ADD MSTORE PUSH1 0x1 SWAP1 SWAP2 ADD SWAP1 PUSH2 0x475 JUMP JUMPDEST PUSH2 0x4BA DUP5 PUSH1 0xE0 ADD MLOAD DUP3 PUSH1 0x1E PUSH1 0x0 PUSH2 0x834 JUMP JUMPDEST POP PUSH1 0x0 SWAP5 SWAP4 POP POP POP POP JUMP JUMPDEST PUSH1 0x80 DUP3 ADD MLOAD PUSH1 0x0 SWAP1 DUP2 SWAP1 JUMPDEST DUP4 DUP6 PUSH1 0xA0 ADD MLOAD LT ISZERO PUSH2 0x558 JUMPI DUP5 PUSH1 0x40 ADD MLOAD MLOAD DUP6 PUSH1 0x60 ADD MLOAD SUB PUSH2 0x4FA JUMPI PUSH1 0x1 PUSH1 0x0 SWAP3 POP SWAP3 POP POP PUSH2 0x591 JUMP JUMPDEST PUSH1 0xA0 DUP6 ADD MLOAD PUSH1 0x40 DUP7 ADD MLOAD PUSH1 0x60 DUP8 ADD DUP1 MLOAD SWAP1 PUSH2 0x514 DUP3 PUSH2 0x1E44 JUMP JUMPDEST SWAP1 MSTORE DUP2 MLOAD DUP2 LT PUSH2 0x526 JUMPI PUSH2 0x526 PUSH2 0x1E2E JUMP JUMPDEST PUSH1 0x20 ADD ADD MLOAD PUSH1 0xF8 SHR PUSH1 0xF8 SHL PUSH1 0xF8 SHR PUSH1 0xFF AND SWAP1 SHL DUP2 OR SWAP1 POP PUSH1 0x8 DUP6 PUSH1 0xA0 ADD DUP2 DUP2 MLOAD PUSH2 0x550 SWAP2 SWAP1 PUSH2 0x1E05 JUMP JUMPDEST SWAP1 MSTORE POP PUSH2 0x4D0 JUMP JUMPDEST DUP1 DUP5 SHR PUSH1 0x80 DUP7 ADD MSTORE PUSH1 0xA0 DUP6 ADD DUP1 MLOAD DUP6 SWAP2 SWAP1 PUSH2 0x574 SWAP1 DUP4 SWAP1 PUSH2 0x1E5D JUMP JUMPDEST SWAP1 MSTORE POP PUSH1 0x0 PUSH2 0x586 PUSH1 0x1 DUP1 DUP8 SHL PUSH2 0x1E5D JUMP JUMPDEST PUSH1 0x0 SWAP5 POP SWAP1 SWAP2 AND SWAP2 POP POP JUMPDEST SWAP3 POP SWAP3 SWAP1 POP JUMP JUMPDEST PUSH1 0x0 PUSH2 0x5B7 PUSH1 0x40 MLOAD DUP1 PUSH1 0x40 ADD PUSH1 0x40 MSTORE DUP1 PUSH1 0x60 DUP2 MSTORE PUSH1 0x20 ADD PUSH1 0x60 DUP2 MSTORE POP SWAP1 JUMP JUMPDEST PUSH1 0x40 DUP1 MLOAD DUP1 DUP3 ADD SWAP1 SWAP2 MSTORE PUSH1 0x60 DUP1 DUP3 MSTORE PUSH1 0x20 DUP3 ADD MSTORE PUSH1 0x0 PUSH2 0x5D6 DUP6 PUSH2 0xAE9 JUMP JUMPDEST SWAP1 SWAP5 POP SWAP3 POP SWAP1 POP PUSH1 0x0 DUP2 PUSH1 0xE DUP2 GT ISZERO PUSH2 0x5F1 JUMPI PUSH2 0x5F1 PUSH2 0x1E18 JUMP JUMPDEST EQ PUSH2 0x5FE JUMPI SWAP5 SWAP4 POP POP POP POP JUMP JUMPDEST PUSH2 0x70 DUP6 DUP5 DUP5 PUSH2 0x11A3 JUMP JUMPDEST PUSH1 0x0 PUSH2 0x61E DUP3 DUP4 PUSH1 0xC0 ADD MLOAD DUP5 PUSH1 0xE0 ADD MLOAD PUSH2 0x11A3 JUMP JUMPDEST SWAP3 SWAP2 POP POP JUMP JUMPDEST PUSH1 0x0 PUSH1 0x80 DUP3 ADD DUP2 SWAP1 MSTORE PUSH1 0xA0 DUP3 ADD DUP2 SWAP1 MSTORE PUSH1 0x40 DUP3 ADD MLOAD MLOAD PUSH1 0x60 DUP4 ADD MLOAD DUP3 SWAP2 SWAP1 PUSH2 0x64D SWAP1 PUSH1 0x4 PUSH2 0x1E05 JUMP JUMPDEST GT ISZERO PUSH2 0x65C JUMPI POP PUSH1 0x1 SWAP3 SWAP2 POP POP JUMP JUMPDEST PUSH1 0x40 DUP4 ADD MLOAD PUSH1 0x60 DUP5 ADD DUP1 MLOAD SWAP1 PUSH2 0x671 DUP3 PUSH2 0x1E44 JUMP JUMPDEST SWAP1 MSTORE DUP2 MLOAD DUP2 LT PUSH2 0x683 JUMPI PUSH2 0x683 PUSH2 0x1E2E JUMP JUMPDEST ADD PUSH1 0x20 ADD MLOAD PUSH1 0x40 DUP5 ADD MLOAD PUSH1 0x60 DUP6 ADD DUP1 MLOAD PUSH1 0xF8 SWAP4 SWAP1 SWAP4 SHR SWAP4 POP PUSH1 0x8 SWAP3 SWAP1 PUSH2 0x6A8 DUP3 PUSH2 0x1E44 JUMP JUMPDEST SWAP1 MSTORE DUP2 MLOAD DUP2 LT PUSH2 0x6BA JUMPI PUSH2 0x6BA PUSH2 0x1E2E JUMP JUMPDEST PUSH1 0x20 ADD ADD MLOAD PUSH1 0xF8 SHR PUSH1 0xF8 SHL PUSH1 0xF8 SHR PUSH1 0xFF AND SWAP1 SHL DUP2 OR SWAP1 POP DUP1 NOT PUSH1 0xFF AND DUP4 PUSH1 0x40 ADD MLOAD DUP5 PUSH1 0x60 ADD DUP1 MLOAD DUP1 SWAP2 SWAP1 PUSH2 0x6ED SWAP1 PUSH2 0x1E44 JUMP JUMPDEST SWAP1 MSTORE DUP2 MLOAD DUP2 LT PUSH2 0x6FF JUMPI PUSH2 0x6FF PUSH2 0x1E2E JUMP JUMPDEST ADD PUSH1 0x20 ADD MLOAD PUSH1 0xF8 SHR EQ ISZERO DUP1 PUSH2 0x74A JUMPI POP PUSH1 0x40 DUP4 ADD MLOAD PUSH1 0x60 DUP5 ADD DUP1 MLOAD PUSH1 0xFF DUP5 NOT PUSH1 0x8 SHR AND SWAP3 SWAP2 PUSH2 0x72D DUP3 PUSH2 0x1E44 JUMP JUMPDEST SWAP1 MSTORE DUP2 MLOAD DUP2 LT PUSH2 0x73F JUMPI PUSH2 0x73F PUSH2 0x1E2E JUMP JUMPDEST ADD PUSH1 0x20 ADD MLOAD PUSH1 0xF8 SHR EQ ISZERO JUMPDEST ISZERO PUSH2 0x758 JUMPI POP PUSH1 0x4 SWAP3 SWAP2 POP POP JUMP JUMPDEST DUP3 PUSH1 0x40 ADD MLOAD MLOAD DUP2 DUP5 PUSH1 0x60 ADD MLOAD PUSH2 0x76E SWAP2 SWAP1 PUSH2 0x1E05 JUMP JUMPDEST GT ISZERO PUSH2 0x77D JUMPI POP PUSH1 0x1 SWAP3 SWAP2 POP POP JUMP JUMPDEST DUP3 MLOAD MLOAD PUSH1 0x20 DUP5 ADD MLOAD PUSH2 0x790 SWAP1 DUP4 SWAP1 PUSH2 0x1E05 JUMP JUMPDEST GT ISZERO PUSH2 0x79F JUMPI POP PUSH1 0x2 SWAP3 SWAP2 POP POP JUMP JUMPDEST DUP1 ISZERO PUSH2 0x82B JUMPI PUSH2 0x7B0 PUSH1 0x1 DUP3 PUSH2 0x1E5D JUMP JUMPDEST SWAP1 POP DUP3 PUSH1 0x40 ADD MLOAD DUP4 PUSH1 0x60 ADD DUP1 MLOAD DUP1 SWAP2 SWAP1 PUSH2 0x7C9 SWAP1 PUSH2 0x1E44 JUMP JUMPDEST SWAP1 MSTORE DUP2 MLOAD DUP2 LT PUSH2 0x7DB JUMPI PUSH2 0x7DB PUSH2 0x1E2E JUMP JUMPDEST PUSH1 0x20 ADD ADD MLOAD PUSH1 0xF8 SHR PUSH1 0xF8 SHL DUP4 PUSH1 0x0 ADD MLOAD DUP5 PUSH1 0x20 ADD DUP1 MLOAD DUP1 SWAP2 SWAP1 PUSH2 0x7FD SWAP1 PUSH2 0x1E44 JUMP JUMPDEST SWAP1 MSTORE DUP2 MLOAD DUP2 LT PUSH2 0x80F JUMPI PUSH2 0x80F PUSH2 0x1E2E JUMP JUMPDEST PUSH1 0x20 ADD ADD SWAP1 PUSH1 0x1 PUSH1 0x1 PUSH1 0xF8 SHL SUB NOT AND SWAP1 DUP2 PUSH1 0x0 BYTE SWAP1 MSTORE8 POP PUSH2 0x79F JUMP JUMPDEST POP PUSH1 0x0 SWAP3 SWAP2 POP POP JUMP JUMPDEST PUSH1 0x0 DUP1 PUSH1 0x0 DUP1 PUSH2 0x842 PUSH2 0x1CF3 JUMP JUMPDEST PUSH1 0x0 SWAP3 POP JUMPDEST PUSH1 0xF DUP4 GT PUSH2 0x884 JUMPI PUSH1 0x0 DUP10 PUSH1 0x0 ADD MLOAD DUP5 DUP2 MLOAD DUP2 LT PUSH2 0x867 JUMPI PUSH2 0x867 PUSH2 0x1E2E JUMP JUMPDEST PUSH1 0x20 SWAP1 DUP2 MUL SWAP2 SWAP1 SWAP2 ADD ADD MSTORE DUP3 PUSH2 0x87C DUP2 PUSH2 0x1E44 JUMP JUMPDEST SWAP4 POP POP PUSH2 0x847 JUMP JUMPDEST PUSH1 0x0 SWAP4 POP JUMPDEST DUP7 DUP5 LT ISZERO PUSH2 0x8E9 JUMPI DUP9 MLOAD DUP9 PUSH2 0x89E DUP7 DUP10 PUSH2 0x1E05 JUMP JUMPDEST DUP2 MLOAD DUP2 LT PUSH2 0x8AE JUMPI PUSH2 0x8AE PUSH2 0x1E2E JUMP JUMPDEST PUSH1 0x20 MUL PUSH1 0x20 ADD ADD MLOAD DUP2 MLOAD DUP2 LT PUSH2 0x8C6 JUMPI PUSH2 0x8C6 PUSH2 0x1E2E JUMP JUMPDEST PUSH1 0x20 MUL PUSH1 0x20 ADD ADD DUP1 MLOAD DUP1 SWAP2 SWAP1 PUSH2 0x8DB SWAP1 PUSH2 0x1E44 JUMP JUMPDEST SWAP1 MSTORE POP PUSH1 0x1 SWAP1 SWAP4 ADD SWAP3 PUSH2 0x889 JUMP JUMPDEST DUP7 DUP10 PUSH1 0x0 ADD MLOAD PUSH1 0x0 DUP2 MLOAD DUP2 LT PUSH2 0x901 JUMPI PUSH2 0x901 PUSH2 0x1E2E JUMP JUMPDEST PUSH1 0x20 MUL PUSH1 0x20 ADD ADD MLOAD SUB PUSH2 0x91B JUMPI PUSH1 0x0 SWAP5 POP POP POP POP POP PUSH2 0xAE1 JUMP JUMPDEST PUSH1 0x1 SWAP2 POP PUSH1 0x1 SWAP3 POP JUMPDEST PUSH1 0xF DUP4 GT PUSH2 0x99E JUMPI DUP9 MLOAD DUP1 MLOAD PUSH1 0x1 SWAP4 SWAP1 SWAP4 SHL SWAP3 DUP5 SWAP1 DUP2 LT PUSH2 0x947 JUMPI PUSH2 0x947 PUSH2 0x1E2E JUMP JUMPDEST PUSH1 0x20 MUL PUSH1 0x20 ADD ADD MLOAD DUP3 LT ISZERO PUSH2 0x963 JUMPI PUSH1 0xE SWAP5 POP POP POP POP POP PUSH2 0xAE1 JUMP JUMPDEST DUP9 MLOAD DUP1 MLOAD DUP5 SWAP1 DUP2 LT PUSH2 0x977 JUMPI PUSH2 0x977 PUSH2 0x1E2E JUMP JUMPDEST PUSH1 0x20 MUL PUSH1 0x20 ADD ADD MLOAD DUP3 PUSH2 0x98A SWAP2 SWAP1 PUSH2 0x1E5D JUMP JUMPDEST SWAP2 POP DUP3 PUSH2 0x996 DUP2 PUSH2 0x1E44 JUMP JUMPDEST SWAP4 POP POP PUSH2 0x924 JUMP JUMPDEST PUSH1 0x0 PUSH1 0x20 DUP3 ADD MSTORE PUSH1 0x1 SWAP3 POP JUMPDEST PUSH1 0xF DUP4 LT ISZERO PUSH2 0xA1C JUMPI DUP9 MLOAD DUP1 MLOAD DUP5 SWAP1 DUP2 LT PUSH2 0x9C7 JUMPI PUSH2 0x9C7 PUSH2 0x1E2E JUMP JUMPDEST PUSH1 0x20 MUL PUSH1 0x20 ADD ADD MLOAD DUP2 DUP5 PUSH1 0x10 DUP2 LT PUSH2 0x9E1 JUMPI PUSH2 0x9E1 PUSH2 0x1E2E JUMP JUMPDEST PUSH1 0x20 MUL ADD MLOAD PUSH2 0x9F0 SWAP2 SWAP1 PUSH2 0x1E05 JUMP JUMPDEST DUP2 PUSH2 0x9FC DUP6 PUSH1 0x1 PUSH2 0x1E05 JUMP JUMPDEST PUSH1 0x10 DUP2 LT PUSH2 0xA0C JUMPI PUSH2 0xA0C PUSH2 0x1E2E JUMP JUMPDEST PUSH1 0x20 MUL ADD MSTORE PUSH1 0x1 SWAP1 SWAP3 ADD SWAP2 PUSH2 0x9AA JUMP JUMPDEST PUSH1 0x0 SWAP4 POP JUMPDEST DUP7 DUP5 LT ISZERO PUSH2 0xAC8 JUMPI DUP8 PUSH2 0xA34 DUP6 DUP9 PUSH2 0x1E05 JUMP JUMPDEST DUP2 MLOAD DUP2 LT PUSH2 0xA44 JUMPI PUSH2 0xA44 PUSH2 0x1E2E JUMP JUMPDEST PUSH1 0x20 MUL PUSH1 0x20 ADD ADD MLOAD PUSH1 0x0 EQ PUSH2 0xABD JUMPI PUSH1 0x20 DUP10 ADD MLOAD DUP5 SWAP1 DUP3 DUP11 PUSH2 0xA66 DUP5 DUP12 PUSH2 0x1E05 JUMP JUMPDEST DUP2 MLOAD DUP2 LT PUSH2 0xA76 JUMPI PUSH2 0xA76 PUSH2 0x1E2E JUMP JUMPDEST PUSH1 0x20 MUL PUSH1 0x20 ADD ADD MLOAD PUSH1 0x10 DUP2 LT PUSH2 0xA8E JUMPI PUSH2 0xA8E PUSH2 0x1E2E JUMP JUMPDEST PUSH1 0x20 MUL ADD DUP1 MLOAD SWAP1 PUSH2 0xA9E DUP3 PUSH2 0x1E44 JUMP JUMPDEST SWAP1 MSTORE DUP2 MLOAD DUP2 LT PUSH2 0xAB0 JUMPI PUSH2 0xAB0 PUSH2 0x1E2E JUMP JUMPDEST PUSH1 0x20 MUL PUSH1 0x20 ADD ADD DUP2 DUP2 MSTORE POP POP JUMPDEST PUSH1 0x1 SWAP1 SWAP4 ADD SWAP3 PUSH2 0xA21 JUMP JUMPDEST PUSH1 0x0 DUP3 GT PUSH2 0xAD7 JUMPI PUSH1 0x0 PUSH2 0xADA JUMP JUMPDEST PUSH1 0xE JUMPDEST SWAP5 POP POP POP POP POP JUMPDEST SWAP5 SWAP4 POP POP POP POP JUMP JUMPDEST PUSH1 0x0 PUSH2 0xB08 PUSH1 0x40 MLOAD DUP1 PUSH1 0x40 ADD PUSH1 0x40 MSTORE DUP1 PUSH1 0x60 DUP2 MSTORE PUSH1 0x20 ADD PUSH1 0x60 DUP2 MSTORE POP SWAP1 JUMP JUMPDEST PUSH1 0x40 DUP1 MLOAD DUP1 DUP3 ADD SWAP1 SWAP2 MSTORE PUSH1 0x60 DUP1 DUP3 MSTORE PUSH1 0x20 DUP3 ADD MSTORE PUSH1 0x0 DUP1 DUP1 DUP1 DUP1 PUSH2 0xB2F PUSH1 0x1E PUSH2 0x11E PUSH2 0x1E05 JUMP JUMPDEST PUSH8 0xFFFFFFFFFFFFFFFF DUP2 GT ISZERO PUSH2 0xB47 JUMPI PUSH2 0xB47 PUSH2 0x1DD9 JUMP JUMPDEST PUSH1 0x40 MLOAD SWAP1 DUP1 DUP3 MSTORE DUP1 PUSH1 0x20 MUL PUSH1 0x20 ADD DUP3 ADD PUSH1 0x40 MSTORE DUP1 ISZERO PUSH2 0xB70 JUMPI DUP2 PUSH1 0x20 ADD PUSH1 0x20 DUP3 MUL DUP1 CALLDATASIZE DUP4 CALLDATACOPY ADD SWAP1 POP JUMPDEST POP SWAP1 POP PUSH1 0x0 PUSH1 0x40 MLOAD DUP1 PUSH1 0x40 ADD PUSH1 0x40 MSTORE DUP1 PUSH1 0xF PUSH1 0x1 PUSH2 0xB8E SWAP2 SWAP1 PUSH2 0x1E05 JUMP JUMPDEST PUSH8 0xFFFFFFFFFFFFFFFF DUP2 GT ISZERO PUSH2 0xBA6 JUMPI PUSH2 0xBA6 PUSH2 0x1DD9 JUMP JUMPDEST PUSH1 0x40 MLOAD SWAP1 DUP1 DUP3 MSTORE DUP1 PUSH1 0x20 MUL PUSH1 0x20 ADD DUP3 ADD PUSH1 0x40 MSTORE DUP1 ISZERO PUSH2 0xBCF JUMPI DUP2 PUSH1 0x20 ADD PUSH1 0x20 DUP3 MUL DUP1 CALLDATASIZE DUP4 CALLDATACOPY ADD SWAP1 POP JUMPDEST POP DUP2 MSTORE PUSH1 0x40 DUP1 MLOAD PUSH2 0x11E DUP1 DUP3 MSTORE PUSH2 0x23E0 DUP3 ADD SWAP1 SWAP3 MSTORE PUSH1 0x20 SWAP3 DUP4 ADD SWAP3 SWAP1 SWAP2 SWAP1 DUP3 ADD PUSH2 0x23C0 DUP1 CALLDATASIZE DUP4 CALLDATACOPY ADD SWAP1 POP POP DUP2 MSTORE POP SWAP1 POP PUSH1 0x0 PUSH1 0x40 MLOAD DUP1 PUSH1 0x40 ADD PUSH1 0x40 MSTORE DUP1 PUSH1 0xF PUSH1 0x1 PUSH2 0xC1A SWAP2 SWAP1 PUSH2 0x1E05 JUMP JUMPDEST PUSH8 0xFFFFFFFFFFFFFFFF DUP2 GT ISZERO PUSH2 0xC32 JUMPI PUSH2 0xC32 PUSH2 0x1DD9 JUMP JUMPDEST PUSH1 0x40 MLOAD SWAP1 DUP1 DUP3 MSTORE DUP1 PUSH1 0x20 MUL PUSH1 0x20 ADD DUP3 ADD PUSH1 0x40 MSTORE DUP1 ISZERO PUSH2 0xC5B JUMPI DUP2 PUSH1 0x20 ADD PUSH1 0x20 DUP3 MUL DUP1 CALLDATASIZE DUP4 CALLDATACOPY ADD SWAP1 POP JUMPDEST POP DUP2 MSTORE PUSH1 0x40 DUP1 MLOAD PUSH1 0x1E DUP1 DUP3 MSTORE PUSH2 0x3E0 DUP3 ADD SWAP1 SWAP3 MSTORE PUSH1 0x20 SWAP3 DUP4 ADD SWAP3 SWAP1 SWAP2 SWAP1 DUP3 ADD PUSH2 0x3C0 DUP1 CALLDATASIZE DUP4 CALLDATACOPY POP POP POP SWAP1 MSTORE SWAP1 POP PUSH1 0x0 PUSH2 0xC95 DUP13 PUSH1 0x5 PUSH2 0x4C5 JUMP JUMPDEST SWAP9 POP SWAP5 POP PUSH1 0x0 DUP6 PUSH1 0xE DUP2 GT ISZERO PUSH2 0xCAD JUMPI PUSH2 0xCAD PUSH2 0x1E18 JUMP JUMPDEST EQ PUSH2 0xCC5 JUMPI POP SWAP3 SWAP9 POP SWAP7 POP SWAP1 SWAP5 POP PUSH2 0x119C SWAP4 POP POP POP POP JUMP JUMPDEST PUSH2 0xCD1 PUSH2 0x101 DUP10 PUSH2 0x1E05 JUMP JUMPDEST SWAP8 POP PUSH2 0xCDE DUP13 PUSH1 0x5 PUSH2 0x4C5 JUMP JUMPDEST SWAP8 POP SWAP5 POP PUSH1 0x0 DUP6 PUSH1 0xE DUP2 GT ISZERO PUSH2 0xCF6 JUMPI PUSH2 0xCF6 PUSH2 0x1E18 JUMP JUMPDEST EQ PUSH2 0xD0E JUMPI POP SWAP3 SWAP9 POP SWAP7 POP SWAP1 SWAP5 POP PUSH2 0x119C SWAP4 POP POP POP POP JUMP JUMPDEST PUSH2 0xD19 PUSH1 0x1 DUP9 PUSH2 0x1E05 JUMP JUMPDEST SWAP7 POP PUSH2 0x11E DUP9 GT DUP1 PUSH2 0xD2B JUMPI POP PUSH1 0x1E DUP8 GT JUMPDEST ISZERO PUSH2 0xD45 JUMPI POP PUSH1 0x5 SWAP10 POP SWAP1 SWAP8 POP SWAP6 POP PUSH2 0x119C SWAP5 POP POP POP POP POP JUMP JUMPDEST PUSH2 0xD4E DUP13 PUSH2 0x19CF JUMP JUMPDEST SWAP1 SWAP6 POP SWAP4 POP PUSH1 0x0 DUP6 PUSH1 0xE DUP2 GT ISZERO PUSH2 0xD67 JUMPI PUSH2 0xD67 PUSH2 0x1E18 JUMP JUMPDEST EQ PUSH2 0xD7F JUMPI POP SWAP3 SWAP9 POP SWAP7 POP SWAP1 SWAP5 POP PUSH2 0x119C SWAP4 POP POP POP POP JUMP JUMPDEST PUSH2 0xD8D DUP4 DUP6 PUSH1 0x13 PUSH1 0x0 PUSH2 0x834 JUMP JUMPDEST SWAP5 POP PUSH1 0x0 DUP6 PUSH1 0xE DUP2 GT ISZERO PUSH2 0xDA3 JUMPI PUSH2 0xDA3 PUSH2 0x1E18 JUMP JUMPDEST EQ PUSH2 0xDBD JUMPI POP PUSH1 0x6 SWAP10 POP SWAP1 SWAP8 POP SWAP6 POP PUSH2 0x119C SWAP5 POP POP POP POP POP JUMP JUMPDEST PUSH1 0x0 SWAP6 POP JUMPDEST PUSH2 0xDCC DUP8 DUP10 PUSH2 0x1E05 JUMP JUMPDEST DUP7 LT ISZERO PUSH2 0xFC7 JUMPI PUSH1 0x0 DUP1 PUSH2 0xDE0 DUP15 DUP7 PUSH2 0x1BE4 JUMP JUMPDEST SWAP1 SWAP8 POP SWAP2 POP PUSH1 0x0 DUP8 PUSH1 0xE DUP2 GT ISZERO PUSH2 0xDF9 JUMPI PUSH2 0xDF9 PUSH2 0x1E18 JUMP JUMPDEST EQ PUSH2 0xE13 JUMPI POP SWAP5 SWAP11 POP SWAP2 SWAP9 POP SWAP7 POP PUSH2 0x119C SWAP6 POP POP POP POP POP POP JUMP JUMPDEST PUSH1 0x10 DUP3 LT ISZERO PUSH2 0xE4B JUMPI DUP2 DUP7 DUP10 PUSH2 0xE28 DUP2 PUSH2 0x1E44 JUMP JUMPDEST SWAP11 POP DUP2 MLOAD DUP2 LT PUSH2 0xE3A JUMPI PUSH2 0xE3A PUSH2 0x1E2E JUMP JUMPDEST PUSH1 0x20 MUL PUSH1 0x20 ADD ADD DUP2 DUP2 MSTORE POP POP PUSH2 0xFC0 JUMP JUMPDEST PUSH1 0x0 SWAP1 POP DUP2 PUSH1 0x10 SUB PUSH2 0xEED JUMPI DUP8 PUSH1 0x0 SUB PUSH2 0xE77 JUMPI POP PUSH1 0x7 SWAP12 POP SWAP3 SWAP10 POP SWAP1 SWAP8 POP PUSH2 0x119C SWAP7 POP POP POP POP POP POP POP JUMP JUMPDEST DUP6 PUSH2 0xE83 PUSH1 0x1 DUP11 PUSH2 0x1E5D JUMP JUMPDEST DUP2 MLOAD DUP2 LT PUSH2 0xE93 JUMPI PUSH2 0xE93 PUSH2 0x1E2E JUMP JUMPDEST PUSH1 0x20 MUL PUSH1 0x20 ADD ADD MLOAD SWAP1 POP PUSH2 0xEA8 DUP15 PUSH1 0x2 PUSH2 0x4C5 JUMP JUMPDEST SWAP1 SWAP8 POP SWAP3 POP PUSH1 0x0 DUP8 PUSH1 0xE DUP2 GT ISZERO PUSH2 0xEC1 JUMPI PUSH2 0xEC1 PUSH2 0x1E18 JUMP JUMPDEST EQ PUSH2 0xEDB JUMPI POP SWAP5 SWAP11 POP SWAP2 SWAP9 POP SWAP7 POP PUSH2 0x119C SWAP6 POP POP POP POP POP POP JUMP JUMPDEST PUSH2 0xEE6 DUP4 PUSH1 0x3 PUSH2 0x1E05 JUMP JUMPDEST SWAP2 POP PUSH2 0xF4C JUMP JUMPDEST DUP2 PUSH1 0x11 SUB PUSH2 0xF00 JUMPI PUSH2 0xEA8 DUP15 PUSH1 0x3 PUSH2 0x4C5 JUMP JUMPDEST PUSH2 0xF0B DUP15 PUSH1 0x7 PUSH2 0x4C5 JUMP JUMPDEST SWAP1 SWAP8 POP SWAP3 POP PUSH1 0x0 DUP8 PUSH1 0xE DUP2 GT ISZERO PUSH2 0xF24 JUMPI PUSH2 0xF24 PUSH2 0x1E18 JUMP JUMPDEST EQ PUSH2 0xF3E JUMPI POP SWAP5 SWAP11 POP SWAP2 SWAP9 POP SWAP7 POP PUSH2 0x119C SWAP6 POP POP POP POP POP POP JUMP JUMPDEST PUSH2 0xF49 DUP4 PUSH1 0xB PUSH2 0x1E05 JUMP JUMPDEST SWAP2 POP JUMPDEST PUSH2 0xF56 DUP10 DUP12 PUSH2 0x1E05 JUMP JUMPDEST PUSH2 0xF60 DUP4 DUP11 PUSH2 0x1E05 JUMP JUMPDEST GT ISZERO PUSH2 0xF7E JUMPI POP PUSH1 0x8 SWAP12 POP SWAP3 SWAP10 POP SWAP1 SWAP8 POP PUSH2 0x119C SWAP7 POP POP POP POP POP POP POP JUMP JUMPDEST DUP2 ISZERO PUSH2 0xFC0 JUMPI PUSH2 0xF8F PUSH1 0x1 DUP4 PUSH2 0x1E5D JUMP JUMPDEST SWAP2 POP DUP1 DUP7 DUP10 PUSH2 0xF9D DUP2 PUSH2 0x1E44 JUMP JUMPDEST SWAP11 POP DUP2 MLOAD DUP2 LT PUSH2 0xFAF JUMPI PUSH2 0xFAF PUSH2 0x1E2E JUMP JUMPDEST PUSH1 0x20 MUL PUSH1 0x20 ADD ADD DUP2 DUP2 MSTORE POP POP PUSH2 0xF7E JUMP JUMPDEST POP POP PUSH2 0xDC2 JUMP JUMPDEST DUP4 PUSH2 0x100 DUP2 MLOAD DUP2 LT PUSH2 0xFDB JUMPI PUSH2 0xFDB PUSH2 0x1E2E JUMP JUMPDEST PUSH1 0x20 MUL PUSH1 0x20 ADD ADD MLOAD PUSH1 0x0 SUB PUSH2 0xFFF JUMPI POP PUSH1 0xB SWAP10 POP SWAP1 SWAP8 POP SWAP6 POP PUSH2 0x119C SWAP5 POP POP POP POP POP JUMP JUMPDEST PUSH2 0x100C DUP4 DUP6 DUP11 PUSH1 0x0 PUSH2 0x834 JUMP JUMPDEST SWAP5 POP PUSH1 0x0 DUP6 PUSH1 0xE DUP2 GT ISZERO PUSH2 0x1022 JUMPI PUSH2 0x1022 PUSH2 0x1E18 JUMP JUMPDEST EQ ISZERO DUP1 ISZERO PUSH2 0x10AC JUMPI POP PUSH1 0x1 DUP6 PUSH1 0xE DUP2 GT ISZERO PUSH2 0x103F JUMPI PUSH2 0x103F PUSH2 0x1E18 JUMP JUMPDEST EQ DUP1 PUSH2 0x105C JUMPI POP PUSH1 0x2 DUP6 PUSH1 0xE DUP2 GT ISZERO PUSH2 0x105A JUMPI PUSH2 0x105A PUSH2 0x1E18 JUMP JUMPDEST EQ JUMPDEST DUP1 PUSH2 0x10AC JUMPI POP DUP3 MLOAD DUP1 MLOAD PUSH1 0x1 SWAP1 DUP2 LT PUSH2 0x1077 JUMPI PUSH2 0x1077 PUSH2 0x1E2E JUMP JUMPDEST PUSH1 0x20 MUL PUSH1 0x20 ADD ADD MLOAD DUP4 PUSH1 0x0 ADD MLOAD PUSH1 0x0 DUP2 MLOAD DUP2 LT PUSH2 0x1096 JUMPI PUSH2 0x1096 PUSH2 0x1E2E JUMP JUMPDEST PUSH1 0x20 MUL PUSH1 0x20 ADD ADD MLOAD PUSH2 0x10A8 SWAP2 SWAP1 PUSH2 0x1E05 JUMP JUMPDEST DUP9 EQ ISZERO JUMPDEST ISZERO PUSH2 0x10C6 JUMPI POP PUSH1 0x9 SWAP10 POP SWAP1 SWAP8 POP SWAP6 POP PUSH2 0x119C SWAP5 POP POP POP POP POP JUMP JUMPDEST PUSH2 0x10D2 DUP3 DUP6 DUP10 DUP12 PUSH2 0x834 JUMP JUMPDEST SWAP5 POP PUSH1 0x0 DUP6 PUSH1 0xE DUP2 GT ISZERO PUSH2 0x10E8 JUMPI PUSH2 0x10E8 PUSH2 0x1E18 JUMP JUMPDEST EQ ISZERO DUP1 ISZERO PUSH2 0x1172 JUMPI POP PUSH1 0x1 DUP6 PUSH1 0xE DUP2 GT ISZERO PUSH2 0x1105 JUMPI PUSH2 0x1105 PUSH2 0x1E18 JUMP JUMPDEST EQ DUP1 PUSH2 0x1122 JUMPI POP PUSH1 0x2 DUP6 PUSH1 0xE DUP2 GT ISZERO PUSH2 0x1120 JUMPI PUSH2 0x1120 PUSH2 0x1E18 JUMP JUMPDEST EQ JUMPDEST DUP1 PUSH2 0x1172 JUMPI POP DUP2 MLOAD DUP1 MLOAD PUSH1 0x1 SWAP1 DUP2 LT PUSH2 0x113D JUMPI PUSH2 0x113D PUSH2 0x1E2E JUMP JUMPDEST PUSH1 0x20 MUL PUSH1 0x20 ADD ADD MLOAD DUP3 PUSH1 0x0 ADD MLOAD PUSH1 0x0 DUP2 MLOAD DUP2 LT PUSH2 0x115C JUMPI PUSH2 0x115C PUSH2 0x1E2E JUMP JUMPDEST PUSH1 0x20 MUL PUSH1 0x20 ADD ADD MLOAD PUSH2 0x116E SWAP2 SWAP1 PUSH2 0x1E05 JUMP JUMPDEST DUP8 EQ ISZERO JUMPDEST ISZERO PUSH2 0x118C JUMPI POP PUSH1 0xA SWAP10 POP SWAP1 SWAP8 POP SWAP6 POP PUSH2 0x119C SWAP5 POP POP POP POP POP JUMP JUMPDEST POP PUSH1 0x0 SWAP10 POP SWAP1 SWAP8 POP SWAP6 POP POP POP POP POP POP JUMPDEST SWAP2 SWAP4 SWAP1 SWAP3 POP JUMP JUMPDEST PUSH1 0x0 DUP1 PUSH1 0x0 DUP1 PUSH1 0x0 PUSH1 0x40 MLOAD DUP1 PUSH2 0x3A0 ADD PUSH1 0x40 MSTORE DUP1 PUSH1 0x3 PUSH2 0xFFFF AND DUP2 MSTORE PUSH1 0x20 ADD PUSH1 0x4 PUSH2 0xFFFF AND DUP2 MSTORE PUSH1 0x20 ADD PUSH1 0x5 PUSH2 0xFFFF AND DUP2 MSTORE PUSH1 0x20 ADD PUSH1 0x6 PUSH2 0xFFFF AND DUP2 MSTORE PUSH1 0x20 ADD PUSH1 0x7 PUSH2 0xFFFF AND DUP2 MSTORE PUSH1 0x20 ADD PUSH1 0x8 PUSH2 0xFFFF AND DUP2 MSTORE PUSH1 0x20 ADD PUSH1 0x9 PUSH2 0xFFFF AND DUP2 MSTORE PUSH1 0x20 ADD PUSH1 0xA PUSH2 0xFFFF AND DUP2 MSTORE PUSH1 0x20 ADD PUSH1 0xB PUSH2 0xFFFF AND DUP2 MSTORE PUSH1 0x20 ADD PUSH1 0xD PUSH2 0xFFFF AND DUP2 MSTORE PUSH1 0x20 ADD PUSH1 0xF PUSH2 0xFFFF AND DUP2 MSTORE PUSH1 0x20 ADD PUSH1 0x11 PUSH2 0xFFFF AND DUP2 MSTORE PUSH1 0x20 ADD PUSH1 0x13 PUSH2 0xFFFF AND DUP2 MSTORE PUSH1 0x20 ADD PUSH1 0x17 PUSH2 0xFFFF AND DUP2 MSTORE PUSH1 0x20 ADD PUSH1 0x1B PUSH2 0xFFFF AND DUP2 MSTORE PUSH1 0x20 ADD PUSH1 0x1F PUSH2 0xFFFF AND DUP2 MSTORE PUSH1 0x20 ADD PUSH1 0x23 PUSH2 0xFFFF AND DUP2 MSTORE PUSH1 0x20 ADD PUSH1 0x2B PUSH2 0xFFFF AND DUP2 MSTORE PUSH1 0x20 ADD PUSH1 0x33 PUSH2 0xFFFF AND DUP2 MSTORE PUSH1 0x20 ADD PUSH1 0x3B PUSH2 0xFFFF AND DUP2 MSTORE PUSH1 0x20 ADD PUSH1 0x43 PUSH2 0xFFFF AND DUP2 MSTORE PUSH1 0x20 ADD PUSH1 0x53 PUSH2 0xFFFF AND DUP2 MSTORE PUSH1 0x20 ADD PUSH1 0x63 PUSH2 0xFFFF AND DUP2 MSTORE PUSH1 0x20 ADD PUSH1 0x73 PUSH2 0xFFFF AND DUP2 MSTORE PUSH1 0x20 ADD PUSH1 0x83 PUSH2 0xFFFF AND DUP2 MSTORE PUSH1 0x20 ADD PUSH1 0xA3 PUSH2 0xFFFF AND DUP2 MSTORE PUSH1 0x20 ADD PUSH1 0xC3 PUSH2 0xFFFF AND DUP2 MSTORE PUSH1 0x20 ADD PUSH1 0xE3 PUSH2 0xFFFF AND DUP2 MSTORE PUSH1 0x20 ADD PUSH2 0x102 PUSH2 0xFFFF AND DUP2 MSTORE POP SWAP1 POP PUSH1 0x0 PUSH1 0x40 MLOAD DUP1 PUSH2 0x3A0 ADD PUSH1 0x40 MSTORE DUP1 PUSH1 0x0 PUSH1 0xFF AND DUP2 MSTORE PUSH1 0x20 ADD PUSH1 0x0 PUSH1 0xFF AND DUP2 MSTORE PUSH1 0x20 ADD PUSH1 0x0 PUSH1 0xFF AND DUP2 MSTORE PUSH1 0x20 ADD PUSH1 0x0 PUSH1 0xFF AND DUP2 MSTORE PUSH1 0x20 ADD PUSH1 0x0 PUSH1 0xFF AND DUP2 MSTORE PUSH1 0x20 ADD PUSH1 0x0 PUSH1 0xFF AND DUP2 MSTORE PUSH1 0x20 ADD PUSH1 0x0 PUSH1 0xFF AND DUP2 MSTORE PUSH1 0x20 ADD PUSH1 0x0 PUSH1 0xFF AND DUP2 MSTORE PUSH1 0x20 ADD PUSH1 0x1 PUSH1 0xFF AND DUP2 MSTORE PUSH1 0x20 ADD PUSH1 0x1 PUSH1 0xFF AND DUP2 MSTORE PUSH1 0x20 ADD PUSH1 0x1 PUSH1 0xFF AND DUP2 MSTORE PUSH1 0x20 ADD PUSH1 0x1 PUSH1 0xFF AND DUP2 MSTORE PUSH1 0x20 ADD PUSH1 0x2 PUSH1 0xFF AND DUP2 MSTORE PUSH1 0x20 ADD PUSH1 0x2 PUSH1 0xFF AND DUP2 MSTORE PUSH1 0x20 ADD PUSH1 0x2 PUSH1 0xFF AND DUP2 MSTORE PUSH1 0x20 ADD PUSH1 0x2 PUSH1 0xFF AND DUP2 MSTORE PUSH1 0x20 ADD PUSH1 0x3 PUSH1 0xFF AND DUP2 MSTORE PUSH1 0x20 ADD PUSH1 0x3 PUSH1 0xFF AND DUP2 MSTORE PUSH1 0x20 ADD PUSH1 0x3 PUSH1 0xFF AND DUP2 MSTORE PUSH1 0x20 ADD PUSH1 0x3 PUSH1 0xFF AND DUP2 MSTORE PUSH1 0x20 ADD PUSH1 0x4 PUSH1 0xFF AND DUP2 MSTORE PUSH1 0x20 ADD PUSH1 0x4 PUSH1 0xFF AND DUP2 MSTORE PUSH1 0x20 ADD PUSH1 0x4 PUSH1 0xFF AND DUP2 MSTORE PUSH1 0x20 ADD PUSH1 0x4 PUSH1 0xFF AND DUP2 MSTORE PUSH1 0x20 ADD PUSH1 0x5 PUSH1 0xFF AND DUP2 MSTORE PUSH1 0x20 ADD PUSH1 0x5 PUSH1 0xFF AND DUP2 MSTORE PUSH1 0x20 ADD PUSH1 0x5 PUSH1 0xFF AND DUP2 MSTORE PUSH1 0x20 ADD PUSH1 0x5 PUSH1 0xFF AND DUP2 MSTORE PUSH1 0x20 ADD PUSH1 0x0 PUSH1 0xFF AND DUP2 MSTORE POP SWAP1 POP PUSH1 0x0 PUSH1 0x40 MLOAD DUP1 PUSH2 0x3C0 ADD PUSH1 0x40 MSTORE DUP1 PUSH1 0x1 PUSH2 0xFFFF AND DUP2 MSTORE PUSH1 0x20 ADD PUSH1 0x2 PUSH2 0xFFFF AND DUP2 MSTORE PUSH1 0x20 ADD PUSH1 0x3 PUSH2 0xFFFF AND DUP2 MSTORE PUSH1 0x20 ADD PUSH1 0x4 PUSH2 0xFFFF AND DUP2 MSTORE PUSH1 0x20 ADD PUSH1 0x5 PUSH2 0xFFFF AND DUP2 MSTORE PUSH1 0x20 ADD PUSH1 0x7 PUSH2 0xFFFF AND DUP2 MSTORE PUSH1 0x20 ADD PUSH1 0x9 PUSH2 0xFFFF AND DUP2 MSTORE PUSH1 0x20 ADD PUSH1 0xD PUSH2 0xFFFF AND DUP2 MSTORE PUSH1 0x20 ADD PUSH1 0x11 PUSH2 0xFFFF AND DUP2 MSTORE PUSH1 0x20 ADD PUSH1 0x19 PUSH2 0xFFFF AND DUP2 MSTORE PUSH1 0x20 ADD PUSH1 0x21 PUSH2 0xFFFF AND DUP2 MSTORE PUSH1 0x20 ADD PUSH1 0x31 PUSH2 0xFFFF AND DUP2 MSTORE PUSH1 0x20 ADD PUSH1 0x41 PUSH2 0xFFFF AND DUP2 MSTORE PUSH1 0x20 ADD PUSH1 0x61 PUSH2 0xFFFF AND DUP2 MSTORE PUSH1 0x20 ADD PUSH1 0x81 PUSH2 0xFFFF AND DUP2 MSTORE PUSH1 0x20 ADD PUSH1 0xC1 PUSH2 0xFFFF AND DUP2 MSTORE PUSH1 0x20 ADD PUSH2 0x101 PUSH2 0xFFFF AND DUP2 MSTORE PUSH1 0x20 ADD PUSH2 0x181 PUSH2 0xFFFF AND DUP2 MSTORE PUSH1 0x20 ADD PUSH2 0x201 PUSH2 0xFFFF AND DUP2 MSTORE PUSH1 0x20 ADD PUSH2 0x301 PUSH2 0xFFFF AND DUP2 MSTORE PUSH1 0x20 ADD PUSH2 0x401 PUSH2 0xFFFF AND DUP2 MSTORE PUSH1 0x20 ADD PUSH2 0x601 PUSH2 0xFFFF AND DUP2 MSTORE PUSH1 0x20 ADD PUSH2 0x801 PUSH2 0xFFFF AND DUP2 MSTORE PUSH1 0x20 ADD PUSH2 0xC01 PUSH2 0xFFFF AND DUP2 MSTORE PUSH1 0x20 ADD PUSH2 0x1001 PUSH2 0xFFFF AND DUP2 MSTORE PUSH1 0x20 ADD PUSH2 0x1801 PUSH2 0xFFFF AND DUP2 MSTORE PUSH1 0x20 ADD PUSH2 0x2001 PUSH2 0xFFFF AND DUP2 MSTORE PUSH1 0x20 ADD PUSH2 0x3001 PUSH2 0xFFFF AND DUP2 MSTORE PUSH1 0x20 ADD PUSH2 0x4001 PUSH2 0xFFFF AND DUP2 MSTORE PUSH1 0x20 ADD PUSH2 0x6001 PUSH2 0xFFFF AND DUP2 MSTORE POP SWAP1 POP PUSH1 0x0 PUSH1 0x40 MLOAD DUP1 PUSH2 0x3C0 ADD PUSH1 0x40 MSTORE DUP1 PUSH1 0x0 PUSH1 0xFF AND DUP2 MSTORE PUSH1 0x20 ADD PUSH1 0x0 PUSH1 0xFF AND DUP2 MSTORE PUSH1 0x20 ADD PUSH1 0x0 PUSH1 0xFF AND DUP2 MSTORE PUSH1 0x20 ADD PUSH1 0x0 PUSH1 0xFF AND DUP2 MSTORE PUSH1 0x20 ADD PUSH1 0x1 PUSH1 0xFF AND DUP2 MSTORE PUSH1 0x20 ADD PUSH1 0x1 PUSH1 0xFF AND DUP2 MSTORE PUSH1 0x20 ADD PUSH1 0x2 PUSH1 0xFF AND DUP2 MSTORE PUSH1 0x20 ADD PUSH1 0x2 PUSH1 0xFF AND DUP2 MSTORE PUSH1 0x20 ADD PUSH1 0x3 PUSH1 0xFF AND DUP2 MSTORE PUSH1 0x20 ADD PUSH1 0x3 PUSH1 0xFF AND DUP2 MSTORE PUSH1 0x20 ADD PUSH1 0x4 PUSH1 0xFF AND DUP2 MSTORE PUSH1 0x20 ADD PUSH1 0x4 PUSH1 0xFF AND DUP2 MSTORE PUSH1 0x20 ADD PUSH1 0x5 PUSH1 0xFF AND DUP2 MSTORE PUSH1 0x20 ADD PUSH1 0x5 PUSH1 0xFF AND DUP2 MSTORE PUSH1 0x20 ADD PUSH1 0x6 PUSH1 0xFF AND DUP2 MSTORE PUSH1 0x20 ADD PUSH1 0x6 PUSH1 0xFF AND DUP2 MSTORE PUSH1 0x20 ADD PUSH1 0x7 PUSH1 0xFF AND DUP2 MSTORE PUSH1 0x20 ADD PUSH1 0x7 PUSH1 0xFF AND DUP2 MSTORE PUSH1 0x20 ADD PUSH1 0x8 PUSH1 0xFF AND DUP2 MSTORE PUSH1 0x20 ADD PUSH1 0x8 PUSH1 0xFF AND DUP2 MSTORE PUSH1 0x20 ADD PUSH1 0x9 PUSH1 0xFF AND DUP2 MSTORE PUSH1 0x20 ADD PUSH1 0x9 PUSH1 0xFF AND DUP2 MSTORE PUSH1 0x20 ADD PUSH1 0xA PUSH1 0xFF AND DUP2 MSTORE PUSH1 0x20 ADD PUSH1 0xA PUSH1 0xFF AND DUP2 MSTORE PUSH1 0x20 ADD PUSH1 0xB PUSH1 0xFF AND DUP2 MSTORE PUSH1 0x20 ADD PUSH1 0xB PUSH1 0xFF AND DUP2 MSTORE PUSH1 0x20 ADD PUSH1 0xC PUSH1 0xFF AND DUP2 MSTORE PUSH1 0x20 ADD PUSH1 0xC PUSH1 0xFF AND DUP2 MSTORE PUSH1 0x20 ADD PUSH1 0xD PUSH1 0xFF AND DUP2 MSTORE PUSH1 0x20 ADD PUSH1 0xD PUSH1 0xFF AND DUP2 MSTORE POP SWAP1 POP PUSH1 0x0 JUMPDEST DUP8 PUSH2 0x100 EQ PUSH2 0x19BB JUMPI PUSH2 0x16DD DUP13 DUP13 PUSH2 0x1BE4 JUMP JUMPDEST SWAP9 POP SWAP1 POP PUSH1 0x0 DUP2 PUSH1 0xE DUP2 GT ISZERO PUSH2 0x16F5 JUMPI PUSH2 0x16F5 PUSH2 0x1E18 JUMP JUMPDEST EQ PUSH2 0x1709 JUMPI SWAP8 POP PUSH2 0x19C8 SWAP7 POP POP POP POP POP POP POP JUMP JUMPDEST PUSH2 0x100 DUP9 LT ISZERO PUSH2 0x177E JUMPI DUP12 MLOAD MLOAD PUSH1 0x20 DUP14 ADD MLOAD SUB PUSH2 0x1731 JUMPI PUSH1 0x2 SWAP9 POP POP POP POP POP POP POP POP POP PUSH2 0x19C8 JUMP JUMPDEST DUP8 PUSH1 0xF8 SHL DUP13 PUSH1 0x0 ADD MLOAD DUP14 PUSH1 0x20 ADD MLOAD DUP2 MLOAD DUP2 LT PUSH2 0x174F JUMPI PUSH2 0x174F PUSH2 0x1E2E JUMP JUMPDEST PUSH1 0x20 ADD ADD SWAP1 PUSH1 0x1 PUSH1 0x1 PUSH1 0xF8 SHL SUB NOT AND SWAP1 DUP2 PUSH1 0x0 BYTE SWAP1 MSTORE8 POP PUSH1 0x20 DUP13 ADD DUP1 MLOAD SWAP1 PUSH2 0x1776 DUP3 PUSH2 0x1E44 JUMP JUMPDEST SWAP1 MSTORE POP PUSH2 0x16CA JUMP JUMPDEST PUSH2 0x100 DUP9 GT ISZERO PUSH2 0x19A9 JUMPI PUSH1 0x0 PUSH2 0x1796 PUSH2 0x101 DUP11 PUSH2 0x1E5D JUMP JUMPDEST SWAP9 POP PUSH1 0x1D DUP10 LT PUSH2 0x17B2 JUMPI PUSH1 0xC SWAP10 POP POP POP POP POP POP POP POP POP POP PUSH2 0x19C8 JUMP JUMPDEST PUSH2 0x17D5 DUP14 DUP7 DUP12 PUSH1 0x1D DUP2 LT PUSH2 0x17C8 JUMPI PUSH2 0x17C8 PUSH2 0x1E2E JUMP JUMPDEST PUSH1 0x20 MUL ADD MLOAD PUSH1 0xFF AND PUSH2 0x4C5 JUMP JUMPDEST SWAP1 SWAP3 POP SWAP1 POP PUSH1 0x0 DUP3 PUSH1 0xE DUP2 GT ISZERO PUSH2 0x17EE JUMPI PUSH2 0x17EE PUSH2 0x1E18 JUMP JUMPDEST EQ PUSH2 0x1803 JUMPI POP SWAP8 POP PUSH2 0x19C8 SWAP7 POP POP POP POP POP POP POP JUMP JUMPDEST DUP1 DUP7 DUP11 PUSH1 0x1D DUP2 LT PUSH2 0x1816 JUMPI PUSH2 0x1816 PUSH2 0x1E2E JUMP JUMPDEST PUSH1 0x20 MUL ADD MLOAD PUSH2 0xFFFF AND PUSH2 0x1829 SWAP2 SWAP1 PUSH2 0x1E05 JUMP JUMPDEST SWAP8 POP PUSH2 0x1835 DUP14 DUP13 PUSH2 0x1BE4 JUMP JUMPDEST SWAP10 POP SWAP2 POP PUSH1 0x0 DUP3 PUSH1 0xE DUP2 GT ISZERO PUSH2 0x184D JUMPI PUSH2 0x184D PUSH2 0x1E18 JUMP JUMPDEST EQ PUSH2 0x1862 JUMPI POP SWAP8 POP PUSH2 0x19C8 SWAP7 POP POP POP POP POP POP POP JUMP JUMPDEST PUSH2 0x1878 DUP14 DUP5 DUP12 PUSH1 0x1E DUP2 LT PUSH2 0x17C8 JUMPI PUSH2 0x17C8 PUSH2 0x1E2E JUMP JUMPDEST SWAP1 SWAP3 POP SWAP1 POP PUSH1 0x0 DUP3 PUSH1 0xE DUP2 GT ISZERO PUSH2 0x1891 JUMPI PUSH2 0x1891 PUSH2 0x1E18 JUMP JUMPDEST EQ PUSH2 0x18A6 JUMPI POP SWAP8 POP PUSH2 0x19C8 SWAP7 POP POP POP POP POP POP POP JUMP JUMPDEST DUP1 DUP5 DUP11 PUSH1 0x1E DUP2 LT PUSH2 0x18B9 JUMPI PUSH2 0x18B9 PUSH2 0x1E2E JUMP JUMPDEST PUSH1 0x20 MUL ADD MLOAD PUSH2 0xFFFF AND PUSH2 0x18CC SWAP2 SWAP1 PUSH2 0x1E05 JUMP JUMPDEST SWAP7 POP DUP13 PUSH1 0x20 ADD MLOAD DUP8 GT ISZERO PUSH2 0x18EC JUMPI PUSH1 0xD SWAP10 POP POP POP POP POP POP POP POP POP POP PUSH2 0x19C8 JUMP JUMPDEST DUP13 MLOAD MLOAD PUSH1 0x20 DUP15 ADD MLOAD PUSH2 0x18FF SWAP1 DUP11 SWAP1 PUSH2 0x1E05 JUMP JUMPDEST GT ISZERO PUSH2 0x1917 JUMPI PUSH1 0x2 SWAP10 POP POP POP POP POP POP POP POP POP POP PUSH2 0x19C8 JUMP JUMPDEST DUP8 ISZERO PUSH2 0x19A3 JUMPI PUSH2 0x1928 PUSH1 0x1 DUP10 PUSH2 0x1E5D JUMP JUMPDEST SWAP8 POP DUP13 PUSH1 0x0 ADD MLOAD DUP8 DUP15 PUSH1 0x20 ADD MLOAD PUSH2 0x193F SWAP2 SWAP1 PUSH2 0x1E5D JUMP JUMPDEST DUP2 MLOAD DUP2 LT PUSH2 0x194F JUMPI PUSH2 0x194F PUSH2 0x1E2E JUMP JUMPDEST PUSH1 0x20 ADD ADD MLOAD PUSH1 0xF8 SHR PUSH1 0xF8 SHL DUP14 PUSH1 0x0 ADD MLOAD DUP15 PUSH1 0x20 ADD MLOAD DUP2 MLOAD DUP2 LT PUSH2 0x1974 JUMPI PUSH2 0x1974 PUSH2 0x1E2E JUMP JUMPDEST PUSH1 0x20 ADD ADD SWAP1 PUSH1 0x1 PUSH1 0x1 PUSH1 0xF8 SHL SUB NOT AND SWAP1 DUP2 PUSH1 0x0 BYTE SWAP1 MSTORE8 POP PUSH1 0x20 DUP14 ADD DUP1 MLOAD SWAP1 PUSH2 0x199B DUP3 PUSH2 0x1E44 JUMP JUMPDEST SWAP1 MSTORE POP PUSH2 0x1917 JUMP JUMPDEST POP PUSH2 0x16CA JUMP JUMPDEST DUP7 DUP13 PUSH1 0x20 ADD DUP2 DUP2 MLOAD PUSH2 0x1776 SWAP2 SWAP1 PUSH2 0x1E05 JUMP JUMPDEST PUSH1 0x0 SWAP9 POP POP POP POP POP POP POP POP POP JUMPDEST SWAP4 SWAP3 POP POP POP JUMP JUMPDEST PUSH1 0x0 PUSH1 0x60 DUP2 DUP1 DUP1 PUSH2 0x19E3 PUSH1 0x1E PUSH2 0x11E PUSH2 0x1E05 JUMP JUMPDEST PUSH8 0xFFFFFFFFFFFFFFFF DUP2 GT ISZERO PUSH2 0x19FB JUMPI PUSH2 0x19FB PUSH2 0x1DD9 JUMP JUMPDEST PUSH1 0x40 MLOAD SWAP1 DUP1 DUP3 MSTORE DUP1 PUSH1 0x20 MUL PUSH1 0x20 ADD DUP3 ADD PUSH1 0x40 MSTORE DUP1 ISZERO PUSH2 0x1A24 JUMPI DUP2 PUSH1 0x20 ADD PUSH1 0x20 DUP3 MUL DUP1 CALLDATASIZE DUP4 CALLDATACOPY ADD SWAP1 POP JUMPDEST POP PUSH1 0x40 DUP1 MLOAD PUSH2 0x260 DUP2 ADD DUP3 MSTORE PUSH1 0x10 DUP2 MSTORE PUSH1 0x11 PUSH1 0x20 DUP3 ADD MSTORE PUSH1 0x12 SWAP2 DUP2 ADD SWAP2 SWAP1 SWAP2 MSTORE PUSH1 0x0 PUSH1 0x60 DUP3 ADD DUP2 SWAP1 MSTORE PUSH1 0x8 PUSH1 0x80 DUP4 ADD MSTORE PUSH1 0x7 PUSH1 0xA0 DUP4 ADD MSTORE PUSH1 0x9 PUSH1 0xC0 DUP4 ADD MSTORE PUSH1 0x6 PUSH1 0xE0 DUP4 ADD MSTORE PUSH1 0xA PUSH2 0x100 DUP4 ADD MSTORE PUSH1 0x5 PUSH2 0x120 DUP4 ADD MSTORE PUSH1 0xB PUSH2 0x140 DUP4 ADD MSTORE PUSH1 0x4 PUSH2 0x160 DUP4 ADD DUP2 SWAP1 MSTORE PUSH1 0xC PUSH2 0x180 DUP5 ADD MSTORE PUSH1 0x3 PUSH2 0x1A0 DUP5 ADD MSTORE PUSH1 0xD PUSH2 0x1C0 DUP5 ADD MSTORE PUSH1 0x2 PUSH2 0x1E0 DUP5 ADD MSTORE PUSH1 0xE PUSH2 0x200 DUP5 ADD MSTORE PUSH1 0x1 PUSH2 0x220 DUP5 ADD MSTORE PUSH1 0xF PUSH2 0x240 DUP5 ADD MSTORE SWAP3 SWAP4 POP SWAP2 PUSH2 0x1AD2 SWAP1 DUP10 SWAP1 PUSH2 0x4C5 JUMP JUMPDEST SWAP6 POP SWAP2 POP PUSH1 0x0 DUP3 PUSH1 0xE DUP2 GT ISZERO PUSH2 0x1AEA JUMPI PUSH2 0x1AEA PUSH2 0x1E18 JUMP JUMPDEST EQ PUSH2 0x1AFB JUMPI POP SWAP7 SWAP1 SWAP6 POP SWAP4 POP POP POP POP JUMP JUMPDEST PUSH2 0x1B06 PUSH1 0x4 DUP7 PUSH2 0x1E05 JUMP JUMPDEST SWAP5 POP PUSH1 0x0 SWAP4 POP JUMPDEST DUP5 DUP5 LT ISZERO PUSH2 0x1B88 JUMPI PUSH2 0x1B20 DUP9 PUSH1 0x3 PUSH2 0x4C5 JUMP JUMPDEST DUP5 DUP4 DUP8 PUSH1 0x13 DUP2 LT PUSH2 0x1B33 JUMPI PUSH2 0x1B33 PUSH2 0x1E2E JUMP JUMPDEST PUSH1 0x20 MUL ADD MLOAD PUSH1 0xFF AND DUP2 MLOAD DUP2 LT PUSH2 0x1B4B JUMPI PUSH2 0x1B4B PUSH2 0x1E2E JUMP JUMPDEST PUSH1 0x20 SWAP1 DUP2 MUL SWAP2 SWAP1 SWAP2 ADD ADD MSTORE SWAP2 POP PUSH1 0x0 DUP3 PUSH1 0xE DUP2 GT ISZERO PUSH2 0x1B6C JUMPI PUSH2 0x1B6C PUSH2 0x1E18 JUMP JUMPDEST EQ PUSH2 0x1B7D JUMPI POP SWAP7 SWAP1 SWAP6 POP SWAP4 POP POP POP POP JUMP JUMPDEST PUSH1 0x1 SWAP1 SWAP4 ADD SWAP3 PUSH2 0x1B0D JUMP JUMPDEST PUSH1 0x13 DUP5 LT ISZERO PUSH2 0x1BD4 JUMPI PUSH1 0x0 DUP4 DUP3 DUP7 PUSH1 0x13 DUP2 LT PUSH2 0x1BA6 JUMPI PUSH2 0x1BA6 PUSH2 0x1E2E JUMP JUMPDEST PUSH1 0x20 MUL ADD MLOAD PUSH1 0xFF AND DUP2 MLOAD DUP2 LT PUSH2 0x1BBE JUMPI PUSH2 0x1BBE PUSH2 0x1E2E JUMP JUMPDEST PUSH1 0x20 SWAP1 DUP2 MUL SWAP2 SWAP1 SWAP2 ADD ADD MSTORE PUSH1 0x1 SWAP1 SWAP4 ADD SWAP3 PUSH2 0x1B88 JUMP JUMPDEST POP PUSH1 0x0 SWAP8 SWAP2 SWAP7 POP SWAP1 SWAP5 POP POP POP POP POP JUMP JUMPDEST PUSH1 0x0 DUP1 PUSH1 0x1 DUP2 DUP1 DUP1 DUP1 DUP1 JUMPDEST PUSH1 0xF DUP7 GT PUSH2 0x1CE0 JUMPI PUSH1 0x0 PUSH2 0x1C04 DUP12 PUSH1 0x1 PUSH2 0x4C5 JUMP JUMPDEST SWAP1 SWAP3 POP SWAP1 POP PUSH1 0x0 DUP3 PUSH1 0xE DUP2 GT ISZERO PUSH2 0x1C1D JUMPI PUSH2 0x1C1D PUSH2 0x1E18 JUMP JUMPDEST EQ PUSH2 0x1C34 JUMPI POP SWAP7 POP PUSH1 0x0 SWAP6 POP PUSH2 0x591 SWAP5 POP POP POP POP POP JUMP JUMPDEST DUP10 MLOAD DUP1 MLOAD SWAP7 DUP3 OR SWAP7 DUP9 SWAP1 DUP2 LT PUSH2 0x1C4C JUMPI PUSH2 0x1C4C PUSH2 0x1E2E JUMP JUMPDEST PUSH1 0x20 MUL PUSH1 0x20 ADD ADD MLOAD SWAP4 POP DUP4 DUP6 PUSH2 0x1C62 SWAP2 SWAP1 PUSH2 0x1E05 JUMP JUMPDEST DUP7 LT ISZERO PUSH2 0x1CAD JUMPI PUSH1 0x20 DUP11 ADD MLOAD PUSH1 0x0 SWAP1 PUSH2 0x1C7B DUP8 DUP10 PUSH2 0x1E5D JUMP JUMPDEST PUSH2 0x1C85 SWAP1 DUP7 PUSH2 0x1E05 JUMP JUMPDEST DUP2 MLOAD DUP2 LT PUSH2 0x1C95 JUMPI PUSH2 0x1C95 PUSH2 0x1E2E JUMP JUMPDEST PUSH1 0x20 MUL PUSH1 0x20 ADD ADD MLOAD SWAP9 POP SWAP9 POP POP POP POP POP POP POP POP PUSH2 0x591 JUMP JUMPDEST PUSH2 0x1CB7 DUP5 DUP5 PUSH2 0x1E05 JUMP JUMPDEST SWAP3 POP PUSH2 0x1CC3 DUP5 DUP7 PUSH2 0x1E05 JUMP JUMPDEST PUSH1 0x1 SWAP7 DUP8 SHL SWAP7 SHL SWAP5 POP DUP7 SWAP1 POP PUSH2 0x1CD8 DUP2 PUSH2 0x1E44 JUMP JUMPDEST SWAP7 POP POP PUSH2 0x1BEF JUMP JUMPDEST POP PUSH1 0xC SWAP10 PUSH1 0x0 SWAP10 POP SWAP8 POP POP POP POP POP POP POP POP JUMP JUMPDEST PUSH1 0x40 MLOAD DUP1 PUSH2 0x200 ADD PUSH1 0x40 MSTORE DUP1 PUSH1 0x10 SWAP1 PUSH1 0x20 DUP3 MUL DUP1 CALLDATASIZE DUP4 CALLDATACOPY POP SWAP2 SWAP3 SWAP2 POP POP JUMP JUMPDEST PUSH1 0x0 DUP1 PUSH1 0x0 PUSH1 0x40 DUP5 DUP7 SUB SLT ISZERO PUSH2 0x1D27 JUMPI PUSH1 0x0 DUP1 REVERT JUMPDEST DUP4 CALLDATALOAD PUSH8 0xFFFFFFFFFFFFFFFF DUP1 DUP3 GT ISZERO PUSH2 0x1D3F JUMPI PUSH1 0x0 DUP1 REVERT JUMPDEST DUP2 DUP7 ADD SWAP2 POP DUP7 PUSH1 0x1F DUP4 ADD SLT PUSH2 0x1D53 JUMPI PUSH1 0x0 DUP1 REVERT JUMPDEST DUP2 CALLDATALOAD DUP2 DUP2 GT ISZERO PUSH2 0x1D62 JUMPI PUSH1 0x0 DUP1 REVERT JUMPDEST DUP8 PUSH1 0x20 DUP3 DUP6 ADD ADD GT ISZERO PUSH2 0x1D74 JUMPI PUSH1 0x0 DUP1 REVERT JUMPDEST PUSH1 0x20 SWAP3 DUP4 ADD SWAP9 SWAP1 SWAP8 POP SWAP6 SWAP1 SWAP2 ADD CALLDATALOAD SWAP5 SWAP4 POP POP POP POP JUMP JUMPDEST PUSH1 0x0 PUSH1 0x20 DUP1 DUP4 MSTORE DUP4 MLOAD DUP1 PUSH1 0x20 DUP6 ADD MSTORE PUSH1 0x0 JUMPDEST DUP2 DUP2 LT ISZERO PUSH2 0x1DB8 JUMPI DUP6 DUP2 ADD DUP4 ADD MLOAD DUP6 DUP3 ADD PUSH1 0x40 ADD MSTORE DUP3 ADD PUSH2 0x1D9C JUMP JUMPDEST POP PUSH1 0x0 PUSH1 0x40 DUP3 DUP7 ADD ADD MSTORE PUSH1 0x40 PUSH1 0x1F NOT PUSH1 0x1F DUP4 ADD AND DUP6 ADD ADD SWAP3 POP POP POP SWAP3 SWAP2 POP POP JUMP JUMPDEST PUSH4 0x4E487B71 PUSH1 0xE0 SHL PUSH1 0x0 MSTORE PUSH1 0x41 PUSH1 0x4 MSTORE PUSH1 0x24 PUSH1 0x0 REVERT JUMPDEST PUSH4 0x4E487B71 PUSH1 0xE0 SHL PUSH1 0x0 MSTORE PUSH1 0x11 PUSH1 0x4 MSTORE PUSH1 0x24 PUSH1 0x0 REVERT JUMPDEST DUP1 DUP3 ADD DUP1 DUP3 GT ISZERO PUSH2 0x61E JUMPI PUSH2 0x61E PUSH2 0x1DEF JUMP JUMPDEST PUSH4 0x4E487B71 PUSH1 0xE0 SHL PUSH1 0x0 MSTORE PUSH1 0x21 PUSH1 0x4 MSTORE PUSH1 0x24 PUSH1 0x0 REVERT JUMPDEST PUSH4 0x4E487B71 PUSH1 0xE0 SHL PUSH1 0x0 MSTORE PUSH1 0x32 PUSH1 0x4 MSTORE PUSH1 0x24 PUSH1 0x0 REVERT JUMPDEST PUSH1 0x0 PUSH1 0x1 DUP3 ADD PUSH2 0x1E56 JUMPI PUSH2 0x1E56 PUSH2 0x1DEF JUMP JUMPDEST POP PUSH1 0x1 ADD SWAP1 JUMP JUMPDEST DUP2 DUP2 SUB DUP2 DUP2 GT ISZERO PUSH2 0x61E JUMPI PUSH2 0x61E PUSH2 0x1DEF JUMP INVALID LOG2 PUSH5 0x6970667358 0x22 SLT KECCAK256 0x2D SELFDESTRUCT PUSH19 0xEE7F8CA0A1A785B050F408C44ACE3F0BACF086 PUSH30 0xEAB28D0B2212DAA94C64736F6C6343000817003300000000000000000000 "},"methodIdentifiers":{"puffEncode(bytes,uint256)":"7c785866"}}}}}