{"src/RLPLib.sol":{"RLPLib":{"abi":[{"inputs":[{"internalType":"bytes","name":"item","type":"bytes"}],"name":"bytesToString","outputs":[{"internalType":"string","name":"","type":"string"}],"stateMutability":"pure","type":"function"},{"inputs":[{"internalType":"bytes","name":"item","type":"bytes"}],"name":"customDestructure","outputs":[{"internalType":"address","name":"","type":"address"},{"internalType":"bool","name":"","type":"bool"},{"internalType":"uint256","name":"","type":"uint256"}],"stateMutability":"pure","type":"function"},{"inputs":[{"internalType":"bytes","name":"item","type":"bytes"}],"name":"customNestedDestructure","outputs":[{"internalType":"address","name":"","type":"address"},{"internalType":"uint256","name":"","type":"uint256"}],"stateMutability":"pure","type":"function"},{"inputs":[{"internalType":"bytes","name":"item","type":"bytes"}],"name":"customNestedDestructureKeccak","outputs":[{"internalType":"bytes32","name":"","type":"bytes32"},{"internalType":"bytes32","name":"","type":"bytes32"}],"stateMutability":"pure","type":"function"},{"inputs":[{"internalType":"bytes","name":"item","type":"bytes"}],"name":"customNestedToRlpBytes","outputs":[{"internalType":"bytes","name":"","type":"bytes"}],"stateMutability":"pure","type":"function"},{"inputs":[{"internalType":"bytes","name":"item","type":"bytes"}],"name":"isList","outputs":[{"internalType":"bool","name":"","type":"bool"}],"stateMutability":"pure","type":"function"},{"inputs":[{"internalType":"bytes","name":"item","type":"bytes"}],"name":"itemLength","outputs":[{"internalType":"uint256","name":"","type":"uint256"}],"stateMutability":"pure","type":"function"},{"inputs":[{"internalType":"bytes","name":"item","type":"bytes"}],"name":"nestedIteration","outputs":[{"internalType":"string","name":"","type":"string"}],"stateMutability":"pure","type":"function"},{"inputs":[{"internalType":"bytes","name":"item","type":"bytes"}],"name":"numItems","outputs":[{"internalType":"uint256","name":"","type":"uint256"}],"stateMutability":"pure","type":"function"},{"inputs":[{"internalType":"bytes","name":"item","type":"bytes"}],"name":"payloadKeccak256","outputs":[{"internalType":"bytes32","name":"","type":"bytes32"}],"stateMutability":"pure","type":"function"},{"inputs":[{"internalType":"bytes","name":"item","type":"bytes"}],"name":"payloadLocation","outputs":[{"internalType":"uint256","name":"payloadMemPtr","type":"uint256"},{"internalType":"uint256","name":"payloadLen","type":"uint256"},{"internalType":"uint256","name":"itemMemPtr","type":"uint256"}],"stateMutability":"pure","type":"function"},{"inputs":[{"internalType":"bytes","name":"item","type":"bytes"}],"name":"rlpBytesKeccak256","outputs":[{"internalType":"bytes32","name":"","type":"bytes32"}],"stateMutability":"pure","type":"function"},{"inputs":[{"internalType":"bytes","name":"item","type":"bytes"}],"name":"rlpEncode","outputs":[{"internalType":"bytes","name":"","type":"bytes"}],"stateMutability":"pure","type":"function"},{"inputs":[{"internalType":"bytes","name":"item","type":"bytes"}],"name":"rlpLen","outputs":[{"internalType":"uint256","name":"","type":"uint256"}],"stateMutability":"pure","type":"function"},{"inputs":[{"internalType":"bytes","name":"item","type":"bytes"}],"name":"toAddress","outputs":[{"internalType":"address","name":"","type":"address"}],"stateMutability":"pure","type":"function"},{"inputs":[{"internalType":"bytes","name":"rlpHeader","type":"bytes"}],"name":"toBlockHeader","outputs":[{"internalType":"bytes32","name":"parentHash","type":"bytes32"},{"internalType":"bytes32","name":"sha3Uncles","type":"bytes32"},{"internalType":"bytes32","name":"stateRoot","type":"bytes32"},{"internalType":"bytes32","name":"transactionsRoot","type":"bytes32"},{"internalType":"bytes32","name":"receiptsRoot","type":"bytes32"},{"internalType":"uint256","name":"difficulty","type":"uint256"},{"internalType":"uint256","name":"number","type":"uint256"},{"internalType":"uint256","name":"gasLimit","type":"uint256"},{"internalType":"uint256","name":"gasUsed","type":"uint256"},{"internalType":"uint256","name":"timestamp","type":"uint256"},{"internalType":"uint256","name":"nonce","type":"uint256"}],"stateMutability":"pure","type":"function"},{"inputs":[{"internalType":"bytes","name":"item","type":"bytes"}],"name":"toBoolean","outputs":[{"internalType":"bool","name":"","type":"bool"}],"stateMutability":"pure","type":"function"},{"inputs":[{"internalType":"bytes","name":"item","type":"bytes"}],"name":"toBytes","outputs":[{"internalType":"bytes","name":"","type":"bytes"}],"stateMutability":"pure","type":"function"},{"inputs":[{"internalType":"bytes","name":"item","type":"bytes"}],"name":"toIterator","outputs":[],"stateMutability":"pure","type":"function"},{"inputs":[{"internalType":"bytes","name":"item","type":"bytes"}],"name":"toRlpBytes","outputs":[{"internalType":"bytes","name":"","type":"bytes"}],"stateMutability":"pure","type":"function"},{"inputs":[{"internalType":"bytes","name":"item","type":"bytes"}],"name":"toUint","outputs":[{"internalType":"uint256","name":"","type":"uint256"}],"stateMutability":"pure","type":"function"},{"inputs":[{"internalType":"bytes","name":"item","type":"bytes"}],"name":"toUintStrict","outputs":[{"internalType":"uint256","name":"","type":"uint256"}],"stateMutability":"pure","type":"function"}],"evm":{"bytecode":{"linkReferences":{},"object":"61124a61003a600b82828239805160001a60731461002d57634e487b7160e01b600052600060045260246000fd5b30600052607381538281f3fe730000000000000000000000000000000000000000301460806040526004361061014c5760003560e01c806376193f8c116100c2578063d03ca5a311610086578063d03ca5a31461032a578063dd208ea11461033f578063e7617bf814610352578063e79fbcec14610262578063eb4eb372146103b8578063f29cddc0146103cb57600080fd5b806376193f8c146102de5780638109672f146102f15780638529d57614610304578063aac1954514610317578063b166d1931461026257600080fd5b80632d888869116101145780632d8888691461021757806333c82d181461024257806339614e4f1461026257806345fce4f91461027557806364ea1929146102a357806374c4c494146102cb57600080fd5b806304ba342714610151578063059a97fb1461017957806315943cb6146101b157806319921bd0146101e357806320f91849146101f6575b600080fd5b61016461015f366004610f96565b6103de565b60405190151581526020015b60405180910390f35b61018c610187366004610f96565b6103fc565b604080516001600160a01b039094168452911515602084015290820152606001610170565b6101c46101bf366004610f96565b61048c565b604080516001600160a01b039093168352602083019190915201610170565b6101646101f1366004610f96565b6104fa565b610209610204366004610f96565b610511565b604051908152602001610170565b61022a610225366004610f96565b610528565b6040516001600160a01b039091168152602001610170565b610255610250366004610f96565b61053f565b604051610170919061108d565b610255610270366004610f96565b610557565b610288610283366004610f96565b61056f565b60408051938452602084019290925290820152606001610170565b6102b66102b1366004610f96565b6105a2565b60408051928352602083019190915201610170565b6102556102d9366004610f96565b610606565b6102556102ec366004610f96565b61063b565b6102096102ff366004610f96565b6106a5565b610209610312366004610f96565b6106b4565b610209610325366004610f96565b6106cb565b61033d610338366004610f96565b6106e1565b005b61020961034d366004610f96565b6106f1565b610365610360366004610f96565b610708565b604080519b8c5260208c019a909a52988a01979097526060890195909552608088019390935260a087019190915260c086015260e085015261010084015261012083015261014082015261016001610170565b6102096103c6366004610f96565b610895565b6102096103d9366004610f96565b6108ac565b6000806103ea836108c9565b90506103f5816108f6565b9392505050565b60008060008061041361040e866108c9565b610938565b90506104388160008151811061042b5761042b6110a0565b6020026020010151610a44565b61045b8260018151811061044e5761044e6110a0565b60200260200101516108f6565b61047e83600281518110610471576104716110a0565b6020026020010151610a64565b935093509350509193909250565b600080600061049d61040e856108c9565b90506104c2816000815181106104b5576104b56110a0565b6020026020010151610938565b90506104da8160008151811061042b5761042b6110a0565b6104f082600181518110610471576104716110a0565b9250925050915091565b600080610506836108c9565b90506103f581610ab1565b60008061051d836108c9565b90506103f581610ae2565b600080610534836108c9565b90506103f581610a44565b6060600061054c836108c9565b90506103f581610b10565b60606000610564836108c9565b90506103f581610b8f565b60008060008061057e856108c9565b905060008061058c83610c0d565b6020949094015190989397509550919350505050565b60008060006105b361040e856108c9565b90506105cb816000815181106104b5576104b56110a0565b90506105f0816000815181106105e3576105e36110a0565b6020026020010151610c54565b6104f0826001815181106105e3576105e36110a0565b6060600061061661040e846108c9565b90506103f58160008151811061062e5761062e6110a0565b6020026020010151610b10565b6060600061065061064b846108c9565b610c6c565b9050600061066061064b83610cd8565b9050600061067561067083610cd8565b610b8f565b905061068083610d35565b1561068a57600080fd5b61069382610d35565b1561069d57600080fd5b949350505050565b6000602082016103f581610d59565b6000806106c0836108c9565b90506103f581610a64565b6000806106d7836108c9565b90506103f5815190565b6106ed61064b826108c9565b5050565b60008061070061040e846108c9565b519392505050565b60008060008060008060008060008060008061072661064b8e6108c9565b905060005b61073482610d35565b1561088457806000036107595761075261074d83610cd8565b610a64565b9c50610872565b806001036107745761076d61074d83610cd8565b9b50610872565b8060030361078f5761078861074d83610cd8565b9a50610872565b806004036107aa576107a361074d83610cd8565b9950610872565b806005036107c5576107be61074d83610cd8565b9850610872565b806007036107e0576107d961074d83610cd8565b9750610872565b806008036107fb576107f461074d83610cd8565b9650610872565b806009036108165761080f61074d83610cd8565b9550610872565b80600a036108315761082a61074d83610cd8565b9450610872565b80600b0361084c5761084561074d83610cd8565b9350610872565b80600e036108675761086061074d83610cd8565b9250610872565b61087082610cd8565b505b8061087c816110cc565b91505061072b565b505091939597999b90929496989a50565b6000806108a1836108c9565b90506103f581610c54565b6000806108b8836108c9565b6020810151815190209091506103f5565b60408051808201825260008082526020918201528151808301909252825182529182019181019190915290565b805160009060011461090757600080fd5b6020820151805160001a9081158061091f5750608082145b1561092e575060009392505050565b5060019392505050565b606061094382610ab1565b61094c57600080fd5b600061095783610dfd565b905060008167ffffffffffffffff81111561097457610974610f80565b6040519080825280602002602001820160405280156109b957816020015b60408051808201909152600080825260208201528152602001906001900390816109925790505b50905060006109cb8560200151610e82565b85602001516109da91906110e5565b90506000805b84811015610a39576109f183610d59565b9150604051806040016040528083815260200184815250848281518110610a1a57610a1a6110a0565b6020908102919091010152610a2f82846110e5565b92506001016109e0565b509195945050505050565b8051600090601514610a5557600080fd5b610a5e82610a64565b92915050565b805160009015801590610a7957508151602110155b610a8257600080fd5b600080610a8e84610c0d565b81519193509150602082101561069d5760208290036101000a9004949350505050565b80516000908103610ac457506000919050565b6020820151805160001a9060c082101561092e575060009392505050565b8051600090602114610af357600080fd5b60008083602001516001610b0791906110e5565b51949350505050565b60606000826000015167ffffffffffffffff811115610b3157610b31610f80565b6040519080825280601f01601f191660200182016040528015610b5b576020820181803683370190505b5090508051600003610b6d5792915050565b6000816020019050610b888460200151828660000151610efd565b5092915050565b8051606090610b9d57600080fd5b600080610ba984610c0d565b9150915060008167ffffffffffffffff811115610bc857610bc8610f80565b6040519080825280601f01601f191660200182016040528015610bf2576020820181803683370190505b50905060208101610c04848285610efd565b50949350505050565b6000806000610c1f8460200151610e82565b90506000818560200151610c3391906110e5565b90506000828660000151610c4791906110f8565b9196919550909350505050565b6000806000610c6284610c0d565b9020949350505050565b6040805160808101825260009181018281526060820183905281526020810191909152610c9882610ab1565b610ca157600080fd5b6000610cb08360200151610e82565b8360200151610cbf91906110e5565b6040805180820190915293845260208401525090919050565b6040805180820190915260008082526020820152610cf582610d35565b610cfe57600080fd5b60208201516000610d0e82610d59565b9050610d1a81836110e5565b60209485015260408051808201909152908152928301525090565b80518051602082015160009291610d4b916110e5565b836020015110915050919050565b80516000908190811a6080811015610d745760019150610b88565b60b8811015610d9a57610d886080826110f8565b610d939060016110e5565b9150610b88565b60c0811015610dc75760b78103600185019450806020036101000a85510460018201810193505050610b88565b60f8811015610ddb57610d8860c0826110f8565b60019390930151602084900360f7016101000a900490920160f5190192915050565b80516000908103610e1057506000919050565b600080610e208460200151610e82565b8460200151610e2f91906110e5565b9050600084600001518560200151610e4791906110e5565b90505b80821015610e7957610e5b82610d59565b610e6590836110e5565b915082610e71816110cc565b935050610e4a565b50909392505050565b8051600090811a6080811015610e9b5750600092915050565b60b8811080610eb6575060c08110801590610eb6575060f881105b15610ec45750600192915050565b60c0811015610ef157610ed9600160b861110b565b610ee69060ff16826110f8565b6103f59060016110e5565b610ed9600160f861110b565b80600003610f0a57505050565b60208110610f425782518252610f216020846110e5565b9250610f2e6020836110e5565b9150610f3b6020826110f8565b9050610f0a565b8015610f7b5760006001610f578360206110f8565b610f6390610100611208565b610f6d91906110f8565b845184518216911916178352505b505050565b634e487b7160e01b600052604160045260246000fd5b600060208284031215610fa857600080fd5b813567ffffffffffffffff80821115610fc057600080fd5b818401915084601f830112610fd457600080fd5b813581811115610fe657610fe6610f80565b604051601f8201601f19908116603f0116810190838211818310171561100e5761100e610f80565b8160405282815287602084870101111561102757600080fd5b826020860160208301376000928101602001929092525095945050505050565b6000815180845260005b8181101561106d57602081850181015186830182015201611051565b506000602082860101526020601f19601f83011685010191505092915050565b6020815260006103f56020830184611047565b634e487b7160e01b600052603260045260246000fd5b634e487b7160e01b600052601160045260246000fd5b6000600182016110de576110de6110b6565b5060010190565b80820180821115610a5e57610a5e6110b6565b81810381811115610a5e57610a5e6110b6565b60ff8281168282160390811115610a5e57610a5e6110b6565b600181815b8085111561115f578160001904821115611145576111456110b6565b8085161561115257918102915b93841c9390800290611129565b509250929050565b60008261117657506001610a5e565b8161118357506000610a5e565b816001811461119957600281146111a3576111bf565b6001915050610a5e565b60ff8411156111b4576111b46110b6565b50506001821b610a5e565b5060208310610133831016604e8410600b84101617156111e2575081810a610a5e565b6111ec8383611124565b8060001904821115611200576112006110b6565b029392505050565b60006103f5838361116756fea264697066735822122018f7faf54637fa8ca28c76891fb064e87ce978c600f3e293f3191d004adbb68964736f6c63430008170033","opcodes":"PUSH2 0x124A PUSH2 0x3A PUSH1 0xB DUP3 DUP3 DUP3 CODECOPY DUP1 MLOAD PUSH1 0x0 BYTE PUSH1 0x73 EQ PUSH2 0x2D JUMPI PUSH4 0x4E487B71 PUSH1 0xE0 SHL PUSH1 0x0 MSTORE PUSH1 0x0 PUSH1 0x4 MSTORE PUSH1 0x24 PUSH1 0x0 REVERT JUMPDEST ADDRESS PUSH1 0x0 MSTORE PUSH1 0x73 DUP2 MSTORE8 DUP3 DUP2 RETURN INVALID PUSH20 0x0 ADDRESS EQ PUSH1 0x80 PUSH1 0x40 MSTORE PUSH1 0x4 CALLDATASIZE LT PUSH2 0x14C JUMPI PUSH1 0x0 CALLDATALOAD PUSH1 0xE0 SHR DUP1 PUSH4 0x76193F8C GT PUSH2 0xC2 JUMPI DUP1 PUSH4 0xD03CA5A3 GT PUSH2 0x86 JUMPI DUP1 PUSH4 0xD03CA5A3 EQ PUSH2 0x32A JUMPI DUP1 PUSH4 0xDD208EA1 EQ PUSH2 0x33F JUMPI DUP1 PUSH4 0xE7617BF8 EQ PUSH2 0x352 JUMPI DUP1 PUSH4 0xE79FBCEC EQ PUSH2 0x262 JUMPI DUP1 PUSH4 0xEB4EB372 EQ PUSH2 0x3B8 JUMPI DUP1 PUSH4 0xF29CDDC0 EQ PUSH2 0x3CB JUMPI PUSH1 0x0 DUP1 REVERT JUMPDEST DUP1 PUSH4 0x76193F8C EQ PUSH2 0x2DE JUMPI DUP1 PUSH4 0x8109672F EQ PUSH2 0x2F1 JUMPI DUP1 PUSH4 0x8529D576 EQ PUSH2 0x304 JUMPI DUP1 PUSH4 0xAAC19545 EQ PUSH2 0x317 JUMPI DUP1 PUSH4 0xB166D193 EQ PUSH2 0x262 JUMPI PUSH1 0x0 DUP1 REVERT JUMPDEST DUP1 PUSH4 0x2D888869 GT PUSH2 0x114 JUMPI DUP1 PUSH4 0x2D888869 EQ PUSH2 0x217 JUMPI DUP1 PUSH4 0x33C82D18 EQ PUSH2 0x242 JUMPI DUP1 PUSH4 0x39614E4F EQ PUSH2 0x262 JUMPI DUP1 PUSH4 0x45FCE4F9 EQ PUSH2 0x275 JUMPI DUP1 PUSH4 0x64EA1929 EQ PUSH2 0x2A3 JUMPI DUP1 PUSH4 0x74C4C494 EQ PUSH2 0x2CB JUMPI PUSH1 0x0 DUP1 REVERT JUMPDEST DUP1 PUSH4 0x4BA3427 EQ PUSH2 0x151 JUMPI DUP1 PUSH4 0x59A97FB EQ PUSH2 0x179 JUMPI DUP1 PUSH4 0x15943CB6 EQ PUSH2 0x1B1 JUMPI DUP1 PUSH4 0x19921BD0 EQ PUSH2 0x1E3 JUMPI DUP1 PUSH4 0x20F91849 EQ PUSH2 0x1F6 JUMPI JUMPDEST PUSH1 0x0 DUP1 REVERT JUMPDEST PUSH2 0x164 PUSH2 0x15F CALLDATASIZE PUSH1 0x4 PUSH2 0xF96 JUMP JUMPDEST PUSH2 0x3DE JUMP JUMPDEST PUSH1 0x40 MLOAD SWAP1 ISZERO ISZERO DUP2 MSTORE PUSH1 0x20 ADD JUMPDEST PUSH1 0x40 MLOAD DUP1 SWAP2 SUB SWAP1 RETURN JUMPDEST PUSH2 0x18C PUSH2 0x187 CALLDATASIZE PUSH1 0x4 PUSH2 0xF96 JUMP JUMPDEST PUSH2 0x3FC JUMP JUMPDEST PUSH1 0x40 DUP1 MLOAD PUSH1 0x1 PUSH1 0x1 PUSH1 0xA0 SHL SUB SWAP1 SWAP5 AND DUP5 MSTORE SWAP2 ISZERO ISZERO PUSH1 0x20 DUP5 ADD MSTORE SWAP1 DUP3 ADD MSTORE PUSH1 0x60 ADD PUSH2 0x170 JUMP JUMPDEST PUSH2 0x1C4 PUSH2 0x1BF CALLDATASIZE PUSH1 0x4 PUSH2 0xF96 JUMP JUMPDEST PUSH2 0x48C JUMP JUMPDEST PUSH1 0x40 DUP1 MLOAD PUSH1 0x1 PUSH1 0x1 PUSH1 0xA0 SHL SUB SWAP1 SWAP4 AND DUP4 MSTORE PUSH1 0x20 DUP4 ADD SWAP2 SWAP1 SWAP2 MSTORE ADD PUSH2 0x170 JUMP JUMPDEST PUSH2 0x164 PUSH2 0x1F1 CALLDATASIZE PUSH1 0x4 PUSH2 0xF96 JUMP JUMPDEST PUSH2 0x4FA JUMP JUMPDEST PUSH2 0x209 PUSH2 0x204 CALLDATASIZE PUSH1 0x4 PUSH2 0xF96 JUMP JUMPDEST PUSH2 0x511 JUMP JUMPDEST PUSH1 0x40 MLOAD SWAP1 DUP2 MSTORE PUSH1 0x20 ADD PUSH2 0x170 JUMP JUMPDEST PUSH2 0x22A PUSH2 0x225 CALLDATASIZE PUSH1 0x4 PUSH2 0xF96 JUMP JUMPDEST PUSH2 0x528 JUMP JUMPDEST PUSH1 0x40 MLOAD PUSH1 0x1 PUSH1 0x1 PUSH1 0xA0 SHL SUB SWAP1 SWAP2 AND DUP2 MSTORE PUSH1 0x20 ADD PUSH2 0x170 JUMP JUMPDEST PUSH2 0x255 PUSH2 0x250 CALLDATASIZE PUSH1 0x4 PUSH2 0xF96 JUMP JUMPDEST PUSH2 0x53F JUMP JUMPDEST PUSH1 0x40 MLOAD PUSH2 0x170 SWAP2 SWAP1 PUSH2 0x108D JUMP JUMPDEST PUSH2 0x255 PUSH2 0x270 CALLDATASIZE PUSH1 0x4 PUSH2 0xF96 JUMP JUMPDEST PUSH2 0x557 JUMP JUMPDEST PUSH2 0x288 PUSH2 0x283 CALLDATASIZE PUSH1 0x4 PUSH2 0xF96 JUMP JUMPDEST PUSH2 0x56F JUMP JUMPDEST PUSH1 0x40 DUP1 MLOAD SWAP4 DUP5 MSTORE PUSH1 0x20 DUP5 ADD SWAP3 SWAP1 SWAP3 MSTORE SWAP1 DUP3 ADD MSTORE PUSH1 0x60 ADD PUSH2 0x170 JUMP JUMPDEST PUSH2 0x2B6 PUSH2 0x2B1 CALLDATASIZE PUSH1 0x4 PUSH2 0xF96 JUMP JUMPDEST PUSH2 0x5A2 JUMP JUMPDEST PUSH1 0x40 DUP1 MLOAD SWAP3 DUP4 MSTORE PUSH1 0x20 DUP4 ADD SWAP2 SWAP1 SWAP2 MSTORE ADD PUSH2 0x170 JUMP JUMPDEST PUSH2 0x255 PUSH2 0x2D9 CALLDATASIZE PUSH1 0x4 PUSH2 0xF96 JUMP JUMPDEST PUSH2 0x606 JUMP JUMPDEST PUSH2 0x255 PUSH2 0x2EC CALLDATASIZE PUSH1 0x4 PUSH2 0xF96 JUMP JUMPDEST PUSH2 0x63B JUMP JUMPDEST PUSH2 0x209 PUSH2 0x2FF CALLDATASIZE PUSH1 0x4 PUSH2 0xF96 JUMP JUMPDEST PUSH2 0x6A5 JUMP JUMPDEST PUSH2 0x209 PUSH2 0x312 CALLDATASIZE PUSH1 0x4 PUSH2 0xF96 JUMP JUMPDEST PUSH2 0x6B4 JUMP JUMPDEST PUSH2 0x209 PUSH2 0x325 CALLDATASIZE PUSH1 0x4 PUSH2 0xF96 JUMP JUMPDEST PUSH2 0x6CB JUMP JUMPDEST PUSH2 0x33D PUSH2 0x338 CALLDATASIZE PUSH1 0x4 PUSH2 0xF96 JUMP JUMPDEST PUSH2 0x6E1 JUMP JUMPDEST STOP JUMPDEST PUSH2 0x209 PUSH2 0x34D CALLDATASIZE PUSH1 0x4 PUSH2 0xF96 JUMP JUMPDEST PUSH2 0x6F1 JUMP JUMPDEST PUSH2 0x365 PUSH2 0x360 CALLDATASIZE PUSH1 0x4 PUSH2 0xF96 JUMP JUMPDEST PUSH2 0x708 JUMP JUMPDEST PUSH1 0x40 DUP1 MLOAD SWAP12 DUP13 MSTORE PUSH1 0x20 DUP13 ADD SWAP11 SWAP1 SWAP11 MSTORE SWAP9 DUP11 ADD SWAP8 SWAP1 SWAP8 MSTORE PUSH1 0x60 DUP10 ADD SWAP6 SWAP1 SWAP6 MSTORE PUSH1 0x80 DUP9 ADD SWAP4 SWAP1 SWAP4 MSTORE PUSH1 0xA0 DUP8 ADD SWAP2 SWAP1 SWAP2 MSTORE PUSH1 0xC0 DUP7 ADD MSTORE PUSH1 0xE0 DUP6 ADD MSTORE PUSH2 0x100 DUP5 ADD MSTORE PUSH2 0x120 DUP4 ADD MSTORE PUSH2 0x140 DUP3 ADD MSTORE PUSH2 0x160 ADD PUSH2 0x170 JUMP JUMPDEST PUSH2 0x209 PUSH2 0x3C6 CALLDATASIZE PUSH1 0x4 PUSH2 0xF96 JUMP JUMPDEST PUSH2 0x895 JUMP JUMPDEST PUSH2 0x209 PUSH2 0x3D9 CALLDATASIZE PUSH1 0x4 PUSH2 0xF96 JUMP JUMPDEST PUSH2 0x8AC JUMP JUMPDEST PUSH1 0x0 DUP1 PUSH2 0x3EA DUP4 PUSH2 0x8C9 JUMP JUMPDEST SWAP1 POP PUSH2 0x3F5 DUP2 PUSH2 0x8F6 JUMP JUMPDEST SWAP4 SWAP3 POP POP POP JUMP JUMPDEST PUSH1 0x0 DUP1 PUSH1 0x0 DUP1 PUSH2 0x413 PUSH2 0x40E DUP7 PUSH2 0x8C9 JUMP JUMPDEST PUSH2 0x938 JUMP JUMPDEST SWAP1 POP PUSH2 0x438 DUP2 PUSH1 0x0 DUP2 MLOAD DUP2 LT PUSH2 0x42B JUMPI PUSH2 0x42B PUSH2 0x10A0 JUMP JUMPDEST PUSH1 0x20 MUL PUSH1 0x20 ADD ADD MLOAD PUSH2 0xA44 JUMP JUMPDEST PUSH2 0x45B DUP3 PUSH1 0x1 DUP2 MLOAD DUP2 LT PUSH2 0x44E JUMPI PUSH2 0x44E PUSH2 0x10A0 JUMP JUMPDEST PUSH1 0x20 MUL PUSH1 0x20 ADD ADD MLOAD PUSH2 0x8F6 JUMP JUMPDEST PUSH2 0x47E DUP4 PUSH1 0x2 DUP2 MLOAD DUP2 LT PUSH2 0x471 JUMPI PUSH2 0x471 PUSH2 0x10A0 JUMP JUMPDEST PUSH1 0x20 MUL PUSH1 0x20 ADD ADD MLOAD PUSH2 0xA64 JUMP JUMPDEST SWAP4 POP SWAP4 POP SWAP4 POP POP SWAP2 SWAP4 SWAP1 SWAP3 POP JUMP JUMPDEST PUSH1 0x0 DUP1 PUSH1 0x0 PUSH2 0x49D PUSH2 0x40E DUP6 PUSH2 0x8C9 JUMP JUMPDEST SWAP1 POP PUSH2 0x4C2 DUP2 PUSH1 0x0 DUP2 MLOAD DUP2 LT PUSH2 0x4B5 JUMPI PUSH2 0x4B5 PUSH2 0x10A0 JUMP JUMPDEST PUSH1 0x20 MUL PUSH1 0x20 ADD ADD MLOAD PUSH2 0x938 JUMP JUMPDEST SWAP1 POP PUSH2 0x4DA DUP2 PUSH1 0x0 DUP2 MLOAD DUP2 LT PUSH2 0x42B JUMPI PUSH2 0x42B PUSH2 0x10A0 JUMP JUMPDEST PUSH2 0x4F0 DUP3 PUSH1 0x1 DUP2 MLOAD DUP2 LT PUSH2 0x471 JUMPI PUSH2 0x471 PUSH2 0x10A0 JUMP JUMPDEST SWAP3 POP SWAP3 POP POP SWAP2 POP SWAP2 JUMP JUMPDEST PUSH1 0x0 DUP1 PUSH2 0x506 DUP4 PUSH2 0x8C9 JUMP JUMPDEST SWAP1 POP PUSH2 0x3F5 DUP2 PUSH2 0xAB1 JUMP JUMPDEST PUSH1 0x0 DUP1 PUSH2 0x51D DUP4 PUSH2 0x8C9 JUMP JUMPDEST SWAP1 POP PUSH2 0x3F5 DUP2 PUSH2 0xAE2 JUMP JUMPDEST PUSH1 0x0 DUP1 PUSH2 0x534 DUP4 PUSH2 0x8C9 JUMP JUMPDEST SWAP1 POP PUSH2 0x3F5 DUP2 PUSH2 0xA44 JUMP JUMPDEST PUSH1 0x60 PUSH1 0x0 PUSH2 0x54C DUP4 PUSH2 0x8C9 JUMP JUMPDEST SWAP1 POP PUSH2 0x3F5 DUP2 PUSH2 0xB10 JUMP JUMPDEST PUSH1 0x60 PUSH1 0x0 PUSH2 0x564 DUP4 PUSH2 0x8C9 JUMP JUMPDEST SWAP1 POP PUSH2 0x3F5 DUP2 PUSH2 0xB8F JUMP JUMPDEST PUSH1 0x0 DUP1 PUSH1 0x0 DUP1 PUSH2 0x57E DUP6 PUSH2 0x8C9 JUMP JUMPDEST SWAP1 POP PUSH1 0x0 DUP1 PUSH2 0x58C DUP4 PUSH2 0xC0D JUMP JUMPDEST PUSH1 0x20 SWAP5 SWAP1 SWAP5 ADD MLOAD SWAP1 SWAP9 SWAP4 SWAP8 POP SWAP6 POP SWAP2 SWAP4 POP POP POP POP JUMP JUMPDEST PUSH1 0x0 DUP1 PUSH1 0x0 PUSH2 0x5B3 PUSH2 0x40E DUP6 PUSH2 0x8C9 JUMP JUMPDEST SWAP1 POP PUSH2 0x5CB DUP2 PUSH1 0x0 DUP2 MLOAD DUP2 LT PUSH2 0x4B5 JUMPI PUSH2 0x4B5 PUSH2 0x10A0 JUMP JUMPDEST SWAP1 POP PUSH2 0x5F0 DUP2 PUSH1 0x0 DUP2 MLOAD DUP2 LT PUSH2 0x5E3 JUMPI PUSH2 0x5E3 PUSH2 0x10A0 JUMP JUMPDEST PUSH1 0x20 MUL PUSH1 0x20 ADD ADD MLOAD PUSH2 0xC54 JUMP JUMPDEST PUSH2 0x4F0 DUP3 PUSH1 0x1 DUP2 MLOAD DUP2 LT PUSH2 0x5E3 JUMPI PUSH2 0x5E3 PUSH2 0x10A0 JUMP JUMPDEST PUSH1 0x60 PUSH1 0x0 PUSH2 0x616 PUSH2 0x40E DUP5 PUSH2 0x8C9 JUMP JUMPDEST SWAP1 POP PUSH2 0x3F5 DUP2 PUSH1 0x0 DUP2 MLOAD DUP2 LT PUSH2 0x62E JUMPI PUSH2 0x62E PUSH2 0x10A0 JUMP JUMPDEST PUSH1 0x20 MUL PUSH1 0x20 ADD ADD MLOAD PUSH2 0xB10 JUMP JUMPDEST PUSH1 0x60 PUSH1 0x0 PUSH2 0x650 PUSH2 0x64B DUP5 PUSH2 0x8C9 JUMP JUMPDEST PUSH2 0xC6C JUMP JUMPDEST SWAP1 POP PUSH1 0x0 PUSH2 0x660 PUSH2 0x64B DUP4 PUSH2 0xCD8 JUMP JUMPDEST SWAP1 POP PUSH1 0x0 PUSH2 0x675 PUSH2 0x670 DUP4 PUSH2 0xCD8 JUMP JUMPDEST PUSH2 0xB8F JUMP JUMPDEST SWAP1 POP PUSH2 0x680 DUP4 PUSH2 0xD35 JUMP JUMPDEST ISZERO PUSH2 0x68A JUMPI PUSH1 0x0 DUP1 REVERT JUMPDEST PUSH2 0x693 DUP3 PUSH2 0xD35 JUMP JUMPDEST ISZERO PUSH2 0x69D JUMPI PUSH1 0x0 DUP1 REVERT JUMPDEST SWAP5 SWAP4 POP POP POP POP JUMP JUMPDEST PUSH1 0x0 PUSH1 0x20 DUP3 ADD PUSH2 0x3F5 DUP2 PUSH2 0xD59 JUMP JUMPDEST PUSH1 0x0 DUP1 PUSH2 0x6C0 DUP4 PUSH2 0x8C9 JUMP JUMPDEST SWAP1 POP PUSH2 0x3F5 DUP2 PUSH2 0xA64 JUMP JUMPDEST PUSH1 0x0 DUP1 PUSH2 0x6D7 DUP4 PUSH2 0x8C9 JUMP JUMPDEST SWAP1 POP PUSH2 0x3F5 DUP2 MLOAD SWAP1 JUMP JUMPDEST PUSH2 0x6ED PUSH2 0x64B DUP3 PUSH2 0x8C9 JUMP JUMPDEST POP POP JUMP JUMPDEST PUSH1 0x0 DUP1 PUSH2 0x700 PUSH2 0x40E DUP5 PUSH2 0x8C9 JUMP JUMPDEST MLOAD SWAP4 SWAP3 POP POP POP JUMP JUMPDEST PUSH1 0x0 DUP1 PUSH1 0x0 DUP1 PUSH1 0x0 DUP1 PUSH1 0x0 DUP1 PUSH1 0x0 DUP1 PUSH1 0x0 DUP1 PUSH2 0x726 PUSH2 0x64B DUP15 PUSH2 0x8C9 JUMP JUMPDEST SWAP1 POP PUSH1 0x0 JUMPDEST PUSH2 0x734 DUP3 PUSH2 0xD35 JUMP JUMPDEST ISZERO PUSH2 0x884 JUMPI DUP1 PUSH1 0x0 SUB PUSH2 0x759 JUMPI PUSH2 0x752 PUSH2 0x74D DUP4 PUSH2 0xCD8 JUMP JUMPDEST PUSH2 0xA64 JUMP JUMPDEST SWAP13 POP PUSH2 0x872 JUMP JUMPDEST DUP1 PUSH1 0x1 SUB PUSH2 0x774 JUMPI PUSH2 0x76D PUSH2 0x74D DUP4 PUSH2 0xCD8 JUMP JUMPDEST SWAP12 POP PUSH2 0x872 JUMP JUMPDEST DUP1 PUSH1 0x3 SUB PUSH2 0x78F JUMPI PUSH2 0x788 PUSH2 0x74D DUP4 PUSH2 0xCD8 JUMP JUMPDEST SWAP11 POP PUSH2 0x872 JUMP JUMPDEST DUP1 PUSH1 0x4 SUB PUSH2 0x7AA JUMPI PUSH2 0x7A3 PUSH2 0x74D DUP4 PUSH2 0xCD8 JUMP JUMPDEST SWAP10 POP PUSH2 0x872 JUMP JUMPDEST DUP1 PUSH1 0x5 SUB PUSH2 0x7C5 JUMPI PUSH2 0x7BE PUSH2 0x74D DUP4 PUSH2 0xCD8 JUMP JUMPDEST SWAP9 POP PUSH2 0x872 JUMP JUMPDEST DUP1 PUSH1 0x7 SUB PUSH2 0x7E0 JUMPI PUSH2 0x7D9 PUSH2 0x74D DUP4 PUSH2 0xCD8 JUMP JUMPDEST SWAP8 POP PUSH2 0x872 JUMP JUMPDEST DUP1 PUSH1 0x8 SUB PUSH2 0x7FB JUMPI PUSH2 0x7F4 PUSH2 0x74D DUP4 PUSH2 0xCD8 JUMP JUMPDEST SWAP7 POP PUSH2 0x872 JUMP JUMPDEST DUP1 PUSH1 0x9 SUB PUSH2 0x816 JUMPI PUSH2 0x80F PUSH2 0x74D DUP4 PUSH2 0xCD8 JUMP JUMPDEST SWAP6 POP PUSH2 0x872 JUMP JUMPDEST DUP1 PUSH1 0xA SUB PUSH2 0x831 JUMPI PUSH2 0x82A PUSH2 0x74D DUP4 PUSH2 0xCD8 JUMP JUMPDEST SWAP5 POP PUSH2 0x872 JUMP JUMPDEST DUP1 PUSH1 0xB SUB PUSH2 0x84C JUMPI PUSH2 0x845 PUSH2 0x74D DUP4 PUSH2 0xCD8 JUMP JUMPDEST SWAP4 POP PUSH2 0x872 JUMP JUMPDEST DUP1 PUSH1 0xE SUB PUSH2 0x867 JUMPI PUSH2 0x860 PUSH2 0x74D DUP4 PUSH2 0xCD8 JUMP JUMPDEST SWAP3 POP PUSH2 0x872 JUMP JUMPDEST PUSH2 0x870 DUP3 PUSH2 0xCD8 JUMP JUMPDEST POP JUMPDEST DUP1 PUSH2 0x87C DUP2 PUSH2 0x10CC JUMP JUMPDEST SWAP2 POP POP PUSH2 0x72B JUMP JUMPDEST POP POP SWAP2 SWAP4 SWAP6 SWAP8 SWAP10 SWAP12 SWAP1 SWAP3 SWAP5 SWAP7 SWAP9 SWAP11 POP JUMP JUMPDEST PUSH1 0x0 DUP1 PUSH2 0x8A1 DUP4 PUSH2 0x8C9 JUMP JUMPDEST SWAP1 POP PUSH2 0x3F5 DUP2 PUSH2 0xC54 JUMP JUMPDEST PUSH1 0x0 DUP1 PUSH2 0x8B8 DUP4 PUSH2 0x8C9 JUMP JUMPDEST PUSH1 0x20 DUP2 ADD MLOAD DUP2 MLOAD SWAP1 KECCAK256 SWAP1 SWAP2 POP PUSH2 0x3F5 JUMP JUMPDEST PUSH1 0x40 DUP1 MLOAD DUP1 DUP3 ADD DUP3 MSTORE PUSH1 0x0 DUP1 DUP3 MSTORE PUSH1 0x20 SWAP2 DUP3 ADD MSTORE DUP2 MLOAD DUP1 DUP4 ADD SWAP1 SWAP3 MSTORE DUP3 MLOAD DUP3 MSTORE SWAP2 DUP3 ADD SWAP2 DUP2 ADD SWAP2 SWAP1 SWAP2 MSTORE SWAP1 JUMP JUMPDEST DUP1 MLOAD PUSH1 0x0 SWAP1 PUSH1 0x1 EQ PUSH2 0x907 JUMPI PUSH1 0x0 DUP1 REVERT JUMPDEST PUSH1 0x20 DUP3 ADD MLOAD DUP1 MLOAD PUSH1 0x0 BYTE SWAP1 DUP2 ISZERO DUP1 PUSH2 0x91F JUMPI POP PUSH1 0x80 DUP3 EQ JUMPDEST ISZERO PUSH2 0x92E JUMPI POP PUSH1 0x0 SWAP4 SWAP3 POP POP POP JUMP JUMPDEST POP PUSH1 0x1 SWAP4 SWAP3 POP POP POP JUMP JUMPDEST PUSH1 0x60 PUSH2 0x943 DUP3 PUSH2 0xAB1 JUMP JUMPDEST PUSH2 0x94C JUMPI PUSH1 0x0 DUP1 REVERT JUMPDEST PUSH1 0x0 PUSH2 0x957 DUP4 PUSH2 0xDFD JUMP JUMPDEST SWAP1 POP PUSH1 0x0 DUP2 PUSH8 0xFFFFFFFFFFFFFFFF DUP2 GT ISZERO PUSH2 0x974 JUMPI PUSH2 0x974 PUSH2 0xF80 JUMP JUMPDEST PUSH1 0x40 MLOAD SWAP1 DUP1 DUP3 MSTORE DUP1 PUSH1 0x20 MUL PUSH1 0x20 ADD DUP3 ADD PUSH1 0x40 MSTORE DUP1 ISZERO PUSH2 0x9B9 JUMPI DUP2 PUSH1 0x20 ADD JUMPDEST PUSH1 0x40 DUP1 MLOAD DUP1 DUP3 ADD SWAP1 SWAP2 MSTORE PUSH1 0x0 DUP1 DUP3 MSTORE PUSH1 0x20 DUP3 ADD MSTORE DUP2 MSTORE PUSH1 0x20 ADD SWAP1 PUSH1 0x1 SWAP1 SUB SWAP1 DUP2 PUSH2 0x992 JUMPI SWAP1 POP JUMPDEST POP SWAP1 POP PUSH1 0x0 PUSH2 0x9CB DUP6 PUSH1 0x20 ADD MLOAD PUSH2 0xE82 JUMP JUMPDEST DUP6 PUSH1 0x20 ADD MLOAD PUSH2 0x9DA SWAP2 SWAP1 PUSH2 0x10E5 JUMP JUMPDEST SWAP1 POP PUSH1 0x0 DUP1 JUMPDEST DUP5 DUP2 LT ISZERO PUSH2 0xA39 JUMPI PUSH2 0x9F1 DUP4 PUSH2 0xD59 JUMP JUMPDEST SWAP2 POP PUSH1 0x40 MLOAD DUP1 PUSH1 0x40 ADD PUSH1 0x40 MSTORE DUP1 DUP4 DUP2 MSTORE PUSH1 0x20 ADD DUP5 DUP2 MSTORE POP DUP5 DUP3 DUP2 MLOAD DUP2 LT PUSH2 0xA1A JUMPI PUSH2 0xA1A PUSH2 0x10A0 JUMP JUMPDEST PUSH1 0x20 SWAP1 DUP2 MUL SWAP2 SWAP1 SWAP2 ADD ADD MSTORE PUSH2 0xA2F DUP3 DUP5 PUSH2 0x10E5 JUMP JUMPDEST SWAP3 POP PUSH1 0x1 ADD PUSH2 0x9E0 JUMP JUMPDEST POP SWAP2 SWAP6 SWAP5 POP POP POP POP POP JUMP JUMPDEST DUP1 MLOAD PUSH1 0x0 SWAP1 PUSH1 0x15 EQ PUSH2 0xA55 JUMPI PUSH1 0x0 DUP1 REVERT JUMPDEST PUSH2 0xA5E DUP3 PUSH2 0xA64 JUMP JUMPDEST SWAP3 SWAP2 POP POP JUMP JUMPDEST DUP1 MLOAD PUSH1 0x0 SWAP1 ISZERO DUP1 ISZERO SWAP1 PUSH2 0xA79 JUMPI POP DUP2 MLOAD PUSH1 0x21 LT ISZERO JUMPDEST PUSH2 0xA82 JUMPI PUSH1 0x0 DUP1 REVERT JUMPDEST PUSH1 0x0 DUP1 PUSH2 0xA8E DUP5 PUSH2 0xC0D JUMP JUMPDEST DUP2 MLOAD SWAP2 SWAP4 POP SWAP2 POP PUSH1 0x20 DUP3 LT ISZERO PUSH2 0x69D JUMPI PUSH1 0x20 DUP3 SWAP1 SUB PUSH2 0x100 EXP SWAP1 DIV SWAP5 SWAP4 POP POP POP POP JUMP JUMPDEST DUP1 MLOAD PUSH1 0x0 SWAP1 DUP2 SUB PUSH2 0xAC4 JUMPI POP PUSH1 0x0 SWAP2 SWAP1 POP JUMP JUMPDEST PUSH1 0x20 DUP3 ADD MLOAD DUP1 MLOAD PUSH1 0x0 BYTE SWAP1 PUSH1 0xC0 DUP3 LT ISZERO PUSH2 0x92E JUMPI POP PUSH1 0x0 SWAP4 SWAP3 POP POP POP JUMP JUMPDEST DUP1 MLOAD PUSH1 0x0 SWAP1 PUSH1 0x21 EQ PUSH2 0xAF3 JUMPI PUSH1 0x0 DUP1 REVERT JUMPDEST PUSH1 0x0 DUP1 DUP4 PUSH1 0x20 ADD MLOAD PUSH1 0x1 PUSH2 0xB07 SWAP2 SWAP1 PUSH2 0x10E5 JUMP JUMPDEST MLOAD SWAP5 SWAP4 POP POP POP POP JUMP JUMPDEST PUSH1 0x60 PUSH1 0x0 DUP3 PUSH1 0x0 ADD MLOAD PUSH8 0xFFFFFFFFFFFFFFFF DUP2 GT ISZERO PUSH2 0xB31 JUMPI PUSH2 0xB31 PUSH2 0xF80 JUMP JUMPDEST PUSH1 0x40 MLOAD SWAP1 DUP1 DUP3 MSTORE DUP1 PUSH1 0x1F ADD PUSH1 0x1F NOT AND PUSH1 0x20 ADD DUP3 ADD PUSH1 0x40 MSTORE DUP1 ISZERO PUSH2 0xB5B JUMPI PUSH1 0x20 DUP3 ADD DUP2 DUP1 CALLDATASIZE DUP4 CALLDATACOPY ADD SWAP1 POP JUMPDEST POP SWAP1 POP DUP1 MLOAD PUSH1 0x0 SUB PUSH2 0xB6D JUMPI SWAP3 SWAP2 POP POP JUMP JUMPDEST PUSH1 0x0 DUP2 PUSH1 0x20 ADD SWAP1 POP PUSH2 0xB88 DUP5 PUSH1 0x20 ADD MLOAD DUP3 DUP7 PUSH1 0x0 ADD MLOAD PUSH2 0xEFD JUMP JUMPDEST POP SWAP3 SWAP2 POP POP JUMP JUMPDEST DUP1 MLOAD PUSH1 0x60 SWAP1 PUSH2 0xB9D JUMPI PUSH1 0x0 DUP1 REVERT JUMPDEST PUSH1 0x0 DUP1 PUSH2 0xBA9 DUP5 PUSH2 0xC0D JUMP JUMPDEST SWAP2 POP SWAP2 POP PUSH1 0x0 DUP2 PUSH8 0xFFFFFFFFFFFFFFFF DUP2 GT ISZERO PUSH2 0xBC8 JUMPI PUSH2 0xBC8 PUSH2 0xF80 JUMP JUMPDEST PUSH1 0x40 MLOAD SWAP1 DUP1 DUP3 MSTORE DUP1 PUSH1 0x1F ADD PUSH1 0x1F NOT AND PUSH1 0x20 ADD DUP3 ADD PUSH1 0x40 MSTORE DUP1 ISZERO PUSH2 0xBF2 JUMPI PUSH1 0x20 DUP3 ADD DUP2 DUP1 CALLDATASIZE DUP4 CALLDATACOPY ADD SWAP1 POP JUMPDEST POP SWAP1 POP PUSH1 0x20 DUP2 ADD PUSH2 0xC04 DUP5 DUP3 DUP6 PUSH2 0xEFD JUMP JUMPDEST POP SWAP5 SWAP4 POP POP POP POP JUMP JUMPDEST PUSH1 0x0 DUP1 PUSH1 0x0 PUSH2 0xC1F DUP5 PUSH1 0x20 ADD MLOAD PUSH2 0xE82 JUMP JUMPDEST SWAP1 POP PUSH1 0x0 DUP2 DUP6 PUSH1 0x20 ADD MLOAD PUSH2 0xC33 SWAP2 SWAP1 PUSH2 0x10E5 JUMP JUMPDEST SWAP1 POP PUSH1 0x0 DUP3 DUP7 PUSH1 0x0 ADD MLOAD PUSH2 0xC47 SWAP2 SWAP1 PUSH2 0x10F8 JUMP JUMPDEST SWAP2 SWAP7 SWAP2 SWAP6 POP SWAP1 SWAP4 POP POP POP POP JUMP JUMPDEST PUSH1 0x0 DUP1 PUSH1 0x0 PUSH2 0xC62 DUP5 PUSH2 0xC0D JUMP JUMPDEST SWAP1 KECCAK256 SWAP5 SWAP4 POP POP POP POP JUMP JUMPDEST PUSH1 0x40 DUP1 MLOAD PUSH1 0x80 DUP2 ADD DUP3 MSTORE PUSH1 0x0 SWAP2 DUP2 ADD DUP3 DUP2 MSTORE PUSH1 0x60 DUP3 ADD DUP4 SWAP1 MSTORE DUP2 MSTORE PUSH1 0x20 DUP2 ADD SWAP2 SWAP1 SWAP2 MSTORE PUSH2 0xC98 DUP3 PUSH2 0xAB1 JUMP JUMPDEST PUSH2 0xCA1 JUMPI PUSH1 0x0 DUP1 REVERT JUMPDEST PUSH1 0x0 PUSH2 0xCB0 DUP4 PUSH1 0x20 ADD MLOAD PUSH2 0xE82 JUMP JUMPDEST DUP4 PUSH1 0x20 ADD MLOAD PUSH2 0xCBF SWAP2 SWAP1 PUSH2 0x10E5 JUMP JUMPDEST PUSH1 0x40 DUP1 MLOAD DUP1 DUP3 ADD SWAP1 SWAP2 MSTORE SWAP4 DUP5 MSTORE PUSH1 0x20 DUP5 ADD MSTORE POP SWAP1 SWAP2 SWAP1 POP JUMP JUMPDEST PUSH1 0x40 DUP1 MLOAD DUP1 DUP3 ADD SWAP1 SWAP2 MSTORE PUSH1 0x0 DUP1 DUP3 MSTORE PUSH1 0x20 DUP3 ADD MSTORE PUSH2 0xCF5 DUP3 PUSH2 0xD35 JUMP JUMPDEST PUSH2 0xCFE JUMPI PUSH1 0x0 DUP1 REVERT JUMPDEST PUSH1 0x20 DUP3 ADD MLOAD PUSH1 0x0 PUSH2 0xD0E DUP3 PUSH2 0xD59 JUMP JUMPDEST SWAP1 POP PUSH2 0xD1A DUP2 DUP4 PUSH2 0x10E5 JUMP JUMPDEST PUSH1 0x20 SWAP5 DUP6 ADD MSTORE PUSH1 0x40 DUP1 MLOAD DUP1 DUP3 ADD SWAP1 SWAP2 MSTORE SWAP1 DUP2 MSTORE SWAP3 DUP4 ADD MSTORE POP SWAP1 JUMP JUMPDEST DUP1 MLOAD DUP1 MLOAD PUSH1 0x20 DUP3 ADD MLOAD PUSH1 0x0 SWAP3 SWAP2 PUSH2 0xD4B SWAP2 PUSH2 0x10E5 JUMP JUMPDEST DUP4 PUSH1 0x20 ADD MLOAD LT SWAP2 POP POP SWAP2 SWAP1 POP JUMP JUMPDEST DUP1 MLOAD PUSH1 0x0 SWAP1 DUP2 SWAP1 DUP2 BYTE PUSH1 0x80 DUP2 LT ISZERO PUSH2 0xD74 JUMPI PUSH1 0x1 SWAP2 POP PUSH2 0xB88 JUMP JUMPDEST PUSH1 0xB8 DUP2 LT ISZERO PUSH2 0xD9A JUMPI PUSH2 0xD88 PUSH1 0x80 DUP3 PUSH2 0x10F8 JUMP JUMPDEST PUSH2 0xD93 SWAP1 PUSH1 0x1 PUSH2 0x10E5 JUMP JUMPDEST SWAP2 POP PUSH2 0xB88 JUMP JUMPDEST PUSH1 0xC0 DUP2 LT ISZERO PUSH2 0xDC7 JUMPI PUSH1 0xB7 DUP2 SUB PUSH1 0x1 DUP6 ADD SWAP5 POP DUP1 PUSH1 0x20 SUB PUSH2 0x100 EXP DUP6 MLOAD DIV PUSH1 0x1 DUP3 ADD DUP2 ADD SWAP4 POP POP POP PUSH2 0xB88 JUMP JUMPDEST PUSH1 0xF8 DUP2 LT ISZERO PUSH2 0xDDB JUMPI PUSH2 0xD88 PUSH1 0xC0 DUP3 PUSH2 0x10F8 JUMP JUMPDEST PUSH1 0x1 SWAP4 SWAP1 SWAP4 ADD MLOAD PUSH1 0x20 DUP5 SWAP1 SUB PUSH1 0xF7 ADD PUSH2 0x100 EXP SWAP1 DIV SWAP1 SWAP3 ADD PUSH1 0xF5 NOT ADD SWAP3 SWAP2 POP POP JUMP JUMPDEST DUP1 MLOAD PUSH1 0x0 SWAP1 DUP2 SUB PUSH2 0xE10 JUMPI POP PUSH1 0x0 SWAP2 SWAP1 POP JUMP JUMPDEST PUSH1 0x0 DUP1 PUSH2 0xE20 DUP5 PUSH1 0x20 ADD MLOAD PUSH2 0xE82 JUMP JUMPDEST DUP5 PUSH1 0x20 ADD MLOAD PUSH2 0xE2F SWAP2 SWAP1 PUSH2 0x10E5 JUMP JUMPDEST SWAP1 POP PUSH1 0x0 DUP5 PUSH1 0x0 ADD MLOAD DUP6 PUSH1 0x20 ADD MLOAD PUSH2 0xE47 SWAP2 SWAP1 PUSH2 0x10E5 JUMP JUMPDEST SWAP1 POP JUMPDEST DUP1 DUP3 LT ISZERO PUSH2 0xE79 JUMPI PUSH2 0xE5B DUP3 PUSH2 0xD59 JUMP JUMPDEST PUSH2 0xE65 SWAP1 DUP4 PUSH2 0x10E5 JUMP JUMPDEST SWAP2 POP DUP3 PUSH2 0xE71 DUP2 PUSH2 0x10CC JUMP JUMPDEST SWAP4 POP POP PUSH2 0xE4A JUMP JUMPDEST POP SWAP1 SWAP4 SWAP3 POP POP POP JUMP JUMPDEST DUP1 MLOAD PUSH1 0x0 SWAP1 DUP2 BYTE PUSH1 0x80 DUP2 LT ISZERO PUSH2 0xE9B JUMPI POP PUSH1 0x0 SWAP3 SWAP2 POP POP JUMP JUMPDEST PUSH1 0xB8 DUP2 LT DUP1 PUSH2 0xEB6 JUMPI POP PUSH1 0xC0 DUP2 LT DUP1 ISZERO SWAP1 PUSH2 0xEB6 JUMPI POP PUSH1 0xF8 DUP2 LT JUMPDEST ISZERO PUSH2 0xEC4 JUMPI POP PUSH1 0x1 SWAP3 SWAP2 POP POP JUMP JUMPDEST PUSH1 0xC0 DUP2 LT ISZERO PUSH2 0xEF1 JUMPI PUSH2 0xED9 PUSH1 0x1 PUSH1 0xB8 PUSH2 0x110B JUMP JUMPDEST PUSH2 0xEE6 SWAP1 PUSH1 0xFF AND DUP3 PUSH2 0x10F8 JUMP JUMPDEST PUSH2 0x3F5 SWAP1 PUSH1 0x1 PUSH2 0x10E5 JUMP JUMPDEST PUSH2 0xED9 PUSH1 0x1 PUSH1 0xF8 PUSH2 0x110B JUMP JUMPDEST DUP1 PUSH1 0x0 SUB PUSH2 0xF0A JUMPI POP POP POP JUMP JUMPDEST PUSH1 0x20 DUP2 LT PUSH2 0xF42 JUMPI DUP3 MLOAD DUP3 MSTORE PUSH2 0xF21 PUSH1 0x20 DUP5 PUSH2 0x10E5 JUMP JUMPDEST SWAP3 POP PUSH2 0xF2E PUSH1 0x20 DUP4 PUSH2 0x10E5 JUMP JUMPDEST SWAP2 POP PUSH2 0xF3B PUSH1 0x20 DUP3 PUSH2 0x10F8 JUMP JUMPDEST SWAP1 POP PUSH2 0xF0A JUMP JUMPDEST DUP1 ISZERO PUSH2 0xF7B JUMPI PUSH1 0x0 PUSH1 0x1 PUSH2 0xF57 DUP4 PUSH1 0x20 PUSH2 0x10F8 JUMP JUMPDEST PUSH2 0xF63 SWAP1 PUSH2 0x100 PUSH2 0x1208 JUMP JUMPDEST PUSH2 0xF6D SWAP2 SWAP1 PUSH2 0x10F8 JUMP JUMPDEST DUP5 MLOAD DUP5 MLOAD DUP3 AND SWAP2 NOT AND OR DUP4 MSTORE POP JUMPDEST POP POP POP JUMP JUMPDEST PUSH4 0x4E487B71 PUSH1 0xE0 SHL PUSH1 0x0 MSTORE PUSH1 0x41 PUSH1 0x4 MSTORE PUSH1 0x24 PUSH1 0x0 REVERT JUMPDEST PUSH1 0x0 PUSH1 0x20 DUP3 DUP5 SUB SLT ISZERO PUSH2 0xFA8 JUMPI PUSH1 0x0 DUP1 REVERT JUMPDEST DUP2 CALLDATALOAD PUSH8 0xFFFFFFFFFFFFFFFF DUP1 DUP3 GT ISZERO PUSH2 0xFC0 JUMPI PUSH1 0x0 DUP1 REVERT JUMPDEST DUP2 DUP5 ADD SWAP2 POP DUP5 PUSH1 0x1F DUP4 ADD SLT PUSH2 0xFD4 JUMPI PUSH1 0x0 DUP1 REVERT JUMPDEST DUP2 CALLDATALOAD DUP2 DUP2 GT ISZERO PUSH2 0xFE6 JUMPI PUSH2 0xFE6 PUSH2 0xF80 JUMP JUMPDEST PUSH1 0x40 MLOAD PUSH1 0x1F DUP3 ADD PUSH1 0x1F NOT SWAP1 DUP2 AND PUSH1 0x3F ADD AND DUP2 ADD SWAP1 DUP4 DUP3 GT DUP2 DUP4 LT OR ISZERO PUSH2 0x100E JUMPI PUSH2 0x100E PUSH2 0xF80 JUMP JUMPDEST DUP2 PUSH1 0x40 MSTORE DUP3 DUP2 MSTORE DUP8 PUSH1 0x20 DUP5 DUP8 ADD ADD GT ISZERO PUSH2 0x1027 JUMPI PUSH1 0x0 DUP1 REVERT JUMPDEST DUP3 PUSH1 0x20 DUP7 ADD PUSH1 0x20 DUP4 ADD CALLDATACOPY PUSH1 0x0 SWAP3 DUP2 ADD PUSH1 0x20 ADD SWAP3 SWAP1 SWAP3 MSTORE POP SWAP6 SWAP5 POP POP POP POP POP JUMP JUMPDEST PUSH1 0x0 DUP2 MLOAD DUP1 DUP5 MSTORE PUSH1 0x0 JUMPDEST DUP2 DUP2 LT ISZERO PUSH2 0x106D JUMPI PUSH1 0x20 DUP2 DUP6 ADD DUP2 ADD MLOAD DUP7 DUP4 ADD DUP3 ADD MSTORE ADD PUSH2 0x1051 JUMP JUMPDEST POP PUSH1 0x0 PUSH1 0x20 DUP3 DUP7 ADD ADD MSTORE PUSH1 0x20 PUSH1 0x1F NOT PUSH1 0x1F DUP4 ADD AND DUP6 ADD ADD SWAP2 POP POP SWAP3 SWAP2 POP POP JUMP JUMPDEST PUSH1 0x20 DUP2 MSTORE PUSH1 0x0 PUSH2 0x3F5 PUSH1 0x20 DUP4 ADD DUP5 PUSH2 0x1047 JUMP JUMPDEST PUSH4 0x4E487B71 PUSH1 0xE0 SHL PUSH1 0x0 MSTORE PUSH1 0x32 PUSH1 0x4 MSTORE PUSH1 0x24 PUSH1 0x0 REVERT JUMPDEST PUSH4 0x4E487B71 PUSH1 0xE0 SHL PUSH1 0x0 MSTORE PUSH1 0x11 PUSH1 0x4 MSTORE PUSH1 0x24 PUSH1 0x0 REVERT JUMPDEST PUSH1 0x0 PUSH1 0x1 DUP3 ADD PUSH2 0x10DE JUMPI PUSH2 0x10DE PUSH2 0x10B6 JUMP JUMPDEST POP PUSH1 0x1 ADD SWAP1 JUMP JUMPDEST DUP1 DUP3 ADD DUP1 DUP3 GT ISZERO PUSH2 0xA5E JUMPI PUSH2 0xA5E PUSH2 0x10B6 JUMP JUMPDEST DUP2 DUP2 SUB DUP2 DUP2 GT ISZERO PUSH2 0xA5E JUMPI PUSH2 0xA5E PUSH2 0x10B6 JUMP JUMPDEST PUSH1 0xFF DUP3 DUP2 AND DUP3 DUP3 AND SUB SWAP1 DUP2 GT ISZERO PUSH2 0xA5E JUMPI PUSH2 0xA5E PUSH2 0x10B6 JUMP JUMPDEST PUSH1 0x1 DUP2 DUP2 JUMPDEST DUP1 DUP6 GT ISZERO PUSH2 0x115F JUMPI DUP2 PUSH1 0x0 NOT DIV DUP3 GT ISZERO PUSH2 0x1145 JUMPI PUSH2 0x1145 PUSH2 0x10B6 JUMP JUMPDEST DUP1 DUP6 AND ISZERO PUSH2 0x1152 JUMPI SWAP2 DUP2 MUL SWAP2 JUMPDEST SWAP4 DUP5 SHR SWAP4 SWAP1 DUP1 MUL SWAP1 PUSH2 0x1129 JUMP JUMPDEST POP SWAP3 POP SWAP3 SWAP1 POP JUMP JUMPDEST PUSH1 0x0 DUP3 PUSH2 0x1176 JUMPI POP PUSH1 0x1 PUSH2 0xA5E JUMP JUMPDEST DUP2 PUSH2 0x1183 JUMPI POP PUSH1 0x0 PUSH2 0xA5E JUMP JUMPDEST DUP2 PUSH1 0x1 DUP2 EQ PUSH2 0x1199 JUMPI PUSH1 0x2 DUP2 EQ PUSH2 0x11A3 JUMPI PUSH2 0x11BF JUMP JUMPDEST PUSH1 0x1 SWAP2 POP POP PUSH2 0xA5E JUMP JUMPDEST PUSH1 0xFF DUP5 GT ISZERO PUSH2 0x11B4 JUMPI PUSH2 0x11B4 PUSH2 0x10B6 JUMP JUMPDEST POP POP PUSH1 0x1 DUP3 SHL PUSH2 0xA5E JUMP JUMPDEST POP PUSH1 0x20 DUP4 LT PUSH2 0x133 DUP4 LT AND PUSH1 0x4E DUP5 LT PUSH1 0xB DUP5 LT AND OR ISZERO PUSH2 0x11E2 JUMPI POP DUP2 DUP2 EXP PUSH2 0xA5E JUMP JUMPDEST PUSH2 0x11EC DUP4 DUP4 PUSH2 0x1124 JUMP JUMPDEST DUP1 PUSH1 0x0 NOT DIV DUP3 GT ISZERO PUSH2 0x1200 JUMPI PUSH2 0x1200 PUSH2 0x10B6 JUMP JUMPDEST MUL SWAP4 SWAP3 POP POP POP JUMP JUMPDEST PUSH1 0x0 PUSH2 0x3F5 DUP4 DUP4 PUSH2 0x1167 JUMP INVALID LOG2 PUSH5 0x6970667358 0x22 SLT KECCAK256 XOR 0xF7 STATICCALL CREATE2 CHAINID CALLDATACOPY STATICCALL DUP13 LOG2 DUP13 PUSH23 0x891FB064E87CE978C600F3E293F3191D004ADBB6896473 PUSH16 0x6C634300081700330000000000000000 "},"methodIdentifiers":{"bytesToString(bytes)":"39614e4f","customDestructure(bytes)":"059a97fb","customNestedDestructure(bytes)":"15943cb6","customNestedDestructureKeccak(bytes)":"64ea1929","customNestedToRlpBytes(bytes)":"74c4c494","isList(bytes)":"19921bd0","itemLength(bytes)":"8109672f","nestedIteration(bytes)":"76193f8c","numItems(bytes)":"dd208ea1","payloadKeccak256(bytes)":"eb4eb372","payloadLocation(bytes)":"45fce4f9","rlpBytesKeccak256(bytes)":"f29cddc0","rlpEncode(bytes)":"b166d193","rlpLen(bytes)":"aac19545","toAddress(bytes)":"2d888869","toBlockHeader(bytes)":"e7617bf8","toBoolean(bytes)":"04ba3427","toBytes(bytes)":"e79fbcec","toIterator(bytes)":"d03ca5a3","toRlpBytes(bytes)":"33c82d18","toUint(bytes)":"8529d576","toUintStrict(bytes)":"20f91849"}}}}}