{
  "_format": "hh-sol-artifact-1",
  "contractName": "StringLib",
  "sourceName": "src/StringLib.sol",
  "abi": [
    {
      "inputs": [
        {
          "internalType": "bytes",
          "name": "buffer",
          "type": "bytes"
        }
      ],
      "name": "toHex",
      "outputs": [
        {
          "internalType": "string",
          "name": "",
          "type": "string"
        }
      ],
      "stateMutability": "pure",
      "type": "function"
    }
  ],
  "bytecode": "0x6103ec61003a600b82828239805160001a60731461002d57634e487b7160e01b600052600060045260246000fd5b30600052607381538281f3fe73000000000000000000000000000000000000000030146080604052600436106100355760003560e01c8063c5bec6fc1461003a575b600080fd5b61004d610048366004610219565b610063565b60405161005a91906102af565b60405180910390f35b606060006100728360026102f8565b67ffffffffffffffff81111561008a5761008a61030f565b6040519080825280601f01601f1916602001820160405280156100b4576020820181803683370190505b5060408051808201909152601081526f181899199a1a9b1b9c1cb0b131b232b360811b602082015290915060005b848110156101ed578182518787848181106100ff576100ff610325565b6101109392013560f81c9050610351565b8151811061012057610120610325565b01602001516001600160f81b0319168361013b8360026102f8565b8151811061014b5761014b610325565b60200101906001600160f81b031916908160001a90535081825187878481811061017757610177610325565b6101889392013560f81c9050610365565b8151811061019857610198610325565b01602001516001600160f81b031916836101b38360026102f8565b6101be906001610379565b815181106101ce576101ce610325565b60200101906001600160f81b031916908160001a9053506001016100e2565b50816040516020016101ff919061038c565b604051602081830303815290604052925050505b92915050565b6000806020838503121561022c57600080fd5b823567ffffffffffffffff8082111561024457600080fd5b818501915085601f83011261025857600080fd5b81358181111561026757600080fd5b86602082850101111561027957600080fd5b60209290920196919550909350505050565b60005b838110156102a657818101518382015260200161028e565b50506000910152565b60208152600082518060208401526102ce81604085016020870161028b565b601f01601f19169190910160400192915050565b634e487b7160e01b600052601160045260246000fd5b8082028115828204841417610213576102136102e2565b634e487b7160e01b600052604160045260246000fd5b634e487b7160e01b600052603260045260246000fd5b634e487b7160e01b600052601260045260246000fd5b6000826103605761036061033b565b500490565b6000826103745761037461033b565b500690565b80820180821115610213576102136102e2565b61060f60f31b8152600082516103a981600285016020870161028b565b919091016002019291505056fea2646970667358221220537f24325f5a3fdc5ad69e3a19e80224faa1926149e9e043e3d50fca80766b9a64736f6c63430008170033",
  "linkReferences": {},
  "deployedLinkReferences": {}
}