{
  "_format": "hh-sol-artifact-1",
  "contractName": "InflateLib",
  "sourceName": "src/InflateLib.sol",
  "abi": [
    {
      "inputs": [
        {
          "internalType": "bytes",
          "name": "source",
          "type": "bytes"
        },
        {
          "internalType": "uint256",
          "name": "destlen",
          "type": "uint256"
        }
      ],
      "name": "puffEncode",
      "outputs": [
        {
          "internalType": "bytes",
          "name": "res",
          "type": "bytes"
        }
      ],
      "stateMutability": "pure",
      "type": "function"
    }
  ],
  "bytecode": "0x611ea661003a600b82828239805160001a60731461002d57634e487b7160e01b600052600060045260246000fd5b30600052607381538281f3fe73000000000000000000000000000000000000000030146080604052600436106100355760003560e01c80637c7858661461003a575b600080fd5b61004d610048366004611d12565b610063565b60405161005a9190611d8a565b60405180910390f35b6060610070848484610079565b95945050505050565b6000606060006040518061010001604052808567ffffffffffffffff8111156100a4576100a4611dd9565b6040519080825280601f01601f1916602001820160405280156100ce576020820181803683370190505b5081526020016000815260200187878080601f01602080910402602001604051908101604052809392919081815260200183838082843760009201829052509385525050506020820181905260408083018290526060830191909152805180820190915260809091019080610145600f6001611e05565b67ffffffffffffffff81111561015d5761015d611dd9565b604051908082528060200260200182016040528015610186578160200160208202803683370190505b5081526040805161012080825261242082019092526020928301929091908201612400803683370190505081525081526020016040518060400160405280600f60016101d29190611e05565b67ffffffffffffffff8111156101ea576101ea611dd9565b604051908082528060200260200182016040528015610213578160200160208202803683370190505b50815260408051601e8082526103e0820190925260209283019290919082016103c0803683375050509052905290506000808061024f8461035e565b9050600081600e81111561026557610265611e18565b1461027a579251929450919250610356915050565b8260000361034b5761028d8460016104c5565b93509050600081600e8111156102a5576102a5611e18565b146102ba579251929450919250610356915050565b6102c58460026104c5565b92509050600081600e8111156102dd576102dd611e18565b146102f2579251929450919250610356915050565b8115610326578160011461031d578160021461030f57600361032f565b61031884610598565b61032f565b61031884610609565b61032f84610624565b9050600081600e81111561034557610345611e18565b1461027a575b925192945091925050505b935093915050565b604080516101208082526124208201909252600091829182916020820161240080368337019050509050600091505b60908210156103c05760088183815181106103aa576103aa611e2e565b602090810291909101015260019091019061038d565b6101008210156103f45760098183815181106103de576103de611e2e565b60209081029190910101526001909101906103c0565b61011882101561042857600781838151811061041257610412611e2e565b60209081029190910101526001909101906103f4565b61012082101561045c57600881838151811061044657610446611e2e565b6020908102919091010152600190910190610428565b61046f8460c00151826101206000610834565b50600091505b601e8210156104a857600581838151811061049257610492611e2e565b6020908102919091010152600190910190610475565b6104ba8460e0015182601e6000610834565b506000949350505050565b608082015160009081905b838560a001511015610558578460400151518560600151036104fa57600160009250925050610591565b60a085015160408601516060870180519061051482611e44565b90528151811061052657610526611e2e565b602001015160f81c60f81b60f81c60ff16901b8117905060088560a0018181516105509190611e05565b9052506104d0565b80841c608086015260a085018051859190610574908390611e5d565b9052506000610586600180871b611e5d565b600094509091169150505b9250929050565b60006105b7604051806040016040528060608152602001606081525090565b604080518082019091526060808252602082015260006105d685610ae9565b90945092509050600081600e8111156105f1576105f1611e18565b146105fe57949350505050565b6100708584846111a3565b600061061e828360c001518460e001516111a3565b92915050565b60006080820181905260a08201819052604082015151606083015182919061064d906004611e05565b111561065c5750600192915050565b60408301516060840180519061067182611e44565b90528151811061068357610683611e2e565b0160200151604084015160608501805160f89390931c9350600892906106a882611e44565b9052815181106106ba576106ba611e2e565b602001015160f81c60f81b60f81c60ff16901b81179050801960ff1683604001518460600180518091906106ed90611e44565b9052815181106106ff576106ff611e2e565b016020015160f81c14158061074a5750604083015160608401805160ff841960081c16929161072d82611e44565b90528151811061073f5761073f611e2e565b016020015160f81c14155b156107585750600492915050565b82604001515181846060015161076e9190611e05565b111561077d5750600192915050565b8251516020840151610790908390611e05565b111561079f5750600292915050565b801561082b576107b0600182611e5d565b905082604001518360600180518091906107c990611e44565b9052815181106107db576107db611e2e565b602001015160f81c60f81b83600001518460200180518091906107fd90611e44565b90528151811061080f5761080f611e2e565b60200101906001600160f81b031916908160001a90535061079f565b50600092915050565b600080600080610842611cf3565b600092505b600f83116108845760008960000151848151811061086757610867611e2e565b60209081029190910101528261087c81611e44565b935050610847565b600093505b868410156108e95788518861089e8689611e05565b815181106108ae576108ae611e2e565b6020026020010151815181106108c6576108c6611e2e565b6020026020010180518091906108db90611e44565b905250600190930192610889565b86896000015160008151811061090157610901611e2e565b60200260200101510361091b576000945050505050610ae1565b60019150600192505b600f831161099e578851805160019390931b928490811061094757610947611e2e565b602002602001015182101561096357600e945050505050610ae1565b885180518490811061097757610977611e2e565b60200260200101518261098a9190611e5d565b91508261099681611e44565b935050610924565b60006020820152600192505b600f831015610a1c5788518051849081106109c7576109c7611e2e565b60200260200101518184601081106109e1576109e1611e2e565b60200201516109f09190611e05565b816109fc856001611e05565b60108110610a0c57610a0c611e2e565b60200201526001909201916109aa565b600093505b86841015610ac85787610a348588611e05565b81518110610a4457610a44611e2e565b6020026020010151600014610abd5760208901518490828a610a66848b611e05565b81518110610a7657610a76611e2e565b602002602001015160108110610a8e57610a8e611e2e565b60200201805190610a9e82611e44565b905281518110610ab057610ab0611e2e565b6020026020010181815250505b600190930192610a21565b60008211610ad7576000610ada565b600e5b9450505050505b949350505050565b6000610b08604051806040016040528060608152602001606081525090565b6040805180820190915260608082526020820152600080808080610b2f601e61011e611e05565b67ffffffffffffffff811115610b4757610b47611dd9565b604051908082528060200260200182016040528015610b70578160200160208202803683370190505b50905060006040518060400160405280600f6001610b8e9190611e05565b67ffffffffffffffff811115610ba657610ba6611dd9565b604051908082528060200260200182016040528015610bcf578160200160208202803683370190505b5081526040805161011e8082526123e0820190925260209283019290919082016123c08036833701905050815250905060006040518060400160405280600f6001610c1a9190611e05565b67ffffffffffffffff811115610c3257610c32611dd9565b604051908082528060200260200182016040528015610c5b578160200160208202803683370190505b50815260408051601e8082526103e0820190925260209283019290919082016103c080368337505050905290506000610c958c60056104c5565b98509450600085600e811115610cad57610cad611e18565b14610cc55750929850965090945061119c9350505050565b610cd161010189611e05565b9750610cde8c60056104c5565b97509450600085600e811115610cf657610cf6611e18565b14610d0e5750929850965090945061119c9350505050565b610d19600188611e05565b965061011e881180610d2b5750601e87115b15610d45575060059950909750955061119c945050505050565b610d4e8c6119cf565b9095509350600085600e811115610d6757610d67611e18565b14610d7f5750929850965090945061119c9350505050565b610d8d838560136000610834565b9450600085600e811115610da357610da3611e18565b14610dbd575060069950909750955061119c945050505050565b600095505b610dcc8789611e05565b861015610fc757600080610de08e86611be4565b9097509150600087600e811115610df957610df9611e18565b14610e135750949a50919850965061119c95505050505050565b6010821015610e4b57818689610e2881611e44565b9a5081518110610e3a57610e3a611e2e565b602002602001018181525050610fc0565b6000905081601003610eed5787600003610e77575060079b5092995090975061119c9650505050505050565b85610e8360018a611e5d565b81518110610e9357610e93611e2e565b60200260200101519050610ea88e60026104c5565b9097509250600087600e811115610ec157610ec1611e18565b14610edb5750949a50919850965061119c95505050505050565b610ee6836003611e05565b9150610f4c565b81601103610f0057610ea88e60036104c5565b610f0b8e60076104c5565b9097509250600087600e811115610f2457610f24611e18565b14610f3e5750949a50919850965061119c95505050505050565b610f4983600b611e05565b91505b610f56898b611e05565b610f60838a611e05565b1115610f7e575060089b5092995090975061119c9650505050505050565b8115610fc057610f8f600183611e5d565b9150808689610f9d81611e44565b9a5081518110610faf57610faf611e2e565b602002602001018181525050610f7e565b5050610dc2565b8361010081518110610fdb57610fdb611e2e565b6020026020010151600003610fff5750600b9950909750955061119c945050505050565b61100c83858a6000610834565b9450600085600e81111561102257611022611e18565b141580156110ac5750600185600e81111561103f5761103f611e18565b148061105c5750600285600e81111561105a5761105a611e18565b145b806110ac575082518051600190811061107757611077611e2e565b6020026020010151836000015160008151811061109657611096611e2e565b60200260200101516110a89190611e05565b8814155b156110c6575060099950909750955061119c945050505050565b6110d28285898b610834565b9450600085600e8111156110e8576110e8611e18565b141580156111725750600185600e81111561110557611105611e18565b14806111225750600285600e81111561112057611120611e18565b145b80611172575081518051600190811061113d5761113d611e2e565b6020026020010151826000015160008151811061115c5761115c611e2e565b602002602001015161116e9190611e05565b8714155b1561118c5750600a9950909750955061119c945050505050565b5060009950909750955050505050505b9193909250565b6000806000806000604051806103a00160405280600361ffff168152602001600461ffff168152602001600561ffff168152602001600661ffff168152602001600761ffff168152602001600861ffff168152602001600961ffff168152602001600a61ffff168152602001600b61ffff168152602001600d61ffff168152602001600f61ffff168152602001601161ffff168152602001601361ffff168152602001601761ffff168152602001601b61ffff168152602001601f61ffff168152602001602361ffff168152602001602b61ffff168152602001603361ffff168152602001603b61ffff168152602001604361ffff168152602001605361ffff168152602001606361ffff168152602001607361ffff168152602001608361ffff16815260200160a361ffff16815260200160c361ffff16815260200160e361ffff16815260200161010261ffff1681525090506000604051806103a00160405280600060ff168152602001600060ff168152602001600060ff168152602001600060ff168152602001600060ff168152602001600060ff168152602001600060ff168152602001600060ff168152602001600160ff168152602001600160ff168152602001600160ff168152602001600160ff168152602001600260ff168152602001600260ff168152602001600260ff168152602001600260ff168152602001600360ff168152602001600360ff168152602001600360ff168152602001600360ff168152602001600460ff168152602001600460ff168152602001600460ff168152602001600460ff168152602001600560ff168152602001600560ff168152602001600560ff168152602001600560ff168152602001600060ff1681525090506000604051806103c00160405280600161ffff168152602001600261ffff168152602001600361ffff168152602001600461ffff168152602001600561ffff168152602001600761ffff168152602001600961ffff168152602001600d61ffff168152602001601161ffff168152602001601961ffff168152602001602161ffff168152602001603161ffff168152602001604161ffff168152602001606161ffff168152602001608161ffff16815260200160c161ffff16815260200161010161ffff16815260200161018161ffff16815260200161020161ffff16815260200161030161ffff16815260200161040161ffff16815260200161060161ffff16815260200161080161ffff168152602001610c0161ffff16815260200161100161ffff16815260200161180161ffff16815260200161200161ffff16815260200161300161ffff16815260200161400161ffff16815260200161600161ffff1681525090506000604051806103c00160405280600060ff168152602001600060ff168152602001600060ff168152602001600060ff168152602001600160ff168152602001600160ff168152602001600260ff168152602001600260ff168152602001600360ff168152602001600360ff168152602001600460ff168152602001600460ff168152602001600560ff168152602001600560ff168152602001600660ff168152602001600660ff168152602001600760ff168152602001600760ff168152602001600860ff168152602001600860ff168152602001600960ff168152602001600960ff168152602001600a60ff168152602001600a60ff168152602001600b60ff168152602001600b60ff168152602001600c60ff168152602001600c60ff168152602001600d60ff168152602001600d60ff16815250905060005b87610100146119bb576116dd8c8c611be4565b98509050600081600e8111156116f5576116f5611e18565b146117095797506119c89650505050505050565b61010088101561177e578b515160208d015103611731576002985050505050505050506119c8565b8760f81b8c600001518d602001518151811061174f5761174f611e2e565b60200101906001600160f81b031916908160001a90535060208c0180519061177682611e44565b9052506116ca565b6101008811156119a95760006117966101018a611e5d565b9850601d89106117b257600c99505050505050505050506119c8565b6117d58d868b601d81106117c8576117c8611e2e565b602002015160ff166104c5565b9092509050600082600e8111156117ee576117ee611e18565b14611803575097506119c89650505050505050565b80868a601d811061181657611816611e2e565b602002015161ffff166118299190611e05565b97506118358d8c611be4565b99509150600082600e81111561184d5761184d611e18565b14611862575097506119c89650505050505050565b6118788d848b601e81106117c8576117c8611e2e565b9092509050600082600e81111561189157611891611e18565b146118a6575097506119c89650505050505050565b80848a601e81106118b9576118b9611e2e565b602002015161ffff166118cc9190611e05565b96508c602001518711156118ec57600d99505050505050505050506119c8565b8c515160208e01516118ff908a90611e05565b111561191757600299505050505050505050506119c8565b87156119a357611928600189611e5d565b97508c60000151878e6020015161193f9190611e5d565b8151811061194f5761194f611e2e565b602001015160f81c60f81b8d600001518e602001518151811061197457611974611e2e565b60200101906001600160f81b031916908160001a90535060208d0180519061199b82611e44565b905250611917565b506116ca565b868c6020018181516117769190611e05565b6000985050505050505050505b9392505050565b600060608180806119e3601e61011e611e05565b67ffffffffffffffff8111156119fb576119fb611dd9565b604051908082528060200260200182016040528015611a24578160200160208202803683370190505b506040805161026081018252601081526011602082015260129181019190915260006060820181905260086080830152600760a0830152600960c0830152600660e0830152600a6101008301526005610120830152600b61014083015260046101608301819052600c61018084015260036101a0840152600d6101c084015260026101e0840152600e6102008401526001610220840152600f61024084015292935091611ad29089906104c5565b95509150600082600e811115611aea57611aea611e18565b14611afb5750969095509350505050565b611b06600486611e05565b9450600093505b84841015611b8857611b208860036104c5565b84838760138110611b3357611b33611e2e565b602002015160ff1681518110611b4b57611b4b611e2e565b60209081029190910101529150600082600e811115611b6c57611b6c611e18565b14611b7d5750969095509350505050565b600190930192611b0d565b6013841015611bd457600083828660138110611ba657611ba6611e2e565b602002015160ff1681518110611bbe57611bbe611e2e565b6020908102919091010152600190930192611b88565b5060009791965090945050505050565b600080600181808080805b600f8611611ce0576000611c048b60016104c5565b9092509050600082600e811115611c1d57611c1d611e18565b14611c345750965060009550610591945050505050565b895180519682179688908110611c4c57611c4c611e2e565b602002602001015193508385611c629190611e05565b861015611cad5760208a0151600090611c7b8789611e5d565b611c859086611e05565b81518110611c9557611c95611e2e565b60200260200101519850985050505050505050610591565b611cb78484611e05565b9250611cc38486611e05565b600196871b961b9450869050611cd881611e44565b965050611bef565b50600c9960009950975050505050505050565b6040518061020001604052806010906020820280368337509192915050565b600080600060408486031215611d2757600080fd5b833567ffffffffffffffff80821115611d3f57600080fd5b818601915086601f830112611d5357600080fd5b813581811115611d6257600080fd5b876020828501011115611d7457600080fd5b6020928301989097509590910135949350505050565b60006020808352835180602085015260005b81811015611db857858101830151858201604001528201611d9c565b506000604082860101526040601f19601f8301168501019250505092915050565b634e487b7160e01b600052604160045260246000fd5b634e487b7160e01b600052601160045260246000fd5b8082018082111561061e5761061e611def565b634e487b7160e01b600052602160045260246000fd5b634e487b7160e01b600052603260045260246000fd5b600060018201611e5657611e56611def565b5060010190565b8181038181111561061e5761061e611def56fea26469706673582212202dff72ee7f8ca0a1a785b050f408c44ace3f0bacf0867deab28d0b2212daa94c64736f6c63430008170033",
  "linkReferences": {},
  "deployedLinkReferences": {}
}