{
  "_format": "hh-sol-artifact-1",
  "contractName": "RLPLib",
  "sourceName": "src/RLPLib.sol",
  "abi": [
    {
      "inputs": [
        {
          "internalType": "bytes",
          "name": "item",
          "type": "bytes"
        }
      ],
      "name": "bytesToString",
      "outputs": [
        {
          "internalType": "string",
          "name": "",
          "type": "string"
        }
      ],
      "stateMutability": "pure",
      "type": "function"
    },
    {
      "inputs": [
        {
          "internalType": "bytes",
          "name": "item",
          "type": "bytes"
        }
      ],
      "name": "customDestructure",
      "outputs": [
        {
          "internalType": "address",
          "name": "",
          "type": "address"
        },
        {
          "internalType": "bool",
          "name": "",
          "type": "bool"
        },
        {
          "internalType": "uint256",
          "name": "",
          "type": "uint256"
        }
      ],
      "stateMutability": "pure",
      "type": "function"
    },
    {
      "inputs": [
        {
          "internalType": "bytes",
          "name": "item",
          "type": "bytes"
        }
      ],
      "name": "customNestedDestructure",
      "outputs": [
        {
          "internalType": "address",
          "name": "",
          "type": "address"
        },
        {
          "internalType": "uint256",
          "name": "",
          "type": "uint256"
        }
      ],
      "stateMutability": "pure",
      "type": "function"
    },
    {
      "inputs": [
        {
          "internalType": "bytes",
          "name": "item",
          "type": "bytes"
        }
      ],
      "name": "customNestedDestructureKeccak",
      "outputs": [
        {
          "internalType": "bytes32",
          "name": "",
          "type": "bytes32"
        },
        {
          "internalType": "bytes32",
          "name": "",
          "type": "bytes32"
        }
      ],
      "stateMutability": "pure",
      "type": "function"
    },
    {
      "inputs": [
        {
          "internalType": "bytes",
          "name": "item",
          "type": "bytes"
        }
      ],
      "name": "customNestedToRlpBytes",
      "outputs": [
        {
          "internalType": "bytes",
          "name": "",
          "type": "bytes"
        }
      ],
      "stateMutability": "pure",
      "type": "function"
    },
    {
      "inputs": [
        {
          "internalType": "bytes",
          "name": "item",
          "type": "bytes"
        }
      ],
      "name": "isList",
      "outputs": [
        {
          "internalType": "bool",
          "name": "",
          "type": "bool"
        }
      ],
      "stateMutability": "pure",
      "type": "function"
    },
    {
      "inputs": [
        {
          "internalType": "bytes",
          "name": "item",
          "type": "bytes"
        }
      ],
      "name": "itemLength",
      "outputs": [
        {
          "internalType": "uint256",
          "name": "",
          "type": "uint256"
        }
      ],
      "stateMutability": "pure",
      "type": "function"
    },
    {
      "inputs": [
        {
          "internalType": "bytes",
          "name": "item",
          "type": "bytes"
        }
      ],
      "name": "nestedIteration",
      "outputs": [
        {
          "internalType": "string",
          "name": "",
          "type": "string"
        }
      ],
      "stateMutability": "pure",
      "type": "function"
    },
    {
      "inputs": [
        {
          "internalType": "bytes",
          "name": "item",
          "type": "bytes"
        }
      ],
      "name": "numItems",
      "outputs": [
        {
          "internalType": "uint256",
          "name": "",
          "type": "uint256"
        }
      ],
      "stateMutability": "pure",
      "type": "function"
    },
    {
      "inputs": [
        {
          "internalType": "bytes",
          "name": "item",
          "type": "bytes"
        }
      ],
      "name": "payloadKeccak256",
      "outputs": [
        {
          "internalType": "bytes32",
          "name": "",
          "type": "bytes32"
        }
      ],
      "stateMutability": "pure",
      "type": "function"
    },
    {
      "inputs": [
        {
          "internalType": "bytes",
          "name": "item",
          "type": "bytes"
        }
      ],
      "name": "payloadLocation",
      "outputs": [
        {
          "internalType": "uint256",
          "name": "payloadMemPtr",
          "type": "uint256"
        },
        {
          "internalType": "uint256",
          "name": "payloadLen",
          "type": "uint256"
        },
        {
          "internalType": "uint256",
          "name": "itemMemPtr",
          "type": "uint256"
        }
      ],
      "stateMutability": "pure",
      "type": "function"
    },
    {
      "inputs": [
        {
          "internalType": "bytes",
          "name": "item",
          "type": "bytes"
        }
      ],
      "name": "rlpBytesKeccak256",
      "outputs": [
        {
          "internalType": "bytes32",
          "name": "",
          "type": "bytes32"
        }
      ],
      "stateMutability": "pure",
      "type": "function"
    },
    {
      "inputs": [
        {
          "internalType": "bytes",
          "name": "item",
          "type": "bytes"
        }
      ],
      "name": "rlpEncode",
      "outputs": [
        {
          "internalType": "bytes",
          "name": "",
          "type": "bytes"
        }
      ],
      "stateMutability": "pure",
      "type": "function"
    },
    {
      "inputs": [
        {
          "internalType": "bytes",
          "name": "item",
          "type": "bytes"
        }
      ],
      "name": "rlpLen",
      "outputs": [
        {
          "internalType": "uint256",
          "name": "",
          "type": "uint256"
        }
      ],
      "stateMutability": "pure",
      "type": "function"
    },
    {
      "inputs": [
        {
          "internalType": "bytes",
          "name": "item",
          "type": "bytes"
        }
      ],
      "name": "toAddress",
      "outputs": [
        {
          "internalType": "address",
          "name": "",
          "type": "address"
        }
      ],
      "stateMutability": "pure",
      "type": "function"
    },
    {
      "inputs": [
        {
          "internalType": "bytes",
          "name": "rlpHeader",
          "type": "bytes"
        }
      ],
      "name": "toBlockHeader",
      "outputs": [
        {
          "internalType": "bytes32",
          "name": "parentHash",
          "type": "bytes32"
        },
        {
          "internalType": "bytes32",
          "name": "sha3Uncles",
          "type": "bytes32"
        },
        {
          "internalType": "bytes32",
          "name": "stateRoot",
          "type": "bytes32"
        },
        {
          "internalType": "bytes32",
          "name": "transactionsRoot",
          "type": "bytes32"
        },
        {
          "internalType": "bytes32",
          "name": "receiptsRoot",
          "type": "bytes32"
        },
        {
          "internalType": "uint256",
          "name": "difficulty",
          "type": "uint256"
        },
        {
          "internalType": "uint256",
          "name": "number",
          "type": "uint256"
        },
        {
          "internalType": "uint256",
          "name": "gasLimit",
          "type": "uint256"
        },
        {
          "internalType": "uint256",
          "name": "gasUsed",
          "type": "uint256"
        },
        {
          "internalType": "uint256",
          "name": "timestamp",
          "type": "uint256"
        },
        {
          "internalType": "uint256",
          "name": "nonce",
          "type": "uint256"
        }
      ],
      "stateMutability": "pure",
      "type": "function"
    },
    {
      "inputs": [
        {
          "internalType": "bytes",
          "name": "item",
          "type": "bytes"
        }
      ],
      "name": "toBoolean",
      "outputs": [
        {
          "internalType": "bool",
          "name": "",
          "type": "bool"
        }
      ],
      "stateMutability": "pure",
      "type": "function"
    },
    {
      "inputs": [
        {
          "internalType": "bytes",
          "name": "item",
          "type": "bytes"
        }
      ],
      "name": "toBytes",
      "outputs": [
        {
          "internalType": "bytes",
          "name": "",
          "type": "bytes"
        }
      ],
      "stateMutability": "pure",
      "type": "function"
    },
    {
      "inputs": [
        {
          "internalType": "bytes",
          "name": "item",
          "type": "bytes"
        }
      ],
      "name": "toIterator",
      "outputs": [],
      "stateMutability": "pure",
      "type": "function"
    },
    {
      "inputs": [
        {
          "internalType": "bytes",
          "name": "item",
          "type": "bytes"
        }
      ],
      "name": "toRlpBytes",
      "outputs": [
        {
          "internalType": "bytes",
          "name": "",
          "type": "bytes"
        }
      ],
      "stateMutability": "pure",
      "type": "function"
    },
    {
      "inputs": [
        {
          "internalType": "bytes",
          "name": "item",
          "type": "bytes"
        }
      ],
      "name": "toUint",
      "outputs": [
        {
          "internalType": "uint256",
          "name": "",
          "type": "uint256"
        }
      ],
      "stateMutability": "pure",
      "type": "function"
    },
    {
      "inputs": [
        {
          "internalType": "bytes",
          "name": "item",
          "type": "bytes"
        }
      ],
      "name": "toUintStrict",
      "outputs": [
        {
          "internalType": "uint256",
          "name": "",
          "type": "uint256"
        }
      ],
      "stateMutability": "pure",
      "type": "function"
    }
  ],
  "bytecode": "0x61124a61003a600b82828239805160001a60731461002d57634e487b7160e01b600052600060045260246000fd5b30600052607381538281f3fe730000000000000000000000000000000000000000301460806040526004361061014c5760003560e01c806376193f8c116100c2578063d03ca5a311610086578063d03ca5a31461032a578063dd208ea11461033f578063e7617bf814610352578063e79fbcec14610262578063eb4eb372146103b8578063f29cddc0146103cb57600080fd5b806376193f8c146102de5780638109672f146102f15780638529d57614610304578063aac1954514610317578063b166d1931461026257600080fd5b80632d888869116101145780632d8888691461021757806333c82d181461024257806339614e4f1461026257806345fce4f91461027557806364ea1929146102a357806374c4c494146102cb57600080fd5b806304ba342714610151578063059a97fb1461017957806315943cb6146101b157806319921bd0146101e357806320f91849146101f6575b600080fd5b61016461015f366004610f96565b6103de565b60405190151581526020015b60405180910390f35b61018c610187366004610f96565b6103fc565b604080516001600160a01b039094168452911515602084015290820152606001610170565b6101c46101bf366004610f96565b61048c565b604080516001600160a01b039093168352602083019190915201610170565b6101646101f1366004610f96565b6104fa565b610209610204366004610f96565b610511565b604051908152602001610170565b61022a610225366004610f96565b610528565b6040516001600160a01b039091168152602001610170565b610255610250366004610f96565b61053f565b604051610170919061108d565b610255610270366004610f96565b610557565b610288610283366004610f96565b61056f565b60408051938452602084019290925290820152606001610170565b6102b66102b1366004610f96565b6105a2565b60408051928352602083019190915201610170565b6102556102d9366004610f96565b610606565b6102556102ec366004610f96565b61063b565b6102096102ff366004610f96565b6106a5565b610209610312366004610f96565b6106b4565b610209610325366004610f96565b6106cb565b61033d610338366004610f96565b6106e1565b005b61020961034d366004610f96565b6106f1565b610365610360366004610f96565b610708565b604080519b8c5260208c019a909a52988a01979097526060890195909552608088019390935260a087019190915260c086015260e085015261010084015261012083015261014082015261016001610170565b6102096103c6366004610f96565b610895565b6102096103d9366004610f96565b6108ac565b6000806103ea836108c9565b90506103f5816108f6565b9392505050565b60008060008061041361040e866108c9565b610938565b90506104388160008151811061042b5761042b6110a0565b6020026020010151610a44565b61045b8260018151811061044e5761044e6110a0565b60200260200101516108f6565b61047e83600281518110610471576104716110a0565b6020026020010151610a64565b935093509350509193909250565b600080600061049d61040e856108c9565b90506104c2816000815181106104b5576104b56110a0565b6020026020010151610938565b90506104da8160008151811061042b5761042b6110a0565b6104f082600181518110610471576104716110a0565b9250925050915091565b600080610506836108c9565b90506103f581610ab1565b60008061051d836108c9565b90506103f581610ae2565b600080610534836108c9565b90506103f581610a44565b6060600061054c836108c9565b90506103f581610b10565b60606000610564836108c9565b90506103f581610b8f565b60008060008061057e856108c9565b905060008061058c83610c0d565b6020949094015190989397509550919350505050565b60008060006105b361040e856108c9565b90506105cb816000815181106104b5576104b56110a0565b90506105f0816000815181106105e3576105e36110a0565b6020026020010151610c54565b6104f0826001815181106105e3576105e36110a0565b6060600061061661040e846108c9565b90506103f58160008151811061062e5761062e6110a0565b6020026020010151610b10565b6060600061065061064b846108c9565b610c6c565b9050600061066061064b83610cd8565b9050600061067561067083610cd8565b610b8f565b905061068083610d35565b1561068a57600080fd5b61069382610d35565b1561069d57600080fd5b949350505050565b6000602082016103f581610d59565b6000806106c0836108c9565b90506103f581610a64565b6000806106d7836108c9565b90506103f5815190565b6106ed61064b826108c9565b5050565b60008061070061040e846108c9565b519392505050565b60008060008060008060008060008060008061072661064b8e6108c9565b905060005b61073482610d35565b1561088457806000036107595761075261074d83610cd8565b610a64565b9c50610872565b806001036107745761076d61074d83610cd8565b9b50610872565b8060030361078f5761078861074d83610cd8565b9a50610872565b806004036107aa576107a361074d83610cd8565b9950610872565b806005036107c5576107be61074d83610cd8565b9850610872565b806007036107e0576107d961074d83610cd8565b9750610872565b806008036107fb576107f461074d83610cd8565b9650610872565b806009036108165761080f61074d83610cd8565b9550610872565b80600a036108315761082a61074d83610cd8565b9450610872565b80600b0361084c5761084561074d83610cd8565b9350610872565b80600e036108675761086061074d83610cd8565b9250610872565b61087082610cd8565b505b8061087c816110cc565b91505061072b565b505091939597999b90929496989a50565b6000806108a1836108c9565b90506103f581610c54565b6000806108b8836108c9565b6020810151815190209091506103f5565b60408051808201825260008082526020918201528151808301909252825182529182019181019190915290565b805160009060011461090757600080fd5b6020820151805160001a9081158061091f5750608082145b1561092e575060009392505050565b5060019392505050565b606061094382610ab1565b61094c57600080fd5b600061095783610dfd565b905060008167ffffffffffffffff81111561097457610974610f80565b6040519080825280602002602001820160405280156109b957816020015b60408051808201909152600080825260208201528152602001906001900390816109925790505b50905060006109cb8560200151610e82565b85602001516109da91906110e5565b90506000805b84811015610a39576109f183610d59565b9150604051806040016040528083815260200184815250848281518110610a1a57610a1a6110a0565b6020908102919091010152610a2f82846110e5565b92506001016109e0565b509195945050505050565b8051600090601514610a5557600080fd5b610a5e82610a64565b92915050565b805160009015801590610a7957508151602110155b610a8257600080fd5b600080610a8e84610c0d565b81519193509150602082101561069d5760208290036101000a9004949350505050565b80516000908103610ac457506000919050565b6020820151805160001a9060c082101561092e575060009392505050565b8051600090602114610af357600080fd5b60008083602001516001610b0791906110e5565b51949350505050565b60606000826000015167ffffffffffffffff811115610b3157610b31610f80565b6040519080825280601f01601f191660200182016040528015610b5b576020820181803683370190505b5090508051600003610b6d5792915050565b6000816020019050610b888460200151828660000151610efd565b5092915050565b8051606090610b9d57600080fd5b600080610ba984610c0d565b9150915060008167ffffffffffffffff811115610bc857610bc8610f80565b6040519080825280601f01601f191660200182016040528015610bf2576020820181803683370190505b50905060208101610c04848285610efd565b50949350505050565b6000806000610c1f8460200151610e82565b90506000818560200151610c3391906110e5565b90506000828660000151610c4791906110f8565b9196919550909350505050565b6000806000610c6284610c0d565b9020949350505050565b6040805160808101825260009181018281526060820183905281526020810191909152610c9882610ab1565b610ca157600080fd5b6000610cb08360200151610e82565b8360200151610cbf91906110e5565b6040805180820190915293845260208401525090919050565b6040805180820190915260008082526020820152610cf582610d35565b610cfe57600080fd5b60208201516000610d0e82610d59565b9050610d1a81836110e5565b60209485015260408051808201909152908152928301525090565b80518051602082015160009291610d4b916110e5565b836020015110915050919050565b80516000908190811a6080811015610d745760019150610b88565b60b8811015610d9a57610d886080826110f8565b610d939060016110e5565b9150610b88565b60c0811015610dc75760b78103600185019450806020036101000a85510460018201810193505050610b88565b60f8811015610ddb57610d8860c0826110f8565b60019390930151602084900360f7016101000a900490920160f5190192915050565b80516000908103610e1057506000919050565b600080610e208460200151610e82565b8460200151610e2f91906110e5565b9050600084600001518560200151610e4791906110e5565b90505b80821015610e7957610e5b82610d59565b610e6590836110e5565b915082610e71816110cc565b935050610e4a565b50909392505050565b8051600090811a6080811015610e9b5750600092915050565b60b8811080610eb6575060c08110801590610eb6575060f881105b15610ec45750600192915050565b60c0811015610ef157610ed9600160b861110b565b610ee69060ff16826110f8565b6103f59060016110e5565b610ed9600160f861110b565b80600003610f0a57505050565b60208110610f425782518252610f216020846110e5565b9250610f2e6020836110e5565b9150610f3b6020826110f8565b9050610f0a565b8015610f7b5760006001610f578360206110f8565b610f6390610100611208565b610f6d91906110f8565b845184518216911916178352505b505050565b634e487b7160e01b600052604160045260246000fd5b600060208284031215610fa857600080fd5b813567ffffffffffffffff80821115610fc057600080fd5b818401915084601f830112610fd457600080fd5b813581811115610fe657610fe6610f80565b604051601f8201601f19908116603f0116810190838211818310171561100e5761100e610f80565b8160405282815287602084870101111561102757600080fd5b826020860160208301376000928101602001929092525095945050505050565b6000815180845260005b8181101561106d57602081850181015186830182015201611051565b506000602082860101526020601f19601f83011685010191505092915050565b6020815260006103f56020830184611047565b634e487b7160e01b600052603260045260246000fd5b634e487b7160e01b600052601160045260246000fd5b6000600182016110de576110de6110b6565b5060010190565b80820180821115610a5e57610a5e6110b6565b81810381811115610a5e57610a5e6110b6565b60ff8281168282160390811115610a5e57610a5e6110b6565b600181815b8085111561115f578160001904821115611145576111456110b6565b8085161561115257918102915b93841c9390800290611129565b509250929050565b60008261117657506001610a5e565b8161118357506000610a5e565b816001811461119957600281146111a3576111bf565b6001915050610a5e565b60ff8411156111b4576111b46110b6565b50506001821b610a5e565b5060208310610133831016604e8410600b84101617156111e2575081810a610a5e565b6111ec8383611124565b8060001904821115611200576112006110b6565b029392505050565b60006103f5838361116756fea264697066735822122018f7faf54637fa8ca28c76891fb064e87ce978c600f3e293f3191d004adbb68964736f6c63430008170033",
  "linkReferences": {},
  "deployedLinkReferences": {}
}